:020000022000DC
:1060000000000120756302005D6302005F6302000F
:106010006163020063630200656302000000000028
:1060200000000000000000000000000067630200A4
:1060300069630200000000006B6302006D630200F0
:10604000F9C202006F63020065CD020091D6020022
:10605000A9D602006F63020085CA0200D5DF0200E4
:106060006F6302006F6302006F6302006F630200E0
:106070006F6302006F6302006F6302006F630200D0
:106080006F630200418302006F6302006F630200CE
:10609000818302006F6302000D2503006F6302001D
:1060A0006F6302006F6302006F6302006F630200A0
:1060B0006F6302006F630200000000000000000038
:1060C0006F6302006F6302006F6302006F63020080
:1060D00099DC02006F6302006F63020000000000A1
:1060E00000000000000000000000000000000000B0
:1060F00000000000000000000000000000000000A0
:10610000000000000000000000000000000000008F
:10611000000000000000000000000000000000007F
:10612000000000000000000000000000000000006F
:10613000000000000000000000000000000000005F
:10614000000000000000000000000000000000004F
:10615000000000000000000000000000000000003F
:10616000000000000000000000000000000000002F
:10617000000000000000000000000000000000001F
:10618000000000000000000000000000000000000F
:1061900000000000000000000000000000000000FF
:1061A00000000000000000000000000000000000EF
:1061B00000000000000000000000000000000000DF
:1061C00000000000000000000000000000000000CF
:1061D00000000000000000000000000000000000BF
:1061E00000000000000000000000000000000000AF
:1061F000000000000000000000000000000000009F
:10620000354936480A1A02D0072291438D4634494F
:1062100034480A1A06D00722914381F309880222E2
:1062200082F3148830483149314A00F044F831484B
:106230003149324A00F03FF831483249324A00F0E1
:106240003AF832483249334A00F035F83248334997
:10625000334A00F030F833483349344A00F02BF821
:1062600033483449344A00F026F83448344900228F
:1062700000F02CF833483449002200F027F8334866
:106280003349091A082902DB002202604160314AC1
:1062900090471F481F49884205D00268043003B464
:1062A000904703BCF7E700208646EC46002000211B
:1062B000294A9047FEE7884207D0521A05D0037852
:1062C00001300B700131013AF9D17047884202D098
:1062D00002700130FAE770470000012000E0002062
:1062E0000000012000000120E8B50300BC2A0020C6
:1062F000D02C0020D4630200D4630200F87F030096
:10630000E8B50300BC2A0020BC2A00200C82030050
:106310000C8203000C8203000C8203000C82030039
:106320000C8203000C8203000C820300E7B503001B
:10633000FCB70300D02C0020D02C0020D02C002053
:106340002C8000202C8000202C8000202C8000201D
:106350002CA000209D63020015EA0200FEE7FEE784
:10636000FEE7FEE7FEE7FEE7FEE7FEE7FEE7FEE705
:10637000704700BF1048804710484FF0070188431E
:1063800085460F4880470F48016841F4700101605D
:10639000BFF34F8FBFF36F8FFFF732BF0A480B4930
:1063A0000B4A884207D0521A05D0037801300B708F
:1063B0000131013AF9D170477163020000000120F8
:1063C00039B7020088ED00E0F8810300A82A002018
:0463D000BC2A0020C3
:1063D40000B585B00190019B002B0AD0074B43F018
:1063E40001030393019B9B010293039B029898472B
:1063F40000E000BF05B05DF804FB00BF208203008D
:1064040000B583B00190019B002B0AD04FF47A7041
:10641400FFF7DEFF019B013B0193019B002BF5D1AC
:1064240000E000BF03B05DF804FB08B508F050FCC1
:1064340000BF08BD00B589B0039002910192019B91
:10644400002B33D00023079303230693029A079B60
:106454001344019A1946002008F0EAFB0590079AB4
:10646400059B13440793019A059BD31A0193059B3B
:10647400002B13D10F4B1B7883F00103DBB2002BED
:1064840013D10120FFF7BCFF069B013B0693069B3B
:10649400002B03D1074B00221A7007E0054B0122A1
:1064A4001A70019B002BD1D100E000BF00BF09B0DE
:1064B4005DF804FBD02C002000B585B00390029158
:1064C400054B00934023054A0299039800F012F803
:1064D40000BF05B05DF804FB39640200D42C002031
:1064E40082B0019000BF02B0704782B0019000BF3B
:1064F40002B0704700B5A1B00590049103920293D5
:10650400049803F019F8039B1593029B1693002338
:10651400179300238DF8603000231993229B1A935C
:1065240000231F930FA91F9B0822049803F0DEF891
:1065340008231F93119B1293BDF84030ADF84C30E3
:10654400BDF84230ADF84E3000238DF851309DF83F
:106554003C3003F00303DBB2012B26D10F9BC3F3C2
:1065640095231C939DF83C30C3F3C203DBB28DF832
:106574005030BDF83C30C3F38313DBB21B931B9B39
:106584009A0009A91F9B049803F0B0F81B9B9B0079
:106594001F9A13441F9312AA09A915AB009313461B
:1065A4001B9A1C9800F0A6FF2FE09DF83C3003F0E6
:1065B4000303DBB2022B28D1BDF83E30C3F38913A9
:1065C4009BB21E939DF83C30C3F3C203DBB28DF83B
:1065D40050301E9B082B28BF08231D9307A91F9B1F
:1065E4001D9A049803F082F81F9A1D9B13441F936D
:1065F4001E9A1D9BD31A1E9315AB12AA07A81D99A8
:1066040001F01AF81E9B002BE3D1049802F0A3FFBB
:1066140000BF21B05DF804FB82B00190019BDB68F0
:1066240001225A7100BF02B07047000000B583B068
:106634004FF0FF330193FFF7F8FE0421084800F000
:1066440073FE0190019B002B03DA0649412002F0FE
:1066540014F80348FFF7E0FF00BF03B05DF804FB44
:10666400E88103003882030000B583B001900091F3
:10667400019B1B681B6800990198984700BF03B0F1
:106684005DF804FB00B583B00190019B1B685B6857
:106694000198984700BF03B05DF804FB00B583B0D0
:1066A4000190019B1B689B680198984700BF03B049
:1066B4005DF804FB82B001900B468DF80330019B1A
:1066C400DB689DF803201A7100BF02B0704782B0E6
:1066D4000190019BDB681B79184602B0704782B0B9
:1066E4000190019BDB6801225A7100BF02B0704720
:1066F40082B00190019BDB685B79184602B0704759
:1067040000B585B001900091154BFF229A60144B9F
:1067140000221A60124B00225A60114B0022C3F867
:1067240018240F4B0022C3F814240D4B012283F8C4
:1067340020240C4802F064FE0390039B002B01D03C
:10674400039B08E0084803F019F9084A084BD31AD8
:10675400DB0802930023184605B05DF804FB00BF74
:106764007C2E00204C8103008C820300E88103000E
:1067740060810300024A034BD31ADB0818467047B2
:10678400E88103006081030000B587B001900B46E7
:106794008DF803309DF80330002B1FD0FFF7EAFF7C
:1067A40004900023059313E0059B9B000E4A1344B9
:1067B4000393039B1B881A46019B1B689A4204D1CE
:1067C400019B059A1A60002309E0059B0133059398
:1067D400059A049B9A42E7D3052300E00023184658
:1067E40007B05DF804FB00BFBC2A002000B585B0EB
:1067F40001900B468DF803309DF8032001AB114640
:106804001846FFF7C1FF0346002B07D1019BDB00AD
:10681400054A13440393039B1B6800E000231846B6
:1068240005B05DF804FB00BF6081030084B00190F3
:106834000B468DF80330019BDB00174A1344029387
:106844009DF80330013B032B1CD801A252F823F01E
:10685400656802006D680200756802007F680200C6
:1068640002238DF80F3011E004238DF80F300DE072
:10687400029B1B798DF80F3008E0029B5B798DF841
:106884000F3003E000238DF80F3000BF9DF80F3068
:10689400184604B0704700BF6081030084B00190C3
:1068A400009100238DF80F30019B1B7803F0040343
:1068B400DBB2002B24D0019B1B78C3F30103DBB2B2
:1068C400012B02D0022B0CD017E0009B1B68019A0D
:1068D4001288C2F38312D2B213449A1C009B1A602A
:1068E4000BE0009B1B68019A5288C2F3891292B292
:1068F40013449A1C009B1A6000BF01238DF80F30CB
:106904009DF80F30184604B07047000000B58BB0F6
:106914000023ADF826303E4802F085F83D4802F0E9
:1069240082F83D4B5B6804933B4B9B680693049A47
:10693400069B134002339B00374A134404330893E5
:1069440004AB19460898FFF7A9FF0346002B09D0AA
:10695400049A069B134002339B002F4A13440433CA
:106964000893EDE700BF0023079311E0049B5A1C32
:106974000492069A1340079A920001A90A442649F0
:1069840002339B000B445B681360079B013307933E
:10699400079B012BEAD99DF80430C3F30103DBB252
:1069A400012B10D0022B1CD1BDF80A30ADF82630D3
:1069B400BDF80630C3F389139BB203339A08049BD2
:1069C4001344049313E0BDF80A30ADF82630BDF843
:1069D4000430C3F38313DBB21A46049B13440493B9
:1069E40005E00E494FF4BF7001F047FE00BF0948AF
:1069F40002F025F80590059B002B02D0049B064A63
:106A04005360BDF8263018460BB05DF804FB00BF98
:106A140094320020903200207C2E00209C820300BF
:106A240000B585B00021074801F056FF0390039B91
:106A34000293029B83F310030193019B184605B054
:106A44005DF804FB9832002000B589B003900291F0
:106A540001920093039B1B0C0793FFF7E1FF069041
:106A6400FFF788FE0246079B934204D3214940F274
:106A7400A31001F002FE069B1904009B5A1C0A9BFA
:106A84001340079A0A431C4902339B000B445A6083
:106A9400009A0A9B134002339B00174A13440433A1
:106AA4000593039B03F00703D9B2059A137861F3A6
:106AB400C5031370019B03F00F03D9B2059A138821
:106AC40061F389131380029BC3F31501059A1368BC
:106AD40061F39F231360059A1378012161F3010385
:106AE4001370059A13786FF38203137000BF09B013
:106AF4005DF804FB9C8203007C2E002000B58DB061
:106B04000390029113468DF80730039B02330A93D6
:106B140001238DF8273000238DF81B300DF11B0362
:106B2400184601F05DFD404B1A68029B1A603E4B0B
:106B34009A683D4B59683C4B1B68CB1A134401338C
:106B44000B9314E00121394801F03DFFFFF7DEFE0D
:106B540007900799354801F036FF334B9A68324B5A
:106B64005968314B1B68CB1A134401330B930A9AAF
:106B74000B9B9A42E6D89DF82730002B48D000237F
:106B840005939DF80730002B17D09DF8143001228F
:106B940062F301038DF814309DF8143043F00403BC
:106BA4008DF81430039B03F00F03DAB2BDF81430F0
:106BB40062F38913ADF8143016E09DF81430022204
:106BC40062F301038DF814309DF8143043F004038C
:106BD4008DF81430039BC3F309039AB2BDF8163041
:106BE40062F38F13ADF816300F4B1A680E4B9B6887
:106BF400134002339B000C4A134404330893059A50
:106C0400089B1A60084B1A680A9B1344064A1360CF
:106C14009DF81B30184601F0F9FC9DF82730184602
:106C24000DB05DF804FB00BF7C2E002098320020DC
:106C340000B58BB005900491039202931F4B9B689F
:106C4400079306AB012219460298FFF757FF034644
:106C5400002B24D0069B023309930023089311E0F0
:106C6400089B9B00039A1A44099B591C0991079994
:106C74000B401268114902339B000B445A60089B75
:106C840001330893089A029B9A42E9D3069A079B18
:106C940000931346029A04990598FFF7D5FE074B13
:106CA40093F82034002B05D000BF00F035F90346DB
:106CB400002BFAD100BF0BB05DF804FB7C2E002042
:106CC40000B583B00190009100230022009901983F
:106CD400FFF7AEFF00BF03B05DF804FB00B587B05B
:106CE400039002910192019B059305AA0123029945
:106CF4000398FFF79DFF00BF07B05DF804FB00B5E4
:106D040087B00390029101920093019B0493009B2E
:106D1400059304AA022302990398FFF789FF00BF91
:106D240007B05DF804FB00B589B0039002910192AD
:106D34000093019B0593009B06930A9B079305AA66
:106D4400032302990398FFF773FF00BF09B05DF8AE
:106D540004FB00B589B00390029101920093019B5A
:106D64000493009B05930A9B06930B9B079304AA29
:106D7400042302990398FFF75BFF00BF09B05DF895
:106D840004FB00B58BB00390029101920093019B28
:106D94000593009B06930C9B07930D9B08930E9BF6
:106DA400099305AA052302990398FFF741FF00BF41
:106DB4000BB05DF804FB000000B58DB003900291A8
:106DC4001346ADF806304B4B9B680B93BDF8063069
:106DD40003339B0805A900221846FFF78FFE0346DC
:106DE400002B78D0059B0A93059B02330593414BF6
:106DF4009A6805990B9B0B40D31A01339B000993A6
:106E0400BDF80630099A9A420ED3059A0B9B13409B
:106E140002339B00374A13440433BDF80620029919
:106E2400184610F01DFD17E0059A0B9B1340023322
:106E34009B00304A13440433099A0299184610F00F
:106E44000FFD029A099BD118BDF80620099BD31A9D
:106E54001A46294810F004FD039B1B0C0893FFF706
:106E6400DFFD0790079B19040A9B5A1C0B9B1340D8
:106E7400089A0A431F4902339B000B445A600A9A3A
:106E84000B9B134002339B001A4A134404330693AA
:106E9400039B03F00703D9B2069A137861F3C50381
:106EA4001370069A13886FF38F131380BDF806309E
:106EB400C3F3090399B2069A538861F38F1353807D
:106EC400069A1378022161F301031370069A13786A
:106ED4006FF382031370074B93F82034002B05D013
:106EE40000BF00F019F80346002BFAD100BF0DB023
:106EF4005DF804FB7C2E0020882E0020054B5A6888
:106F0400044B1B689A420CBF01230023DBB21846D2
:106F1400704700BF7C2E002000B599B0FFF7EEFF4C
:106F24000346002B01D00023BEE19B4B0022C3F893
:106F34001824BFF34F8F00BF974B5B680493964BA5
:106F44009B681093049A109B134002339B00924A4F
:106F5400134404331193002317930023169300233F
:106F64000F9304AB19461198FFF798FC0346002BC6
:106F740019D0894BD3F81834002B14D1864B1A68D6
:106F8400049B9A4205D8844B1B68834A53600023B0
:106F94008AE1049A109B134002339B007E4A1344F7
:106FA40004331193DDE70023159311E0049B5A1C6D
:106FB4000492109A1340159A920001A90A44764942
:106FC40002339B000B445B681360159B01331593DC
:106FD400159B012BEAD99DF8043003F00303DBB2BF
:106FE400022B40F09C80BDF80630C3F389139BB29A
:106FF4000D93BDF80630C3F389139BB2502B28BF01
:1070040050239BB20C930C9BC3F309039AB2BDF8B3
:10701400063062F38F13ADF806300C9B08330B93E4
:107024009DF80430C3F3C203DBB20F930B995B48A2
:1070340002F0F1F91790179B002B00F0D1801798FC
:1070440002F07AFA01A9169B0822179802F030FB85
:10705400169B08331693049BDA43109B13400133A9
:107064009B000A930C9A0A9B9A4242D90A9B002BD2
:1070740008D0049A109B134002339B00464A1344E1
:10708400043300E0464B08930A9B002B02D00A9B72
:10709400DBB201E00C9BDBB28DF81F300A9B002BA6
:1070A40001D03F4B00E0002306930A9B002B06D03F
:1070B4000C9BDAB20A9BDBB2D31ADBB200E00023EA
:1070C4008DF817309DF81F20169B0899179802F029
:1070D400EFFA9DF81F30169A13441693069B002B63
:1070E40016D09DF81720169B0699179802F0E0FA1F
:1070F4000EE0049A109B134002339B00264A13446B
:1071040004330993169B0C9A0999179802F0D0FA44
:107114000D9B03339A08049B1344049360E09DF889
:10712400043003F00303DBB2012B59D1BDF8043062
:10713400C3F38313DBB2062B28BF0623DAB2BDF8F0
:10714400043062F38913ADF80430BDF80430C3F39E
:107154008313DBB202330E939DF80430C3F3C203EE
:10716400DBB20F930E9B9B0019460C4802F053F9B7
:107174001790179B002B33D0179802F0DDF901A963
:10718400169B0822179802F093FA169B083316935D
:10719400002315931BE000BF7C2E00204C810300CC
:1071A400882E0020049B5A1C0492109A1340023328
:1071B4009B003F4A1344191D169B0422179802F0A2
:1071C40077FA169B04331693159B01331593BDF878
:1071D4000430C3F38313DBB21A46159B9342E1D305
:1071E400179B002B40D0324BD3F810341493304B00
:1071F400D3F81834002B1BD0179802F0ACF94DE0EB
:1072040000238DF84F301498FFF772FA0346002BD1
:1072140002D001238DF84F309DF84F30002B03D05E
:1072240017991498FFF720FA149BDB681B681493D2
:10723400149B002BE4D1179802F08DF900238DF8EC
:1072440003300DF10303184601F0CAF9184BD3F8C3
:107254001834002B02D1049B154A53609DF8033067
:10726400184601F0D3F919E0114BD3F810341293F6
:1072740006E01298FFF712FA129BDB681B68129360
:10728400129B002BF5D10B4A0B4BD31ADB081B04C2
:1072940043F0020309491846FFF712FDFFF72EFEDB
:1072A400034683F00103DBB2184619B05DF804FB12
:1072B4007C2E0020A081030060810300E88203008B
:1072C40000B585B00023039323E0164BD3F81034A4
:1072D400029301238DF807300FE00298FFF7F7F9C6
:1072E40003461A46039B934203D100238DF80730CB
:1072F40006E0029BDB681B680293029B002BECD127
:107304009DF80730002B01D0039B07E0039B01335A
:107314000393039B092BD8DD4FF0FF33184605B0C8
:107324005DF804FB7C2E002000B585B001900B466F
:107334008DF80330FFF7C4FF0390039BB3F1FF3FC5
:1073440001D1039B22E0039BDBB219460198FFF7AE
:10735400B1F9104BD3F81034002B08D10D4A019B1E
:10736400C2F81034019BDB6800221A600DE0094B5F
:10737400D3F81034DA68019BDB6812681A60054B95
:10738400D3F81034DB68019A1A60039B184605B0E1
:107394005DF804FB7C2E002000B583B00D4BD3F8C0
:1073A400103401930B4B012283F8202409E0019847
:1073B400FFF795F90198FFF765F9019BDB681B68F6
:1073C4000193019B002BF2D100BF00BF03B05DF815
:1073D40004FB00BF7C2E002082B00190009100BF0E
:1073E40002B0704710B584B003900291039BDB8810
:1073F400002B0AD0039BDB881A461F4B00931346CD
:107404001E4A1F49029801F057FC039B1B7A052B67
:107414002ED0039B5B7A002B12D0039B9B881A46C9
:10742400039B1B7A19461046FFF700FA03461A46D7
:10743400144B53F822301A461349029801F03CFCCD
:10744400039B1B6819460298FFF7C6FF039B1B7A30
:107454001A460E4B53F82240039B9B880021184682
:10746400FFF7C4F9034622460949029801F024FCB7
:1074740000BF04B010BD00BF1C8303002C830300B5
:1074840064830300D82A00207C830300C42A0020DC
:107494008083030000B585B00390029113468DF8F4
:1074A4000730039B1B7A052B0FD0039B5B7A002BC1
:1074B40006D00D4B1B681A460C49029801F0FCFBE0
:1074C4000B49029801F0F8FB07E09DF80730002B08
:1074D40003D00749029801F0EFFB029801F0CAFBC0
:1074E40000BF05B05DF804FBD82A00207C830300AC
:1074F4008C83030030B58BB00790069105920493FA
:107504000E9B1B7B8DF827300E9B00221A730E995D
:107514000498FFF767FF059B062B7FD801A252F85A
:1075240023F000BF457502004F7502005F7502002D
:107534007375020091750200B9750200E9750200C5
:1075440007990E9801F0B8FB69E0069B1B681A4680
:1075540007990E9801F0B0FB61E0069B1A68069B40
:1075640004331B6807990E9801F0A6FB57E0069BAD
:107574001A68069B04331968069B08331B6800933A
:107584000B4607990E9801F097FB48E0069B196893
:10759400069B04331868069B08331B68069A0C3252
:1075A40012680192009303460A4607990E9801F067
:1075B40083FB34E0069B1868069B04331C68069B17
:1075C40008331B68069A0C32126806991031096850
:1075D4000291019200932346024607990E9801F006
:1075E4006BFB1CE0069B1C68069B04331D68069B12
:1075F40008331B68069A0C32126806991031096820
:1076040006981430006803900291019200932B466F
:10761400224607990E9801F04FFB00E000BF0022BC
:107624000E990498FFF736FF0E9B9DF827201A73D6
:1076340000BF0BB030BD00BF00B587B0039002910E
:1076440001920093029B082B5CD8009B1B7B8DF856
:107654001330009B00221A7300990198FFF7C2FEB1
:107664000023059314E0059A029B9A4209D2039AD7
:10767400059B13441B781A462449009801F01CFB0F
:1076840003E02349009801F017FB059B01330593A0
:10769400059B072BE7D91F49009801F00DFB002338
:1076A400059322E0059A029B9A4217D2039A059BFE
:1076B40013441B788DF812309DF81230184610F0E0
:1076C4006DF80346002B02D09DF8123000E02E2303
:1076D4001A461149009801F0EFFA03E00F490098A7
:1076E40001F0EAFA059B01330593059B072BD9D9D1
:1076F400012200990198FFF7CDFE009B9DF813200D
:107704001A7300E000BF07B05DF804FB9083030028
:10771400988303009C830300A0830300A4830300D5
:1077240086B003900291019201238DF817309DF8E1
:107734001730214A039B13601F4A029B53601E4A61
:10774400019B9360039B44F20102934213D0039B79
:1077540044F20202934221D1019B174AD360164B93
:10776400DB681B881A46144B9A61134BDB685B6811
:10777400114AD36112E0019B0F4A13610E4B1B693E
:107784009B680D4A53610C4B1B691B680A4A936141
:10779400094B1B695B68084AD36100BF72B600BF1E
:1077A40000BF9DF81730DBB2002BFAD162B600BFE0
:1077B40000BF06B0704700BFA032002000B583B000
:1077C40002900091019244F2010071466A4600F071
:1077D40003F803B000BD00BF30B58BB0079006912D
:1077E400059272B600BFFFF7D7FD00BFFFF794FB09
:1077F4000346002BFAD1079B44F2020293422FD096
:10780400079B44F20202934269D8079B44F20102A7
:10781400934237D0079B44F2010293425FD8079BFF
:10782400012B05D0079B41F2010293420CD056E094
:10783400394A3A4BD31ADB081B0443F00103384995
:107844001846FFF73DFA57E0334A344BD31ADB08A6
:107854001B0443F0010333491846FFF731FA4BE0A8
:10786400059B09932C4A2D4BD31ADB081B0443F0C8
:107874000100099B5B681A46099B1B882A49FFF78C
:107884003EFA39E0059B0893234A244BD31ADB08BC
:107894001B0443F00104089B9D68089B9B681846E1
:1078A40002F0E6F803461846089B5B681946089BF5
:1078B4001B68069A02920193009103462A461B49CB
:1078C4002046FFF75EFA144A144BD31ADB081B0454
:1078D40043F0010316491846FFF7F2F90CE00E4A8B
:1078E4000E4BD31ADB081B0443F00103069A11491B
:1078F4001846FFF7F3F900BF0F4B1B6803F00103B1
:10790400002B00D000BE059A06990798FFF708FFE0
:1079140000BF0BB030BD00BFA08103006081030035
:10792400A8830300C8830300EC83030008840300D6
:107934003084030044840300F0ED00E082B0034689
:107944008DF807309DF8073003F01F0205499DF9B3
:1079540007305B09012000FA02F241F8232000BF3E
:1079640002B0704700E100E082B003468DF80730B2
:107974009DF8073003F01F0206499DF907305B09A3
:10798400012000FA02F2203341F8232000BF02B0A4
:10799400704700BF00E100E082B003468DF8073075
:1079A4009DF8073003F01F0206499DF907305B0973
:1079B400012000FA02F2403341F8232000BF02B054
:1079C400704700BF00E100E082B003468DF8073045
:1079D4009DF8073003F01F0206499DF907305B0943
:1079E400012000FA02F2603341F8232000BF02B004
:1079F400704700BF00E100E082B0034600918DF8BB
:107A040007309DF90730002B0CDA009BDAB20C49E1
:107A14009DF8073003F00F03043B5201D2B20B442C
:107A24001A7609E0009BDAB206499DF90730520143
:107A3400D2B20B4483F8002300BF02B0704700BFEA
:107A440000ED00E000E100E000B585B00190019B8D
:107A5400002B0AD0074B43F001030393019B9B01C6
:107A64000293039B0298984700E000BF05B05DF8BD
:107A740004FB00BF6084030000B583B00190064A94
:107A8400019BC2F8083506211120FFF7B5FF00BF9E
:107A940003B05DF804FB00BF0010014008B50D4BB6
:107AA4004FF48032C3F844230A4B4FF48032C3F8B6
:107AB40004231120FFF788FF1120FFF73FFF054B38
:107AC40001221A602F20FFF7BFFF034B01221A7017
:107AD40000BF08BD00100140DE33002008B51120AE
:107AE400FFF742FF0E4B4FF48032C3F848230C4B90
:107AF4004FF48032C3F80823094B01225A602F2027
:107B0400FFF7A2FF064B01229A60064B00221A607F
:107B14002F20FFF799FF044B00221A7000BF08BD05
:107B240000100140D0330020DE330020024BD3F894
:107B340004351846704700BF0010014082B0019020
:107B44000091019A009BD31A23F07F43184602B098
:107B54007047000082B00190034A019BC2F840358F
:107B640000BF02B0704700BF0010014086B0019012
:107B7400284B1B68002B03D1264A019B136045E068
:107B8400019B1A68234B1B681B689A4210D8214B2F
:107B94001B681968019B1A681E4B1B688A1A1A60B5
:107BA4001C4B1A68019BDA611A4A019B13602DE091
:107BB400019B1B680393174B1B680593154B1B68AC
:107BC400049309E0049B1B68039AD31A0393049B50
:107BD4000593049BDB690493049B002B04D0049B52
:107BE4001B68039A9A42EDD8049B002B05D0049B92
:107BF4001A68039BD21A049B1A60019B039A1A60A9
:107C0400019B049ADA61059B019ADA6100BF06B010
:107C1400704700BFCC33002000B587B001902A4BD9
:107C24001B680393284B1B680593059B049308E08A
:107C3400049A019B9A4208D0049B0593049BDB6938
:107C44000493049B002BF3D100E000BF049B002BA2
:107C540001D1002333E0059A049B9A4214D11A4BB4
:107C64001B68DB69184A1360174B1B68002B0BD188
:107C7400164B01229A60164B00221A60154B012202
:107C84001A702F20FFF7E0FE049B1B680293049BED
:107C9400DA69059BDA61059BDB690493049B002B7D
:107CA40005D0049B1A68029B1A44049B1A60064B75
:107CB4001B68039A9A4214BF01230023DBB21846BF
:107CC40007B05DF804FB00BFCC3300200010014076
:107CD400D0330020DF33002008B51120FFF75CFE0D
:107CE40000BF08BD08B51420FFF756FE00BF08BD4D
:107CF40000B583B00190019B5B69019A92691046BB
:107D0400984700BF03B05DF804FB000000B585B0E0
:107D14002B4B1B68002B4ED000230193FFF706FF6B
:107D24000246284B1B6819461046FFF707FF0290CE
:107D3400234B1B6803931DE0039B1B68029A9A4222
:107D44001CD3039B1B68029AD31A0293039B1B68E0
:107D5400019A13440193039B0093039BDB690393F0
:107D6400009B1B7C002B05D0009B00221A740098FA
:107D7400FFF7BEFF039B002BDED100E000BF124BD8
:107D84001A78124B1B789A420CD1104B1B78013392
:107D9400DAB20E4B1A700D4B1B78022B02D10B4B2F
:107DA40000221A70094B1B781946094A019B42F8B4
:107DB4002130FFF797FF00BF05B05DF804FB00BF5B
:107DC400CC330020D0330020DC330020DD3300200E
:107DD400D433002082B00190184B1A78184B1B78CA
:107DE4009A4223D0154B1B780133DAB2134B1A7025
:107DF400124B1B78022B02D1104B00221A700F4B2E
:107E04001B781A460F4B53F82220019B1A60019BE2
:107E14001A680D4B1B6813440B4A13600A4B1B680A
:107E240023F07F43084A1360012303E0019B0022EF
:107E34001A600023184602B0704700BFDC330020EC
:107E4400DD330020D4330020D033002088B00390E9
:107E5400029101920023079338E0204B1B6806939C
:107E6400069B1B68039A9A4206D2069B1A68039BD8
:107E7400D21A069B1A602EE0069B1B68039AD31A3B
:107E84000393069B1B68079A13440793069B0022DF
:107E94001A60124B1B680593069BDB690F4A13603B
:107EA400069BDB68002B11D0029A079B134423F036
:107EB4007F42069B5A60069BDA68069B9A60019B88
:107EC4001A68069BDA61019B059A1A60034B1B68CA
:107ED400002BC2D100BF00BF08B07047CC330020D4
:107EE40000B589B0019000238DF81F30664B1B68E4
:107EF4000593AAE0019B002B05D0019B0693069BEA
:107F0400DB69019361E0614B1B781A4613465B0001
:107F14001344DB005D4A1344043304935B4B1B7826
:107F24000133DAB2594B1A70584B1A78574B9B7875
:107F34009A4202D1554B00221A70049B5B68069347
:107F4400049B1B78032B1ED0032B7EDC012B1FD03C
:107F5400022B7AD1049B5B681846FFF75DFE03464B
:107F6400002B02D001238DF81F30069B00221A74C7
:107F74006BE0454B1B680393039B00221A74039B1D
:107F8400DB69414A1360404B1B68002BF1D15CE074
:107F940000BF069B1B7C002B00D056E0049B9A6814
:107FA400069B5A60049BDA68069B9A60049B1A69D4
:107FB400069BDA60049B5A69069B9A61344B1B78D2
:107FC400002B02D0069B00225A60069B5A68314B54
:107FD4001B68D31A23F07F432F4A93420ED8069B83
:107FE4005B682C4A126811461846FFF7A7FD024643
:107FF400069B9B681A44069B1A6017E0254B1A6877
:10800400069B5B6819461046FFF798FD0290069B95
:108014009B68029A9A4206D2069B9A68029BD21ADD
:10802400069B1A6002E0069B00221A60069B00224F
:108034005A60069B00229A60069B01221A74069BD2
:108044000022DA610698FFF791FD019B002B7FF473
:1080540051AF0E4B1A780D4B5B789A427FF44AAFBE
:108064009DF81F30002B04D1074B1B68059A9A42D8
:1080740001D0012300E0002303F00103DBB2184622
:1080840009B05DF804FB00BFCC330020C0320020EF
:10809400DF330020D0330020FEFF7F0010B588B00E
:1080A4000190274B1B68002B44D0254B1B681B6891
:1080B4000793FFF73BFD0690224B1B680593059938
:1080C4000698FFF73BFD0346033304931E4B1B78CE
:1080D40083F00103DBB2002B01D0FFF7DFFC049A2D
:1080E400079B934238BF1346059A13440593059B97
:1080F40023F07F4305930598FFF72CFDFFF716FD4A
:10810400039006990398FFF719FD0346DC1C0699B2
:108114000598FFF713FD03469C420DD9FFF706FDB2
:1081240003461846FFF716FD2F20FFF78DFCFFF7D7
:10813400D3FD01E0FFF7D2FC00BF08B010BD00BFC3
:10814400CC330020D0330020DE33002000B587B0CC
:108154000023019300238DF81730194B1B680493F7
:10816400184B1B6803936B461846FFF733FE034610
:108174008DF80B309DF80B30002B08D0009B01AA22
:1081840004991846FFF762FE01238DF81730019B0E
:108194001846FFF7A5FE0346002B02D001238DF8F5
:1081A40017309DF81730002B02D00398FFF776FFA5
:1081B400054B00221A7000BF07B05DF804FB00BF36
:1081C400D0330020CC330020DF33002082B00346BC
:1081D4008DF80730034A9DF80730537000BF02B092
:1081E400704700BFC032002084B00190144B5B780C
:1081F40001338DF80F30124B9B789DF80F209A4273
:1082040002D100238DF80F300D4B1B789DF80F2001
:108214009A4201D100230FE0019B9DF80F201A70B0
:10822400074B5B781A4613465B001344DB00044A91
:10823400134404330293029B184604B0704700BFF2
:10824400C032002000B589B00390029101920093DE
:108254000023079300238DF816300DF116031846FA
:1082640000F0BEF90DF117031846FFF7BDFF0690A5
:10827400069B002B02D10423079318E0069B0122DE
:108284001A70069B039A5A60FFF750FC0246069B3D
:108294009A60069B029ADA60069B019A1A61069B11
:1082A400009A5A619DF817301846FFF78FFF9DF822
:1082B4001630184600F0AAF9079B002B01D1FFF7EE
:1082C40011FD079B184609B05DF804FB00B587B0A3
:1082D40001900B468DF803300023059300238DF89D
:1082E4000E300DF10E03184600F07AF90DF10F036C
:1082F4001846FFF779FF0490049B002B02D1042356
:1083040005930BE0049B9DF803201A70049B019ACB
:108314005A609DF80F301846FFF758FF9DF80E304D
:10832400184600F073F9059B002B01D1FFF7DAFC26
:10833400059B184607B05DF804FB000008B50E4B1A
:108344000022C3F840210C4B0022C3F844210A4BFD
:108354000022C3F84821084B0022C3F84C21064BE5
:108364000022C3F80021044B0022C3F80421FFF7C4
:10837400CDFC00BF08BD00BF0010014008B5FFF7E9
:10838400E5FE00BF08BD000008B5FFF7A7FB134BCF
:1083940000221A70114B00225A70104B0B229A7053
:1083A4000F4B00221A600F4B00221A700E4B002252
:1083B4001A701420FFF708FB06211420FFF71CFB9A
:1083C4001420FFF7BBFA0020FFF756FBFFF7AEFBC4
:1083D4000346064A13600023184608BDC032002035
:1083E400CC330020DC330020DD330020D0330020E8
:1083F40086B003900B4601928DF80B30134B9B789B
:10840400002B01D108231EE0019B002B01D107237F
:1084140019E0039B002B01D1072314E0039B1B6885
:108424001B7C002B01D008230DE0039B1B680593E4
:10843400059B00221A74059B9DF80B205A74059B1A
:10844400019A5A610023184606B07047C0320020D2
:1084540000B587B0039002910192039B0593144BDE
:108464009B78002B01D108231EE0039B002B01D134
:10847400082319E0029B042B01D8072314E0059B71
:108484005B69002B01D108230EE0059B5B7C012B6B
:1084940001D1029B00E000230493019B049A0299FA
:1084A4000598FFF7CFFE0346184607B05DF804FBB6
:1084B400C032002000B585B00190019B03930D4BA1
:1084C4009B78002B01D1082310E0019B002B03D0E3
:1084D400039B5B69002B01D1082307E0039B002267
:1084E4001A7402210398FFF7F1FE0346184605B0FB
:1084F4005DF804FBC032002082B0EFF310830093D8
:10850400009B019372B600BF019B184602B07047EE
:1085140062B600BF00BF704700B585B00190FFF799
:10852400EBFF0390164B9B68002B1BD1144B0122CD
:108534009A60144BD3F88020134B1340104A1360F5
:10854400104B114AC3F880200E4BD3F884300C4AE8
:1085540053600C4B4FF0FF32C3F88420019B002280
:108564001A7002E0019B01221A70039B002B01D1B7
:10857400FFF7CEFF0023184605B05DF804FB00BFEB
:10858400E033002000E100E0FC06FFBD00B585B04B
:1085940003468DF80730104B9B68002B16D09DF8CE
:1085A4000730002B12D1FFF7A7FF03900B4A0A4BA9
:1085B4001B681360094A084B5B685360064B002232
:1085C4009A60039B002B01D1FFF7A2FF00231846FA
:1085D40005B05DF804FB00BFE033002000E100E0DB
:1085E40000B583B0019000F02BF80346012B03D0B3
:1085F4000549432000F041F80198FFF78DFF00BFC3
:1086040003B05DF804FB00BF6884030000B583B0C9
:1086140003468DF8073000F013F80346012B03D00E
:108624000649512000F029F89DF807301846FFF755
:10863400ADFF00BF03B05DF804FB00BF6884030016
:1086440084B0EFF305830193019BC3F30803039301
:10865400039B002B0DD1EFF314830093009B029333
:10866400029B03F00103002B0CBF01230023DBB2A8
:1086740000E00123184604B0704700B585B00346F6
:108684000091ADF80630BDF80630ADF80830009B17
:10869400039302AB1A46002144F20200FFF79CF850
:1086A40000BF05B05DF804FB86B001900091019B0A
:1086B40053E8011F8AB2D88902449889824228BFAC
:1086C400121A1889824202BFBFF32F8F002307E0DA
:1086D400C2EA010243E801200028E9D14FF0010376
:1086E4008DF80F30059002910492029A009B1A6053
:1086F4009DF80F30DBB2184606B0704784B0019085
:10870400019951E8013FC3EA034341E80132002AD9
:10871400F7D10392029300BF04B0704786B0019072
:108724000091019B53E8021F1FFAA1F2D8888242EC
:1087340002BFBFF32F8F00230DE0D889024498892C
:10874400824228BF121AC1EA024243E802200028EA
:10875400E8D14FF001038DF80F3005900291049297
:10876400029A009B1A609DF80F30DBB2184606B0DF
:10877400704784B00190019951E8023FC3EA234352
:1087840041E80232002AF7D10392029300BF04B0F9
:10879400704700B585B001900091009B194601987F
:1087A400FFF782FF0346002B07D0019B1B68009A4A
:1087B400128813440393039B00E00023184605B07A
:1087C4005DF804FB00B583B001900091009B1A880A
:1087D400009B5B889A4204D10198FFF78FFF012325
:1087E40000E00023184603B05DF804FB00B585B033
:1087F40001900091009B19460198FFF78FFF0346F3
:10880400002B07D0019B1B68009A528813440393E2
:10881400039B00E00023184605B05DF804FB00B597
:1088240083B001900091009B1A88009B5B889A4258
:1088340004D10198FFF79DFF012300E000231846AF
:1088440003B05DF804FB00B585B001900091009B76
:108854005B099B00019A1A44009B03F01F0301214A
:1088640001FA03F31946104600F04DF8039000BFD7
:1088740005B05DF804FB00B585B001900091009B44
:108884005B099B00019A1A44009B03F01F0301211A
:1088940001FA03F3DB431946104600F064F8039031
:1088A40000BF05B05DF804FB82B001900091009B0D
:1088B4005B099B00019A13441A68009B03F01F0391
:1088C40022FA03F303F00103002B14BF0123002356
:1088D400DBB2184602B0704710B487B00190009123
:1088E400019B009A53E8004F104643E8000191F0C1
:1088F400000FF7D1059404900391059B184607B027
:108904005DF8044B704710B487B001900091019B4F
:10891400009A53E8004F44EA020043E8000191F052
:10892400000FF6D1059404900391049B184607B0F8
:108934005DF8044B704710B487B001900091019B1F
:10894400009A53E8004F04EA020043E8000191F062
:10895400000FF6D1059404900391059B184607B0C7
:108964005DF8044B704710B487B001900091019BEF
:10897400009A53E8004F04EA020043E8000191F032
:10898400000FF6D1059404900391049B184607B098
:108994005DF8044B704710B487B001900091019BBF
:1089A400009A53E8004F04EB020043E8000191F001
:1089B400000FF6D1059404900391059B184607B067
:1089C4005DF8044B704710B487B001900091019B8F
:1089D400009A53E8004F04EB020043E8000191F0D1
:1089E400000FF6D1059404900391049B184607B038
:1089F4005DF8044B704710B487B001900091019B5F
:108A0400009A53E8004FA4EB020043E8000191F000
:108A1400000FF6D1059404900391049B184607B007
:108A24005DF8044B704700B583B0019001210198B3
:108A3400FFF769FF0346184603B05DF804FB00B571
:108A440083B0019000210198FFF775FF0346184693
:108A540003B05DF804FB000000B583B001900B4641
:108A64008DF80330019B002B03D10849E820FFF760
:108A740004FE019BDA689DF803300199098A01FB21
:108A840003F31344184603B05DF804FBB4840300F5
:108A940000B583B001900091019B002B03D10849DC
:108AA400F520FFF7EAFD009B019AD2689B1A019A10
:108AB400128AB3FBF2F3DBB2184603B05DF804FB91
:108AC400B484030000B585B00190019B002B01D153
:108AD4000E234CE0019B1B68002B03D12649FF2089
:108AE400FFF7CBFD019B5B68002B04D122494FF4B7
:108AF4008070FFF7C2FD019B9B68002B04D11E49C7
:108B040040F20110FFF7B9FD019BDB68002B04D193
:108B140019494FF48170FFF7B0FD019B1B8A002BAC
:108B240004D1154940F20310FFF7A7FD019B9A6891
:108B3400019B5B68D31A8DF80F30019B1B68019A67
:108B440052681A6007E0019B1A681368591C116087
:108B54009DF80F201A709DF80F305A1E8DF80F20C3
:108B6400002BF0D1019B1B6800221A7100231846C8
:108B740005B05DF804FB00BFB484030000B585B004
:108B84000190019B002B04D11F494FF49270FFF711
:108B940074FD0023039300238DF80A300DF10A03BA
:108BA4001846FFF71DFD019B1B681A68019B5B6853
:108BB4009A421FD9019B1B681A68013A1A601B6804
:108BC4001B7819460198FFF747FF0390019B9A68A9
:108BD400019B1B681B68D31A8DF80B30019B1B6823
:108BE4001B799DF80B209A4204D9019B1B689DF8C0
:108BF4000B201A719DF80A301846FFF707FD039BF6
:108C0400184605B05DF804FBB484030010B584B0C5
:108C140001900091019B002B04D1154940F24710AB
:108C2400FFF72BFD009B002B04D111494FF4A470D6
:108C3400FFF723FD009B039300238DF80B300DF108
:108C44000B031846FFF7CCFC019B1B681C68621CD5
:108C54001A6003990198FFF71BFF034623709DF8E0
:108C64000B301846FFF7D2FC00BF04B010BD00BFA4
:108C7400B484030000B583B00190019B002B03D1A1
:108C84000C493120FFF7F9FC019B9B68002B0CD0A9
:108C9400019B5B69019A1069019A1168019A9268B3
:108CA4009847019B00229A6000E000BF03B05DF882
:108CB40004FB00BFF88403000EB400B584B0019037
:108CC400019B002B03D118494220FFF7D6FC019BDE
:108CD4005B69002B03D114494320FFF7CEFC019BB1
:108CE4001B68002B03D110494420FFF7C6FC019BED
:108CF4005B68002B03D10C494520FFF7BEFC059BA4
:108D0400002B0AD00023039306AB039303AB1A464C
:108D14000599019800F0B0F900E000BF04B05DF8D7
:108D240004EB03B0704700BFF884030000B583B0C0
:108D340001900B468DF80330019B1A68019B9B68D8
:108D4400581C0199886013449DF803201A70019BF4
:108D54009A68019B5B689A4202D30198FFF78AFFE5
:108D640000BF03B05DF804FB00B587B00390029127
:108D74000192009300230593009B03F00103002B51
:108D840024D00BE0029B01330293059B013305932E
:108D94009DF8133019460398FFF7C8FF029B1B7810
:108DA4008DF813309DF81330002BEBD106E0019BB6
:108DB400013B019320210398FFF7B8FF019A059B1B
:108DC4009A422ED9019B002BF1D12AE0029B002B61
:108DD4000BD002980EF0C2FD059006E0019B013B0A
:108DE400019320210398FFF7A1FF019A059B9A4262
:108DF4000FD9019B002BF1D10BE0029B01330293AD
:108E0400059B013305939DF8133019460398FFF72A
:108E14008DFF029B1B788DF813309DF81330002BC7
:108E2400EBD100BF07B05DF804FB000000B589B0CA
:108E34000390029101920093029B079301230693EE
:108E440007E0079A019BB2FBF3F30793069B0133F8
:108E54000693079A019B9A42F3D2009A069B9A4280
:108E640001D9009B06930B9B03F00103002B22D135
:108E74000A9B002B1FD00B9B03F00203002B06D090
:108E8400009B002B03D130238DF8173002E0202300
:108E94008DF8173008E00A9B013B0A939DF81730C0
:108EA40019460398FFF742FF0A9B002B03D0069A4A
:108EB4000A9B9A42EFD301230793009B012B03D90A
:108EC400009B013B009309E0029A079BB2FBF3F37A
:108ED4000493049A019B9A4200D205E0079B019AED
:108EE40002FB03F30793E8E7029A079BB2FBF3F351
:108EF4000493049B079A02FB03F3029AD31A029386
:108F0400154A049B13441B7819460398FFF70EFF78
:108F1400079A019BB2FBF3F30793079B002BE3D162
:108F24000B9B03F00103002B11D00A9B002B0ED0E6
:108F340006E00A9B013B0A9320210398FFF7F6FE03
:108F44000A9B002B03D0069A0A9B9A42F1D300BFD6
:108F540009B05DF804FB00BF7885030000B589B053
:108F64000590049103920293049B002BB8BF5B42CB
:108F740006930123079307E0039B069A92FBF3F3FE
:108F84000693079B01330793039B069A9A42F3DAED
:108F9400029A079B9A4201D9029B07930A9B002BD2
:108FA4000AD0049B002B04DB0B9B03F00403002B6F
:108FB40002D00A9B013B0A930B9B03F00203002B94
:108FC40002D0029B002B16D00B9B03F00103002B55
:108FD40011D10A9B002B0ED006E00A9B013B0A9399
:108FE40020210598FFF7A2FE0A9B002B03D0079AC5
:108FF4000A9B9A42F1D3049B002B07DA049B5B4241
:1090040004932D210598FFF791FE08E00B9B03F0D4
:109014000403002B03D02B210598FFF787FE0B9B3D
:1090240003F00203002B19D00B9B03F00103002B68
:1090340014D1029B002B11D10A9B002B0ED006E009
:109044000A9B013B0A9330210598FFF76FFE0A9BA8
:10905400002B03D0079A0A9B9A42F1D304990B9BE5
:1090640001930A9B0093029B039A0598FFF7DEFE87
:1090740000BF09B05DF804FB00B58FB00590049102
:109084000392059B002B04D1AD494FF49F70FFF769
:10909400F4FA059B5B69002B04D1A9494FF4A07035
:1090A400FFF7EBFA059B1B68002B04D1A44940F29F
:1090B4004110FFF7E2FA059B5B68002B04D1A0493D
:1090C4004FF4A170FFF7D9FA049B002B00F09381B1
:1090D400049B1B788DF83730049B013304939DF86F
:1090E4003730002B00F07E819DF83730252B40F07F
:1090F4006D8100230A9301230C93049B1B788DF844
:1091040037309DF83730302B0DD0302B1BDC2B2B18
:1091140011D02D2B17D10A9B43F001030A93049B12
:109124000133049312E00A9B43F002030A93049B65
:10913400013304930AE00A9B43F004030A93049B5B
:109144000133049302E000230C9300BF0C9B002B1B
:10915400D3D1002309939DF837302A2B0CD1039BDC
:109164001B68191D039A11601B68099A134409931B
:10917400049B013304931AE0049B1B788DF8373069
:109184009DF837302F2B12D99DF83730392B0ED854
:10919400049B01330493099A13469B0013445B0018
:1091A4001A469DF837301344303B0993D3E7002324
:1091B4000B93049B1B788DF837309DF837302E2B9A
:1091C4001DD1049B01330493049B1B788DF8373025
:1091D4009DF837302F2B12D99DF83730392B0ED804
:1091E400049B013304930B9A13469B0013445B00C6
:1091F4001A469DF837301344303B0B93E4E7049B45
:109204001B788DF837309DF837306C2B03D09DF8E0
:109214003730682B07D1049B01330493049B1B78DC
:109224008DF83730EFE79DF83730252B00F0C480F8
:10923400252BC0F2C680782B00F3C380582BC0F2D4
:10924400C080583B202B00F2BC8001A252F823F0CE
:1092540049930200C7930200C7930200C793020018
:10926400C7930200C7930200C7930200C79302008A
:10927400C7930200C7930200C7930200D992020069
:10928400FB920200C7930200C7930200C793020037
:10929400C7930200FB920200C7930200C793020027
:1092A400C7930200C7930200C7930200C79302004A
:1092B40089930200C7930200C79302006D930200D2
:1092C400C79302001F930200C7930200C7930200D2
:1092D40049930200039B1B68191D039A11601B68C4
:1092E4000C930C9B8DF81F309DF81F301946059880
:1092F400FFF71CFD66E0039B1B68191D039A1160B0
:109304001B680C930A9B0193099B00930B9B0A22F5
:109314000C990598FFF722FE54E0039B1B68191D66
:10932400039A11601B680C930C990A9B0193099B87
:1093340000930B9B0A220598FFF778FD42E000BFDB
:1093440034850300039B1B68191D039A11601B6875
:109354000C930C990A9B0193099B00930B9B10227D
:109364000598FFF763FD2DE0039B1B68191D039A05
:1093740011601B6808930A9B099A08990598FFF7DE
:10938400F3FC1FE0039B1B68191D039A11601B6803
:109394000C9330210598FFF7C9FC78210598FFF755
:1093A400C5FC0C9900230193082300930823102281
:1093B4000598FFF73BFD05E025210598FFF7B6FC6E
:1093C40000E000BF049B0133049305E09DF83730AF
:1093D40019460598FFF7AAFC049B1B78002B7FF421
:1093E40077AE00E000BF059B1B7B002B04D00598E3
:1093F400FFF740FC00E000BF0FB05DF804FB00BFC6
:1094040000B583B001900198FFF75CFB0346184652
:1094140003B05DF804FB00B58BB001900091019B93
:109424001B8A043B0793009A079B1344DA1C079B8F
:10943400B2FBF3F38DF81B300198FFF79FFB059007
:10944400059B002B01D1002338E0059B00221A71F3
:10945400059B01225A71079B9AB2059BDA80059BF2
:1094640009939DF81B30013B0493099B019A1A60F0
:10947400002308931DE00198FFF780FB0390039BF2
:10948400002B0ED0059B5B790133DAB2059B5A7130
:10949400099B039A1A60039B019A1A60039B099320
:1094A40004E0059800F00EF8002307E0089B013360
:1094B4000893089A049B9A42DDD3059B18460BB087
:1094C4005DF804FB00B58BB00190019B0793079BEB
:1094D4005B798DF81B30019B08939DF81B30013B91
:1094E40005930023099305E0089B1B680893099BD7
:1094F40001330993099A059B9A42F5D3089B1B688B
:109504000493019B0893002309930BE0089B1B68B9
:10951400039308990498FFF779FB039B0893099B2D
:10952400013309939DF81B30099A9A42EED300BF88
:1095340000BF0BB05DF804FB00B585B00190019B42
:109544000393039B043301211846FFF73CFA00BF41
:1095540005B05DF804FB00B587B00190019B05934D
:10956400059B043301211846FFF745FA034603938C
:1095740003AB0493049B1B78002B02D10198FFF7E3
:10958400A1FF00BF07B05DF804FB000000B591B077
:109594000390029101920093039B002B03D1434952
:1095A400B620FFF76AF8039B0993039B0F93099B6B
:1095B400DB881A46099B5B7902FB03F3043B08939F
:1095C400009A089B9A4203D33849C420FFF755F800
:1095D400099BDB880793009B1A1D079BB2FBF3F3DF
:1095E4000E93009B0433079AB3FBF2F2079901FB35
:1095F40002F29B1A0D93019B1A68009B1344089A6C
:109604009A4203D2089A009BD31A01E0019B1B687B
:109614000C93019B0C9A1A6005E00F9B1B680F9337
:109624000E9B013B0E930E9B002BF6D100230B9354
:10963400079A0D9BD31A0A930A9A0C9B934228BF4C
:1096440013460A932AE0029A0B9B134406930F9A3B
:109654000D9B1344043305939DF84830002B05D02B
:109664000A9A059906980EF0FBF804E00A9A0699FE
:1096740005980EF0F5F800230D930F9B1B680F93CC
:109684000C9A0A9BD31A0C930B9A0A9B13440B93C0
:10969400079A0C9B934228BF13460A930C9B002BFA
:1096A400D1D100BF00BF11B05DF804FB8885030071
:1096B40000B589B00590049103920293039B07932C
:1096C40007AA00230093029B04990598FFF75EFF05
:1096D400079B039A9A4203D00349F620FEF7CDFF75
:1096E40000BF09B05DF804FB8885030000B589B0AC
:1096F4000590049103920293039B079307AA012305
:109704000093029B04990598FFF740FF079B039A77
:109714009A4204D004494FF48070FEF7AEFF00BFB4
:1097240009B05DF804FB00BF88850300BFF34F8FC9
:1097340000BF074BDB6803F4E0620549054B1343A4
:10974400CB60BFF34F8F00BF00BF00BFFCE700BF7B
:1097540000ED00E00400FA0500B583B00190019B20
:10976400002B03D10449C420FEF787FF019B5B68EB
:10977400184603B05DF804FBCC85030000B583B044
:109784000190019B002B03D106497220FEF775FF5F
:10979400019B00221A60BFF35F8F00BF00BF03B0BC
:1097A4005DF804FB2086030000B585B00190019BA1
:1097B400002B03D10A498520FEF75FFF01210198A0
:1097C400FFF78AF80390BFF35F8F00BF039B002B62
:1097D4000CBF01230023DBB2184605B05DF804FB7F
:1097E4002086030000B583B00190019B002B03D1B8
:1097F4000A499220FEF741FF019B1B68012B03D00D
:1098040006499320FEF739FFBFF35F8F00BF019B2A
:1098140000221A6000BF03B05DF804FB2086030039
:1098240033DF704700BF18464FF080430122C3F86E
:109834000025BFF34F8F00BF20BF00BFFCE700002F
:1098440008B5064B00221A700548FFF797FF054933
:10985400054800F0B1F80023184608BDF433002091
:10986400F0330020AC860300F833002000B583B049
:109874000FE02148FFF770FF0190019B1B681F4A0E
:109884001278104698470346002B31D01A4800F04E
:10989400BDF81948FFF760FF0346002BE9D1FDF737
:1098A4007BFD00BFFDF738FB0346002BFAD1134BB9
:1098B4001B78032B03D0114B1B78022B02D1FFF72B
:1098C40035FF16E008F0F2FD0346002B0DD0FFF73C
:1098D400A7FF0090009B002B07D0009B022B04D015
:1098E40007494FF4D170FEF7C8FEFFF79DFF00E073
:1098F40000BF03B05DF804FBF8330020EC33002014
:109904006486030000B583B003468DF8073017481A
:10991400FFF74AFF034683F00103DBB2002B21D19A
:109924009DF80730042B0ED0114B1B78002B03D06D
:109934000E48FFF757FF16E00E4A9DF807301370E4
:109944000B4B01221A700A4B1B78002B04D10A49D5
:1099540040F2CB10FEF791FEFFF788FF0348FFF7B4
:1099640041FF00E000BF03B05DF804FBF0330020CA
:10997400F4330020EC3300206486030082B00190AD
:10998400019B9B6800229A60019B9B6800221A61DC
:10999400019B9B6800225A61019B9B680022DA604C
:1099A400019B9B6800225A60019B9B6800221A60FD
:1099B40000BF02B07047000000B583B00190009171
:1099C400019B002B03D110495020FEF756FE009B4B
:1099D400002B03D10C495120FEF74FFE019B009A46
:1099E4001A60019B1B681A68019B5A60019B5A68A4
:1099F400019B1B685B689A4202D1019B00225A605A
:109A040000BF03B05DF804FBB886030000B583B063
:109A14000190019B002B03D114496320FEF72DFE16
:109A2400019B1B68002B03D110496420FEF725FE1F
:109A3400019B5B68002B14D0019B5B681A46019B59
:109A44001B689B6813441A46019B5A60019B5A6821
:109A5400019B1B685B689A4204D1019B00225A60F7
:109A640000E000BF03B05DF804FB00BFB88603004C
:109A740000B585B00190019800F00EF80390039BA7
:109A8400002B01D0039B00E0024B184605B05DF8A3
:109A940004FB00BF1887030086B00190164B0593A2
:109AA400164B04931FE0049A059BD31ADB10DA0FBC
:109AB40013445B10DB00059A13440393039B1B6858
:109AC4000293029A019B9A4202D9039B04930AE0EF
:109AD400029A019B9A4203D2039B0833059302E046
:109AE400039B5B6804E0059A049B9A42DBD3002342
:109AF400184606B0704700BF188B0300408C030063
:109B040082B00190019B03F00303002B0CBF0123DF
:109B14000023DBB2184602B07047000000B585B0E0
:109B24000190002303930EE00B4A039B52F8233069
:109B3400002B05D0084A039B52F82330019898471C
:109B4400039B01330393039B032BEDD900BF00BF99
:109B540005B05DF804FB00BF0C34002082B0019016
:109B64000091019B1B78013B052B61D801A252F89F
:109B740023F000BF919B0200999B0200BF9B02004F
:109B8400F19B0200119C02002D9C0200009B00220C
:109B94001A704EE0009B01221A70019B1A89009BE7
:109BA4009A81019B9A88009BDA81019BDA68009B69
:109BB4009A60009B00221A743BE0009B02221A70F8
:109BC400019B1A89009B9A81019B9A88009BDA81E8
:109BD400019BDA68009B9A60019B9B7D062B0CBF5E
:109BE40001230023DAB2009B1A7422E0009B0322B3
:109BF4001A70019BDA88009B9A81019B1A89009B49
:109C0400DA81019BDA68009B9A6012E0009B0422CF
:109C14001A70019BDA88009B9A81009B0022DA81EA
:109C2400009B00229A6004E0009B05221A7000E069
:109C340000BF00BF02B0704784B001900091019B47
:109C44000393039A009B9A4206D2039B1B68B3F1C9
:109C5400FF3F01D0012300E0002303F00103DBB246
:109C6400184604B0704782B00190019B5B880333AF
:109C74009B00019A1344184602B0704700B583B0A4
:109C8400019000910198FFF7EEFF0246009B93427A
:109C940001D202230CE0019B9B884FF6FF72934292
:109CA40003D0019B1B88002B01D1012300E000237A
:109CB400184603B05DF804FB00B583B00190019B26
:109CC400002B13D00D4BDB681A46019B93420DD336
:109CD4000A4B1B691A46019B934207D80198FFF768
:109CE4000FFF0346002B01D0012300E0002303F003
:109CF4000103DBB2184603B05DF804FBA82A002078
:109D040082B003460A46ADF806301346ADF8043077
:109D1400BDF80620134913469B0013449B000B44D3
:109D240008331A88BDF804301344ADF80430BDF884
:109D340006200C4913469B0013449B000B440A3332
:109D44001A88BDF804301344ADF80430BDF804306B
:109D540040F2FF32934294BF01230023DBB2184642
:109D640002B070473034002084B0019000910A237F
:109D740003930023ADF80A3027E0BDF80A20174901
:109D840013469B0013449B000B4404331B68009A46
:109D94009A4215D9BDF80A20104913469B00134472
:109DA4009B000B4404331B6803F58053009A9A42CA
:109DB40006D200230393019BBDF80A201A8008E011
:109DC400BDF80A300133ADF80A30BDF80A30012B72
:109DD400D3D9039B184604B0704700BF3034002029
:109DE40082B001900091009B9B7D022B09D9019BBD
:109DF4001A89009BDB8813449BB203339AB2019BFC
:109E04001A81019B5A89009BDB88D31A9BB2033BBE
:109E14009AB2019B5A8100BF02B0704700B583B06B
:109E2400074B1B681946002300930823054A06487C
:109E340001F0C0F80346184603B05DF804FB00BF08
:109E4400583400207C8C0300A82A002000B585B07B
:109E540003900399002300930823044A044801F063
:109E6400A9F80346184605B05DF804FB848C03008A
:109E7400A82A002000B585B003460091ADF806304D
:109E840000238DF80F30BDF806300333ADF80A30E7
:109E9400BDF80A3040F2FD32934201D909234AE069
:109EA4000023ADF80C303BE0BDF80C2024491346E8
:109EB4009B0013449B000B441B78002B2BD1BDF853
:109EC4000A20BDF80C3011461846FFF719FF034667
:109ED400002B20D001238DF80F30009BBDF80C20FF
:109EE4001A80BDF80C20164913469B0013449B00AE
:109EF4000B440A331988BDF80C20BDF80A300B4412
:109F040098B20F4913469B0013449B000B440A3339
:109F140002461A8008E0BDF80C300133ADF80C306D
:109F2400BDF80C30012BBFD99DF80F30002B01D0A8
:109F3400002300E00723184605B05DF804FB00BFCA
:109F44003034002082B003460A46ADF8063013468A
:109F5400ADF80430BDF804200D4913469B001344AA
:109F64009B000B440A331A88BDF80630D31A9BB2FF
:109F7400BDF80420033B98B2054913469B001344E3
:109F84009B000B440A3302461A8000BF02B070479C
:109F94003034002008B501210248FEF714FD0346C1
:109FA400184608BD1C34002000B585B00346009156
:109FB400ADF80630BDF80620244913469B0013442F
:109FC4009B000B4404331B6803F580530293009BEE
:109FD4001B680393039B002B04D00398FFF743FEF5
:109FE400039026E0BDF80620184913469B0013444D
:109FF4009B000B4404331B680833039319E0029954
:10A004000398FFF73BFE0346022B10D0022B10DC13
:10A01400002B02D0012B05D00BE0009B039A1A60A1
:10A0240001230EE00398FFF71EFE039001E00023D6
:10A0340007E002990398FFF7FFFD0346002BDED1EA
:10A044000023184605B05DF804FB00BF303400203F
:10A0540000B585B001900091019B5B681846FFF73D
:10A064002BFE0346002B19D0019B1A89244B1B8914
:10A074009A4213D1019B1A68019B5B689B689A42C0
:10A084000CD1019B5B6819460098FFF76DFE0346EF
:10A09400002B0CBF01230023DBB22CE0009B002229
:10A0A4001A8023E00023029310E0029B0393039B96
:10A0B4009A68019B1B689A4208D1029A019B5A60D4
:10A0C4000F4B1A89019B1A81012314E0009B1B8802
:10A0D40002AA11461846FFF767FF0346002BE4D196
:10A0E400009B1B8801339AB2009B1A80009B1B883B
:10A0F400012BD7D90023184605B05DF804FB00BF37
:10A104006034002000B587B003900291019200935F
:10A11400304B1B78DBB283F00103DBB2002B01D0A0
:10A12400022353E0019B002B02D0009B002B48D15B
:10A1340005234BE0009B9B881946274A0B469B004E
:10A144000B449B0013441B78002B33D124E0009B69
:10A154001B680593039B002B06D0059B9A88039BE1
:10A164001B889A4200D017E0029B002B06D0059B67
:10A174001A88029B1B889A4200D00DE0059B9A68BE
:10A18400019B1A60009B1A68019B5A60134B1A8941
:10A19400019B1A81002319E0009B9B88009A1146B9
:10A1A4001846FFF701FF0346002BD0D1009B002285
:10A1B4001A6000E000BF009B9B8801339AB2009BA9
:10A1C4009A80009B9B88012BB4D90A23184607B0B8
:10A1D4005DF804FB0034002030340020603400209B
:10A1E40000B585B00190084B01991846FEF7D1FAE5
:10A1F40003901C22002103980DF05BFB039B18467F
:10A2040005B05DF804FB00BF2034002000B583B026
:10A214000190044B01991846FEF7D4FA00BF03B02D
:10A224005DF804FB2034002000B583B00190054B99
:10A2340001991846FEF7DAFA0346184603B05DF8AA
:10A2440004FB00BF2034002000B583B00190044B10
:10A2540001991846FEF7E3FA00BF03B05DF804FB6A
:10A264002034002008B50A4B1B68002B04D109498F
:10A2740040F27A20FEF701FA01210548FEF7BBFB04
:10A284000346002B14BF01230023DBB2184608BD8C
:10A2940008340020408C030000B587B0039002917D
:10A2A400039B02229A750299039B1A1D00230093B3
:10A2B4000423074800F07EFE0590059B002B01D186
:10A2C400002300E00E23184607B05DF804FB00BF2E
:10A2D400A82A002000B587B003900291039B1B6954
:10A2E400002B01D0032200E00122039B9A75029BFC
:10A2F40008331946039B03F10C0200230093042343
:10A30400064800F057FE0590059B002B01D1002361
:10A3140000E00E23184607B05DF804FBA82A0020CD
:10A3240000B587B003900291039B1B78032B01D1E6
:10A33400052200E00622039B9A75029B043319460A
:10A34400039B03F10802002300930423064800F052
:10A3540031FE0590059B002B01D1002300E00E2364
:10A36400184607B05DF804FBA82A002000B587B0A2
:10A3740003900B46ADF80A3003990023009304239D
:10A384000C4A0D4800F016FE0590059B002B01D0E9
:10A394000E230BE0BDF80A20084913469B00134422
:10A3A4009B000B44103301221A700023184607B097
:10A3B4005DF804FB8C8C0300A82A002030340020B4
:10A3C40000B589B0019002AB00221A605A609A600D
:10A3D400019BDB6802930DF1160202AB114618468D
:10A3E400FFF736FE0346002B12D0039B0693069B11
:10A3F4009A88019BDA80069B1A88019B1A81039B29
:10A40400BDF8162011461846FFF7B0FF079001E08B
:10A414000A230793079B184609B05DF804FB000064
:10A4240000B587B00190019B981D02AA0D4B002135
:10A43400FFF768FE0590059B002B08D1039B094A92
:10A44400928811461846FFF791FF059004E0082210
:10A45400002104480DF02DFA059B184607B05DF85D
:10A4640004FB00BF7034002000B587B00390029154
:10A47400039B01229A75029B0C331846039B1A69AD
:10A48400039BDB889B00002100910146064800F0F5
:10A4940091FD0590059B002B01D1002300E00E23C4
:10A4A400184607B05DF804FBA82A002082B0184BB8
:10A4B4001B8901339AB2164B1A81154B00225A801C
:10A4C400134B00221A730023ADF8063018E0BDF8D0
:10A4D4000620104913469B0013449B000B441A7832
:10A4E400BDF80630002A0CBF01220022D1B2084A6E
:10A4F40013440A469A72BDF806300133ADF80630AB
:10A50400BDF80630012BE2D900BF00BF02B070478E
:10A51400603400203034002084B0019000238DF892
:10A524000F300023ADF80C3031E0BDF80C301C4A7C
:10A5340013449B7A002B25D0BDF80C30184A1344E1
:10A5440000229A72BDF80C20164913469B0013444E
:10A554009B000B440C331B68002B13D1BDF80C205B
:10A56400104913469B0013449B000B4410331B7883
:10A57400002B07D0019BBDF80C201A8001238DF815
:10A584000F3008E0BDF80C300133ADF80C30BDF8E5
:10A594000C30012BC9D99DF80F30184604B0704710
:10A5A400603400203034002008B5084B05221A70AE
:10A5B400074B02229A80064B1B681946002301228E
:10A5C400044800F0D9FD0346184608BD6034002055
:10A5D40058340020A82A002000B583B0164B5B88AD
:10A5E400ADF80230BDF80220144913469B00134411
:10A5F4009B000B440C331B68002B14D10E4B04221C
:10A604001A70BDF802200D4913469B0013449B00A9
:10A614000B4404331B68194600230122084800F048
:10A62400ABFD019002E0FFF7BFFF0190019B1846CC
:10A6340003B05DF804FB00BF603400203034002018
:10A64400A82A002000B587B0104B5B680593104B17
:10A654001A680F4B9B889B0013440493059B5B88EB
:10A664000333ADF80E30094B03221A700499074BDB
:10A674005A68BDF80E309B0000200090054800F099
:10A6840099FC0346184607B05DF804FB60340020CB
:10A6940058340020A82A002000B583B00A4B5B88F8
:10A6A4000A491846FFF780FC0346002B03D0FFF746
:10A6B400C9FF019002E0FFF78FFF0190019B18464C
:10A6C40003B05DF804FB00BF603400206434002054
:10A6D40008B50A4B06221A70084B5B881946084ACB
:10A6E4000B469B000B449B00134404331B68184621
:10A6F400FFF7ACFB0346184608BD00BF60340020DA
:10A704003034002008B5054B07221A70034B002291
:10A714005A60FFF783FB0346184608BD60340020E7
:10A7240008B50D48FFF7F8FE034683F00103DBB2DA
:10A73400002B0BD0094B00221A70084B00225A80C0
:10A74400064B00225A6041F61D5302E0FFF7A4FFB6
:10A754000346184608BD00BF623400206034002060
:10A7640082B0094B5B680193019B5B880333ADF8AE
:10A774000230064B9A88BDF8023013449AB2034B58
:10A784009A8000BF02B07047603400205834002023
:10A7940082B0184B1B680193174B5B881946174A04
:10A7A4000B469B000B449B00134404331B68114A63
:10A7B4001360114B5B881946104A0B469B000B44EF
:10A7C4009B0013440433019A1A600B4B5B881946AF
:10A7D400084B9888094A0B469B000B449B00134482
:10A7E400083302461A80034B02229A8000BF02B04B
:10A7F400704700BF583400206034002030340020FB
:10A8040008B51A4B1B78072B2CD801A252F823F059
:10A8140035A8020069A8020069A8020041A8020044
:10A824004DA8020059A8020059A8020061A802001C
:10A83400FFF73CFE0D4B01221A7014E0FFF790FF66
:10A844000A4B02221A700EE0FFF7A2FF074B062202
:10A854001A7008E0054B07221A7004E0034B01222A
:10A864001A7000E000BF00BF08BD00BF60340020C4
:10A8740000B587B0019000910F230593019B002B35
:10A8840004D0624B00225A600123BBE0009B1B7979
:10A89400032B00F2AB8001A252F823F0B1A802000E
:10A8A400BFA802004DA902006DA90200009B01226D
:10A8B4001A71FFF7B3FA05909BE000238DF813306B
:10A8C4000023ADF810302BE0BDF81020504913469A
:10A8D4009B0013449B000B441B78022B1BD1BDF837
:10A8E40010204B4913469B0013449B000B44002249
:10A8F4001A7001238DF81330BDF810204449134613
:10A904009B0013449B000B4404331B681846FFF759
:10A914009DFA059008E0BDF810300133ADF8103011
:10A92400BDF81030012BCFD99DF8133083F001030B
:10A93400DBB2002B5CD0354B01221A70334B002262
:10A944005A6041F61D535DE0009B00221A71314BA1
:10A9540002229A802F4B1B681946002301222E489D
:10A9640000F00AFC059044E0009B00221A71294B78
:10A974001B681846FFF76AFA0590284B5B88ADF808
:10A984000E30244B1B680293BDF80E202049134659
:10A994009B0013449B000B4404331B681D4A136043
:10A9A400BDF80E201A4913469B0013449B000B4428
:10A9B4000433029A1A60BDF80E20164B9888144985
:10A9C40013469B0013449B000B44083302461A8031
:10A9D400104B02229A80BDF80E200D4913469B00AD
:10A9E40013449B000B4400221A7002E000BF00E0F5
:10A9F40000BF059B002B04D0044B00225A600E2399
:10AA040000E00023184607B05DF804FB0034002082
:10AA14003034002058340020A82A0020603400205C
:10AA240000B587B001900091009B9B8A1A4613469B
:10AA34009B0013449B003A4A13440493019B002B4C
:10AA440005D000990498FFF7CBF9012363E0049B38
:10AA54005A68049B1B899B0013440393009B9B7DB2
:10AA6400062B4DD801A252F823F000BFB3AA02006E
:10AA7400D7AA0200BFAA0200CBAA02008DAA020034
:10AA8400E3AA0200FDAA0200264B00225A60009BA2
:10AA94009B69244A136024492248FFF7D9FA0346E4
:10AAA40083F00103DBB2002B01D00A2333E00399C6
:10AAB4000098FFF7F1FB059025E003990098FFF754
:10AAC40009FC05901FE003990098FFF7CDFC059061
:10AAD40019E003990098FFF723FC059013E0009B0D
:10AAE40006229A750F4B5B680F4A12881146184666
:10AAF400FFF73CFC059006E041F61D53059302E088
:10AB04000F23059300BF059B002B03D000990498E5
:10AB1400FFF766F9059B184607B05DF804FB00BF14
:10AB240030340020783400208434002000B585B00F
:10AB340001900091019B002B01D0012326E0009B92
:10AB44001B79022B19D0022B1BDC002B02D0012B0A
:10AB540008D016E0009B02221A710098FFF730FC1F
:10AB6400039012E00098FFF75BFC0390039B0A2B11
:10AB74000AD141F61D53039306E041F61D53039396
:10AB840003E00F23039300E000BF039B184605B0C6
:10AB94005DF804FB00B585B00190019B002B01D04A
:10ABA40001233BE01F4B1B7B002B03D01D4B0022DA
:10ABB4001A7301E0FFF724FE1A4B1B78013B062BA6
:10ABC40028D801A252F823F0E9AB0200F1AB02004D
:10ABD400F9AB020001AC020019AC020009AC02009E
:10ABE40011AC0200FFF79CFD039016E0FFF754FD43
:10ABF400039012E0FFF726FD03900EE0FFF7ECFC54
:10AC040003900AE0FFF764FD039006E0FFF77AFD86
:10AC1400039002E00F23039300BF039B184605B083
:10AC24005DF804FB6034002000B589B001903F4B0F
:10AC34001B68002B05D13E48FFF7F6FA03463B4A52
:10AC440013603A4B1B68002B04D13A4940F28250FE
:10AC5400FDF713FD354B1B681B78013B052B2CD8E6
:10AC640001A252F823F000BF85AC020095AC0200AB
:10AC740095AC0200A5AC0200A5AC0200B5AC020084
:10AC84002A4B1B6819460198FFF7F2FD019017E063
:10AC9400264B1B6819460198FFF7C2FE01900FE08E
:10ACA400224B1B6819460198FFF740FF019007E00B
:10ACB4000198FFF76FFF019002E00F23019300BF9B
:10ACC400019B002B2BD003AB00221A605A609A60C0
:10ACD400DA601A61019B41F61D52934201D0019B37
:10ACE40000E000230493114B1B6803AA1146184685
:10ACF400FEF734FF03AB1846FEF710FF0B4B0022A0
:10AD04001A60002301930A48FFF79EFAFFF7AAFA94
:10AD1400034683F00103DBB2002B02D187E700BFB7
:10AD240000E000BF00BF09B05DF804FB88340020D8
:10AD34008C340020408C030008B501210548FDF740
:10AD44002AFE0346002B02D10020FFF76DFF00BF4F
:10AD540008BD00BF0834002000B583B00190019BFA
:10AD64005B681846FFF760FF00BF03B05DF804FBA3
:10AD740000B58BB00390029101928DF8033000234B
:10AD8400ADF824300023ADF82630514B1B78DBB2EC
:10AD940083F00103DBB2002B01D0022393E0029B7A
:10ADA400002B01D105238EE0029B1B884FF6FF7216
:10ADB400934203D0029B5B88002B01D1042382E0E1
:10ADC400029B5B681846FEF79BFE034683F0010373
:10ADD400DBB2002B01D0032375E0019B002B11D1C2
:10ADE400029B9B68ADF826300DF11A02BDF826309F
:10ADF40011461846FFF73EF80890089B002B09D02F
:10AE0400089B60E0019B1B88ADF81A30019B5B88AE
:10AE1400ADF8263005AB1846FFF7E2F90790079B1B
:10AE2400002B09D1BDF81A20BDF82630114618466A
:10AE3400FFF788F8082346E0079B9DF803201A7063
:10AE4400079B00229A75BDF81A20079B9A82029BE1
:10AE54005A68079B1A61FFF79DF80246079BDA6060
:10AE6400029B1A88079B1A81029B5A88079B9A8027
:10AE7400079BBDF82620DA809DF80330032B06D10A
:10AE8400079B04229A75039B1A68079B9A61079B88
:10AE9400BDF824205A8105AB1846FFF7B7F9039B88
:10AEA400002B0DD0039B00225A60079BDA68039B9A
:10AEB4001A60039B00229A72064B1A89039B1A811B
:10AEC400FFF73AFF002318460BB05DF804FB00BF00
:10AED400003400206034002000B585B0019000915A
:10AEE400019B002B02D0009B002B01D1052329E0FC
:10AEF4000DF10A0319460198FFF7AAF80346002B3F
:10AF04001FD0019B5B680393BDF80A301A461346B1
:10AF14009B0013449B0008330C4A1344043301215F
:10AF24001846FDF750FD009B039A1A60019B5B686D
:10AF340003F10C02009B5A60019B01229A720023C8
:10AF440000E00A23184605B05DF804FB3034002005
:10AF540000B583B00190009102230022009901986A
:10AF6400FFF706FF0346184603B05DF804FB00B57F
:10AF740083B001900091019B002B01D1052306E0D1
:10AF84000323002200990198FFF7F2FE03461846B6
:10AF940003B05DF804FB00B583B001900091009B01
:10AFA400019A00210020FFF7ADF80346184603B0CC
:10AFB4005DF804FB10B586B00590049103920293EA
:10AFC400059B002B10D1604A604BD31ADB081B048D
:10AFD40043F001005E4A5F490E2300930B465E492D
:10AFE400FBF7A1FE0E23ABE0039B002B10D1564AC6
:10AFF400564BD31ADB081B0443F00100574A55494A
:10B004000E2300930B465449FBF78DFE0E2397E065
:10B01400059B1B68002B10D14B4A4C4BD31ADB0801
:10B024001B0443F001004E4A4A49082300930B468F
:10B034004949FBF778FE082382E0029B002B10D1DC
:10B04400414A424BD31ADB081B0443F00100454A32
:10B054004049092300930B463F49FBF764FE09234B
:10B064006EE0059B5B685A68029BB3FBF2F101FB3F
:10B0740002F29B1A002B10D0334A344BD31ADB084C
:10B084001B0443F00100384A3249092300930B465C
:10B094003149FBF748FE092352E0049800F01EF9F9
:10B0A4000346002B10D1284A284BD31ADB081B0473
:10B0B40043F001002D4A2749102300930B462649EB
:10B0C400FBF731FE10233BE0039B184600F006F922
:10B0D4000346002B10D11C4A1C4BD31ADB081B045B
:10B0E40043F00100224A1B49102300930B461A49DE
:10B0F400FBF719FE102323E0029A0499059800F047
:10B10400D3F80346002B10D10F4A104BD31ADB0897
:10B114001B0443F00100174A0E49102300930B4609
:10B124000D49FBF700FE10230AE0059B1B68DC6851
:10B13400089B0093029B039A04990598A047034631
:10B14400184606B010BD00BFC08103006081030033
:10B15400A08C0300448E0300A88C0300348D0300EC
:10B16400DC8C0300F08C03003C8D0300688D03002D
:10B17400808D0300A48D030010B586B00590049162
:10B1840003920293059B002B10D13E4A3E4BD31AE7
:10B19400DB081B0443F001003C4A3D490E230093A5
:10B1A4000B463C49FBF7BFFD0E2368E0059B1B687B
:10B1B400002B10D1334A344BD31ADB081B0443F061
:10B1C4000100354A3249082300930B463149FBF705
:10B1D400AAFD082353E0039B002B10D1294A2A4BD4
:10B1E400D31ADB081B0443F001002C4A2849092325
:10B1F40000930B462749FBF796FD09233FE004998A
:10B20400059800F078F80346002B10D11D4A1E4B18
:10B21400D31ADB081B0443F00100214A1C49102304
:10B2240000930B461B49FBF77EFD102327E0059B8B
:10B234005B681B68039A02FB03F31A46049905989A
:10B2440000F032F80346002B10D10E4A0E4BD31AED
:10B25400DB081B0443F00100124A0D49102300933C
:10B264000B460C49FBF75FFD102308E0059B1B68A8
:10B274001C69029B039A04990598A0470346184643
:10B2840006B010BDC081030060810300A08C0300E0
:10B29400588E0300A88C0300DC8C0300F08C0300A0
:10B2A400CC8D0300F48D030084B0039002910192CD
:10B2B400039BDB68029A9A4209D3029A019B1344C6
:10B2C4005A1E039B1B699A4201D8012300E0002304
:10B2D40003F00103DBB2184604B0704782B001905A
:10B2E400019B03F00303002B0CBF01230023DBB2FB
:10B2F400184602B0704782B001900091019B5B68D0
:10B304001B685A1E009B1340002B0CBF0123002313
:10B31400DBB2184602B0704729DF704700BF1846F9
:10B3240028DF704700BF184600B589B0019000912E
:10B33400019B1B689B68002B35D002AB00221A606E
:10B344005A609A60DA601A615A61009B0393019B08
:10B354009B680793019B1B79002B02D0012B0DD016
:10B364001AE001238DF80830019B1B690493019BAB
:10B37400DB680593019B5B6906930DE002238DF85E
:10B384000830019BDB684FF4805202FB03F3049303
:10B39400019B5B69069300BF019B1B689B6802AA23
:10B3A4001046984700E000BF09B05DF804FB00B503
:10B3B40087B00190019B5A69019B9B69D31AB3F52D
:10B3C400805F28BF4FF4805305930422059BB3FB91
:10B3D400F2F3012B38BF01230593019B1A69019BEA
:10B3E4009B6913440493019BDB681A46019B9B6988
:10B3F40013440393059A03990498FFF78DFF0346BA
:10B40400184607B05DF804FB00B583B00190019BBA
:10B41400DA68019B1B6913441846FFF781FF034652
:10B42400184603B05DF804FB08B5034B03491846FE
:10B43400FDF7F5F900BF08BD90340020B8340020B2
:10B4440008B5084B08491846FDF7D0F90346074AE2
:10B454001360064B1B68002B14BF01230023DBB2CF
:10B46400184608BD90340020B8340020B4340020BD
:10B4740000B583B02A4B1B7A002B0BD1FFF7E0FFFA
:10B48400034683F00103DBB2002B03D0244B0022DC
:10B494005A6042E0224B02221A72224B1B681B792B
:10B4A400002B02D0012B07D00DE01E4B1B68184661
:10B4B400FFF77DFF019009E01A4B1B681846FFF760
:10B4C400A3FF019002E00323019300BF019B002B23
:10B4D40003D0019B112B0CD00FE0114B1B7C83F08C
:10B4E4000103DBB2002B17D00021022000F06EF81C
:10B4F40012E00B4B01221A720FE00A4B1B68032166
:10B504001846FFF711FF064B00221A72044B002263
:10B514005A60FFF789FF00E000BF03B05DF804FB49
:10B52400A0340020B434002084B001901B4B0022CE
:10B53400DA60019B1B79002B02D0012B19D028E083
:10B54400019B5A69019B9B69D31AB3F5805F28BF9D
:10B554004FF480530393019B9A69039B1A44019B04
:10B564009A61019B9A69019B5B699A420ED10123FE
:10B5740010E0019B1B695A1C019B1A61019B1A690B
:10B58400019B5B699A4203D1012303E000BF00E001
:10B5940000BF0023184604B0704700BFA034002049
:10B5A40082B00190084BDB680133074AD360064B35
:10B5B400DB68082B04D9044B0022DA60012300E085
:10B5C4000023184602B07047A034002000B585B0AF
:10B5D40001900091019B022B02D0019B032B48D1C7
:10B5E400274B1B7A022B05D0022B35DC002B42D0D3
:10B5F400012B31E000238DF80F30019B022B03D087
:10B60400019B032B09D011E01E4B1B681846FFF762
:10B614008BFF03468DF80F3008E01A4B1B68184661
:10B62400FFF7BEFF03468DF80F3000BF9DF80F30C3
:10B63400002B10D0124B00221A72124B1A68019B75
:10B64400022B01D1002300E00D2319461046FFF719
:10B654006BFEFFF7E9FE00BF094B5B7C83F001033F
:10B66400DBB2002B02D0FFF703FF05E006F002FF78
:10B6740002E000BF00E000BF05B05DF804FB00BFBE
:10B68400A0340020B434002082B0034600918DF829
:10B694000730064B01225A74044B1B7A002B0CBF53
:10B6A40001230023DBB2184602B07047A034002007
:10B6B40000B583B0034600918DF807309DF807303C
:10B6C400012B03D09DF80730032B0DD1084B00222A
:10B6D4005A749DF80730012B0CBF01230023DAB202
:10B6E400034B1A74FFF7C4FE00BF03B05DF804FBFC
:10B6F400A0340020BFF34F8F00BF074BDB6803F477
:10B70400E0620549054B1343CB60BFF34F8F00BF85
:10B7140000BF00BFFCE700BF00ED00E00400FA0535
:10B72400024B034A1A6000BF704700BFFC2A002086
:10B734000090D00308B500F097F90346002B06D01B
:10B74400B74B1B681B0AB74A03F01F03136000F0D2
:10B75400B7F90346002B02D0B34BB44A1A6000F089
:10B76400CBF90346002B06D0B14B1B685B0BB14AE7
:10B7740003F00703136000F0EBF90346002B05D038
:10B78400AD4BDB68AC4A23F08073D36000F0FCF966
:10B794000346002B0ED04FF080430022C3F80C2147
:10B7A4004FF080430022C3F810214FF08043002261
:10B7B400C3F8382500F014FA0346002B02D09F4B3F
:10B7C40003221A6000F028FA0346002B0BD09C4B8E
:10B7D40005221A609B4B01221A609B4B00221A60BF
:10B7E4009A4B3F221A6000F033FA0346002B76D0BE
:10B7F4004FF08053964AD3F80434C2F820354FF002
:10B804008053934AD3F80834C2F824354FF0805358
:10B814008F4AD3F80C34C2F828354FF080538C4A41
:10B82400D3F81034C2F82C354FF08053884AD3F83B
:10B834001434C2F830354FF08053854AD3F81834A5
:10B84400C2F834354FF08053814AD3F81C34C2F81F
:10B8540040354FF080537E4AD3F82034C2F8443543
:10B864004FF080537A4AD3F82434C2F848354FF065
:10B874008053774AD3F82834C2F84C354FF08053BC
:10B88400734AD3F82C34C2F850354FF08053704AC1
:10B89400D3F83034C2F854354FF080536C4AD3F89F
:10B8A4003434C2F860354FF08053694AD3F83834E1
:10B8B400C2F864354FF08053654AD3F83C34C2F87B
:10B8C40068354FF08053624AD3F84034C2F86C357F
:10B8D4004FF080535E4AD3F84434C2F8703500F018
:10B8E400D3F90346002B05D05A4B1B685A4A03F080
:10B8F4004F03136000F0F4F90346002B0DD04FF012
:10B904008043D3F8003403F00103002B05D04FF03B
:10B9140080436FF00102C3F8002400F00DFA0346DF
:10B92400002B05D04D4B1B684C4A43F480631360D5
:10B934004B4BD3F888304A4A43F47003C2F888303A
:10B94400BFF34F8F00BFBFF36F8F00BF4FF01023C3
:10B95400D3F80C3203F00103012B25D1414B012212
:10B96400C3F8042500BF3F4BD3F80034002BFAD0B2
:10B974004FF01023D3F80C324FF0102223F00103C0
:10B98400C2F80C3200BF374BD3F80034002BFAD086
:10B99400344B0022C3F8042500BF324BD3F80034E3
:10B9A400002BFAD0FFF7A6FE4FF01023D3F8003295
:10B9B400002B05DB4FF01023D3F80432002B2BDAD5
:10B9C400284B0122C3F8042500BF264BD3F80034CA
:10B9D400002BFAD04FF010231522C3F8002200BF29
:10B9E400204BD3F80034002BFAD04FF0102315224B
:10B9F400C3F8042200BF1B4BD3F80034002BFAD049
:10BA0400184B0022C3F8042500BF164BD3F80034AA
:10BA1400002BFAD0FFF76EFEFFF782FE00BF08BDD1
:10BA2400240300104035014074C007400DF0ADBA46
:10BA3400440200103C050040F0ED00E0A005004089
:10BA440010560040885600401856004014560040D6
:10BA540000C0004058020010E40E00403C170040B3
:10BA640000ED00E000E00140124B1B68DBB2062B46
:10BA74001DD1114B1B6803F00F03002B17D10F4B83
:10BA84001B6803F0F003302B01D1012310E00B4BB2
:10BA94001B6803F0F003402B01D1012308E0074B9E
:10BAA4001B6803F0F003502B01D1012300E00023B5
:10BAB40018467047E00F00F0E40F00F0E80F00F0C4
:10BAC4000A4B1B68DBB2062B0DD1094B1B6803F034
:10BAD4000F03002B07D1074B1B6803F0F003302B37
:10BAE40001D1012300E0002318467047E00F00F065
:10BAF400E40F00F0E80F00F0124B1B68DBB2062BDA
:10BB04001DD1114B1B6803F00F03002B17D10F4BF2
:10BB14001B6803F0F003302B01D1012310E00B4B21
:10BB24001B6803F0F003402B01D1012308E0074B0D
:10BB34001B6803F0F003502B01D1012300E0002324
:10BB440018467047E00F00F0E40F00F0E80F00F033
:10BB54000A4B1B68DBB2062B0DD1094B1B6803F0A3
:10BB64000F03002B07D1074B1B6803F0F003302BA6
:10BB740001D1012300E0002318467047E00F00F0D4
:10BB8400E40F00F0E80F00F0124B1B68DBB2062B49
:10BB94001DD1114B1B6803F00F03002B17D10F4B62
:10BBA4001B6803F0F003302B01D1012310E00B4B91
:10BBB4001B6803F0F003402B01D1012308E0074B7D
:10BBC4001B6803F0F003502B01D1012300E0002394
:10BBD40018467047E00F00F0E40F00F0E80F00F0A3
:10BBE4000A4B1B68DBB2062B0DD1094B1B6803F013
:10BBF4000F03002B07D1074B1B6803F0F003302B16
:10BC040001D1012300E0002318467047E00F00F043
:10BC1400E40F00F0E80F00F00A4B1B68DBB2062BC0
:10BC24000DD1094B1B6803F00F03002B07D1074B01
:10BC34001B6803F0F003302B01D1012300E0002343
:10BC440018467047E00F00F0E40F00F0E80F00F032
:10BC54000A4B1B68DBB2062B0DD1094B1B6803F0A2
:10BC64000F03002B07D1074B1B6803F0F003502B85
:10BC740001D1012300E0002318467047E00F00F0D3
:10BC8400E40F00F0E80F00F0124B1B68DBB2062B48
:10BC94001DD1114B1B6803F00F03002B17D10F4B61
:10BCA4001B6803F0F003302B01D1012310E00B4B90
:10BCB4001B6803F0F003402B01D1012308E0074B7C
:10BCC4001B6803F0F003502B01D1012300E0002393
:10BCD40018467047E00F00F0E40F00F0E80F00F0A2
:10BCE400124B1B68DBB2062B1DD1114B1B6803F0F2
:10BCF4000F03002B17D10F4B1B6803F0F003302BFD
:10BD040001D1012310E00B4B1B6803F0F003402B1F
:10BD140001D1012308E0074B1B6803F0F003502B0B
:10BD240001D1012300E0002318467047E00F00F022
:10BD3400E40F00F0E80F00F0064B1B68062B05D15A
:10BD4400054B1B68062B01D1012300E00023184694
:10BD5400704700BF300100103401001082B0034668
:10BD64008DF807309DF8073003F01F0206499DF94E
:10BD740007305B09012000FA02F2203341F8232046
:10BD840000BF02B0704700BF00E100E008B506F054
:10BD94008DFB034683F00103DBB2002B03D105497D
:10BDA4007920FCF76AFC00F08BFA034B00229A70AE
:10BDB40000BF08BD748E0300BC34002000B583B0FE
:10BDC40000230193144B1B78002B02D0852301938D
:10BDD4001CE0114B00229A600F4B00225A600E4B5C
:10BDE40000221A610C4B0022DA600C4800F02EFA93
:10BDF400019006F05BFB034683F00103DBB2002BEA
:10BE040001D000F049FA044B01221A70019B184634
:10BE140003B05DF804FB00BFBC340020F9BE02008F
:10BE240084B00190019B1B680393039B002B03D0F8
:10BE3400039B1A68019B1A60039B184604B0704761
:10BE440000B583B0164B1B78002B04D115494FF471
:10BE54008570FCF712FC124BDB68002B04D11149EE
:10BE640040F20B10FCF709FC00238DF807300DF1AC
:10BE740007031846FCF7B4FB094BDB68013B084A8F
:10BE8400D360074BDB68002B01D1FFF77FFF9DF8E0
:10BE940007301846FCF7BAFB00BF03B05DF804FB9B
:10BEA400BC340020748E030000B585B003468DF8C1
:10BEB40007309DF80730002B02D10C4B039301E0AF
:10BEC4000B4B03930398FFF7ABFF0290029B002BED
:10BED40006D0029B5B689DF8072010469847F1E75F
:10BEE40000BF00BF05B05DF804FB00BFC4340020F0
:10BEF400CC34002000B583B003468DF807309DF89C
:10BF04000730002B05D10A4B01225A700020FFF79D
:10BF1400CBFF9DF80730012B05D1054B01229A7008
:10BF24000120FFF7C1FF00BF03B05DF804FB00BFB1
:10BF3400BC34002000B583B001900091019B002B1C
:10BF440005D1054B01225A700020FFF7ADFF00BF59
:10BF540003B05DF804FB00BFBC34002000B585B01D
:10BF6400034600918DF807309DF80730032B29D044
:10BF7400032B35DC002B02D0012B04D030E0002051
:10BF8400FFF7ECFE2DE000238DF80F300DF10F03C9
:10BF94001846FCF725FB154B1B7883F00103DBB235
:10BFA400002B01D0FFF70AFF104BDB6801330F4A67
:10BFB400D3600E4B01229A709DF80F301846FCF79F
:10BFC40025FB0EE0094B1B78002B04D1084940F2F5
:10BFD4004520FCF752FB00F05FF9FFF731FF00E06A
:10BFE40000BF00BF05B05DF804FB00BFBC340020F7
:10BFF400748E030082B003468DF807309DF8073035
:10C0040003F01F0205499DF907305B09012000FA7E
:10C0140002F241F8232000BF02B0704700E100E0C3
:10C0240082B003468DF807309DF8073003F01F02F5
:10C0340006499DF907305B09012000FA02F26033DA
:10C0440041F8232000BF02B0704700BF00E100E0C8
:10C0540082B0034600918DF807309DF90730002B1C
:10C064000CDA009BDAB20C499DF8073003F00F0399
:10C07400043B5201D2B20B441A7609E0009BDAB2B7
:10C0840006499DF907305201D2B20B4483F80023CC
:10C0940000BF02B0704700BF00ED00E000E100E027
:10C0A40000B583B003460A468DF8073013468DF871
:10C0B40006309DF80630012B03D99DF80630032B7A
:10C0C4000BD99DF80630042B03D99DF80630072BB5
:10C0D40003D908496B20FCF7D0FA9DF806209DF996
:10C0E400073011461846FFF7B3FF00BF03B05DF8F1
:10C0F40004FB00BFB88E030000B583B003468DF87F
:10C1040007309DF907301846FFF78AFF9DF907307D
:10C114001846FFF76FFF00BF03B05DF804FB000093
:10C1240082B003468DF807300F4A9DF90730002B83
:10C1340000DA1F335B115BB252F823209DF90730FC
:10C14400594203F01F0301F01F0158BF4B425BB279
:10C1540022FA03F303F00103002B14BF012300238D
:10C16400DBB2184602B0704700E100E082B00190F3
:10C174004FF08042019BC2F8083300BF02B0704701
:10C1840082B003468DF807309DF8073003F18043F1
:10C1940001221A6000BF02B0704784B00346ADF8B4
:10C1A4000630BDF8063003F1804300221A60BDF862
:10C1B400063003F180431B680393039B00BF04B064
:10C1C400704782B00346ADF80630BDF8063003F17F
:10C1D40080431B68002B14BF01230023DBB21846E5
:10C1E40002B0704782B001904FF08042019BC2F8C8
:10C1F400183500BF02B070474FF08043D3F81834AD
:10C204001B0C03F00103002B14BF01230023DBB23A
:10C214001846704700B583B006238DF80730002018
:10C22400FFF77EFF034683F00103DBB2002B08D047
:10C234009DF8073019460020FFF732FF0020FFF772
:10C244005BFF00BF03B05DF804FB000000B585B0E0
:10C254000190019B002B03D10D49A220FCF70DFA9C
:10C26400002303930B4B1B79002B02D085230393EC
:10C2740008E0084A019B1360064B01221A71054B22
:10C2840000225A71039B184605B05DF804FB00BFF9
:10C29400F08E0300D034002008B5074B1B79002B27
:10C2A40003D10649BB20FCF7E8F9FFF7B3FF0220EE
:10C2B400FFF798FF00BF08BDD0340020F08E0300C4
:10C2C40008B50A4B1B79002B03D10949F220FCF76E
:10C2D400D4F90C20FFF754FF00BFFFF78DFF03468E
:10C2E400002BFAD100BF00BF08BD00BFD03400202E
:10C2F400F08E030008B54FF48070FFF762FF034629
:10C30400002B14D04FF48070FFF747FF0120FFF794
:10C314002DFF114B5B7983F00103DBB2002B06D0B8
:10C324000D4B01225A710C4B1B68002098474FF4A7
:10C334008270FFF746FF0346002B0AD04FF4827049
:10C34400FFF72BFF0220FFF711FF034B1B680120AF
:10C35400984700BF08BD00BFD034002000B583B0AB
:10C364000346ADF80630BDF80630184600F026F84E
:10C3740003461B68012B0CBF01230023DBB21846C4
:10C3840003B05DF804FB00B585B00346ADF8063094
:10C39400BDF80630184600F011F803461A4600238B
:10C3A4001360BDF80630184600F008F803461B6811
:10C3B4000393039B00BF05B05DF804FB82B0034602
:10C3C400ADF80630BDF8063003F1804303F5C043F1
:10C3D400184602B07047000082B00190034A019BE6
:10C3E400C2F8083300BF02B0704700BF00600040CD
:10C3F40082B00190034BD3F80423019B13401846E9
:10C4040002B070470060004082B00190084A019B6E
:10C4140003F5A27352F82330054923F00102019B6E
:10C4240003F5A27341F8232000BF02B0704700BF98
:10C434000060004082B00190054A019B03F5A2739D
:10C4440052F823301B0A03F01F03184602B070474A
:10C454000060004082B00190064A019B03F5A2737C
:10C4640052F823301B0C03F00303DBB2184602B06E
:10C47400704700BF0060004082B00190044A019BF5
:10C4840003F5A273002142F8231000BF02B07047E5
:10C494000060004000B583B00190019B1B681F2B16
:10C4A40004D905494FF4E870FCF7E7F84FF0A043CE
:10C4B400184603B05DF804FB648F030000B585B033
:10C4C4000190084611461A4603468DF803300B4680
:10C4D4008DF8023013468DF8013001AB1846FFF792
:10C4E400D9FF03909DF803209DF802305B001A43A6
:10C4F4009DF801309B001A439DF818301B0242EA54
:10C5040003019DF81C301B04019A1943039B02F597
:10C51400E07243F8221000BF05B05DF804FB00B5DB
:10C5240085B003900023019300230093002301228C
:10C5340000210398FFF7C2FF00BF05B05DF804FBBC
:10C5440000B585B001900B468DF8033001AB184659
:10C55400FFF7A0FF0390019A039B02F5E07253F8E2
:10C564002230019A23F44031039B02F5E07243F830
:10C574002210019A039B02F5E07253F822309DF8D1
:10C58400032012041146019A1943039B02F5E07239
:10C5940043F8221000BF05B05DF804FB00B585B078
:10C5A400019001AB1846FFF775FF0390019A039BB6
:10C5B40002F5E07253F822301B0C03F00303DBB2E4
:10C5C400184605B05DF804FB82B00190019BD3F8D6
:10C5D4001035184602B0704700B587B00390029139
:10C5E40001924FF0A0430493039A029B1344012B3E
:10C5F40004D9124940F2F120FCF73FF8039B05935C
:10C6040011E0059B9B0006AA134453F8083C184606
:10C61400FFF7DAFF0246019B1A60019B0433019382
:10C62400059B01330593039A029B1344059A9A428E
:10C63400E7D300BF00BF07B05DF804FB648F0300BD
:10C6440084B001900091009B0393019BDB0802934B
:10C65400019B03F0070301930122019B02FA03F3F8
:10C664000399029A0A4412781340184604B070479A
:10C6740084B001900091009B0393019BDB0802931B
:10C68400019B03F007030193039A029B13441B7855
:10C694005AB20121019B01FA03F35BB2134359B26D
:10C6A400039A029B1344CAB21A7000BF04B07047C5
:10C6B40084B001900091009B0393019BDB080293DB
:10C6C400019B03F007030193039A029B13441B7815
:10C6D4005AB20121019B01FA03F35BB2DB435BB263
:10C6E400134059B2039A029B1344CAB21A7000BF92
:10C6F40004B0704782B00190074A019B1344303361
:10C7040093F90030B3F1FF3F14BF01230023DBB2E0
:10C71400184602B0704700BFD834002082B00190A0
:10C72400074A019B1344303393F9003013F1020F8D
:10C734000CBF01230023DBB2184602B0704700BFD0
:10C74400D834002082B001900C4A019B134430334A
:10C7540093F90030002B09DB084A019B1344303362
:10C7640093F90030072B01DC012300E0002303F0E0
:10C774000103DBB2184602B0704700BFD834002072
:10C7840082B00190064A019B1344303393F9003080
:10C79400072BCCBF01230023DBB2184602B070473D
:10C7A400D834002082B00190064A019B13443033F0
:10C7B40093F90030DB43DBB2DB09DBB2184602B08D
:10C7C400704700BFD834002082B00190044A019B16
:10C7D40013443033FF221A7000BF02B0704700BF09
:10C7E400D834002000B583B0019004490198FFF7C4
:10C7F4005FFF00BF03B05DF804FB00BF2C350020D1
:10C8040000B583B0019007490198FFF719FF03466B
:10C81400002B14BF01230023DBB2184603B05DF8DC
:10C8240004FB00BF2C35002082B00190044A019B18
:10C834001344303393F90030184602B0704700BFF8
:10C84400D834002082B00190034A019B52F823306F
:10C85400184602B0704700BFD834002082B00346A7
:10C864008DF807309DF80730094A4FF0FF3142F840
:10C8740023109DF80730072B07D99DF80730083B94
:10C88400034A1344FF2283F8502000BF02B07047CC
:10C89400D834002000B583B0164B93F85830002BE1
:10C8A40004D1154940F21310FBF7E7FE002301936E
:10C8B40015E00198FFF732FF0346002B03D00198DF
:10C8C40000F01CF808E00198FFF76CFF0346002B0A
:10C8D40002D0019800F090F8019B01330193019B71
:10C8E4001F2BE6D9034B002283F8582000BF03B066
:10C8F4005DF804FBD83400209C8F030000B583B09E
:10C904000190019B1F2B04D91B4940F26510FBF7D2
:10C91400B4FE0198FFF7EEFE0346002B04D116493E
:10C924004FF4B370FBF7A9FE0198FFF70BFF034622
:10C93400002B0ED00198FFF777FF0346DBB21846B1
:10C94400FFF78CFF0198FFF76FFF03461846FFF7C8
:10C9540093FD0198FFF738FF0198FFF751FF034655
:10C96400002B05D00198FFF7DAFD0198FFF73AFF95
:10C9740000BF03B05DF804FB9C8F030000B585B0D5
:10C984000190019B1F2B04D91A4940F26120FBF747
:10C9940074FE0198FFF706FF0346002B04D11549E6
:10C9A40040F26220FBF769FE0198FFF7E9FE0346B7
:10C9B400002B04D000210198FFF7C2FD15E0019877
:10C9C400FFF7C0FE0346002B0FD00198FFF72CFFA2
:10C9D40003460393039B1846FFF716FD0122039BAE
:10C9E40002FA03F31846FFF7F7FC00BF05B05DF841
:10C9F40004FB00BF9C8F030000B583B00190019B32
:10CA04001F2B04D91D4940F27220FBF736FE019812
:10CA1400FFF7C8FE0346002B04D1184940F27320E7
:10CA2400FBF72BFE0198FFF7A9FF0198FFF78AFE99
:10CA34000346002B06D00198FFF7F6FE034618467E
:10CA4400FFF71AFD0198FFF7DBFE0346002B05D024
:10CA54000198FFF764FD0198FFF7C4FE0198FFF702
:10CA6400E3FE0346DBB21846FFF7F8FE0198FFF732
:10CA7400ABFE00BF03B05DF804FB00BF9C8F030056
:10CA840000B595B000231093002303934FF48073F3
:10CA9400ADF83A300123129300230F9321E0BDF83F
:10CAA4003A301846FFF75AFC0346002B0ED0129872
:10CAB400FFF79EFC0346002B08D0BDF83A30184619
:10CAC400FFF761FC109A129B13431093129B5B00B7
:10CAD4001293BDF83A300433ADF83A300F9B01336A
:10CAE4000F930F9B072BDAD94FF4BE70FFF736FC78
:10CAF4000346002B0DD04FF4BE70FFF744FC109B8F
:10CB040043F00043109303AB1A4601210020FFF7C2
:10CB140063FD109BDBB2002B29D001231293002369
:10CB24000F9321E0129A109B1340002B16D00F98FC
:10CB3400FFF780FC0D900F98FFF78CFC03468DF8EF
:10CB440033300F98FFF77EFE0B900B9B002B05D024
:10CB54009DF833200B9B11460D989847129B5B0060
:10CB640012930F9B01330F930F9B072BDAD9109B62
:10CB7400002B80F2EE8000238DF84F3000230293C7
:10CB8400002311930AE0119B9B0014AA13444FF055
:10CB9400FF3243F84C2C119B01331193119B002B52
:10CBA400F1D000238DF84F3000230F9378E06B4AC7
:10CBB4000F9B1344503393F900308DF82B309DF8BC
:10CBC4002B3023F0C0030993644A0F9B1344503362
:10CBD40093F90030B3F1FF3F5FD001AB19460998D8
:10CBE400FFF72EFD0346002B57D09DF82B309B09F1
:10CBF4008DF823300998FFF717FE03461846FFF710
:10CC040021FE0790079B002B03D19DF82330032BB3
:10CC140043D19DF82330032B04D102AB1946099864
:10CC2400FFF726FD0998FFF7B9FC03468DF81B3082
:10CC340003AB19460998FFF703FD0590059B002BEC
:10CC440003D09DF81B30022B06D0059B002B24D16A
:10CC54009DF81B30032B20D19DF82330032B13D1D7
:10CC64009DF81B30022B01D1032300E002238DF831
:10CC740013309DF8133019460998FFF761FC9DF8AD
:10CC84004F3001338DF84F30079B002B05D09DF8B2
:10CC94002320079B1146099898470F9B01330F9354
:10CCA4000F9B032B83D99DF84F30002B4CD00123CD
:10CCB4008DF84E306B461A4601210020FFF78CFC9C
:10CCC4000023119314E0119B9B0014AA134453F8FE
:10CCD400502C119B9B0014A90B4453F8443C9A42DA
:10CCE40003D000238DF84E3005E0119B01331193DE
:10CCF400119B002BE7D09DF84E30002B03D000236E
:10CD04008DF84F3020E0002311931AE0119B9B0013
:10CD140014AA134453F8502C119B9B0014A90B44E0
:10CD240043F8442C119B9B0014AA134453F8482C39
:10CD3400119B9B0014A90B4443F84C2C119B013309
:10CD44001193119B002BE1D09DF84F30002B7FF401
:10CD540028AF00BF15B05DF804FB00BFD834002035
:10CD640008B5064B1B68002B03D105495120FBF77E
:10CD740084FC024B1B68984700BF08BD3435002073
:10CD8400E48F030082B001900B468DF803309DF8C8
:10CD94000330019A134401221A6000BF02B07047A5
:10CDA40084B001900B46ADF80230BDF80230019A10
:10CDB400134400221A60BDF80230019A13441B6820
:10CDC4000393039B00BF04B0704782B001900B46ED
:10CDD400ADF80230BDF80230019A13441B68002BF1
:10CDE40014BF01230023DBB2184602B0704782B09F
:10CDF40001900091019B009AC3F8042300BF02B084
:10CE0400704782B001900091019B009AC3F80823F7
:10CE140000BF02B0704782B00190019B0522C3F8A5
:10CE2400002500BF02B0704782B00190019B002230
:10CE3400C3F8002500BF02B0704784B00190019B85
:10CE4400D3F8C4340393019B039AC3F8C424039B0B
:10CE5400184604B0704782B001900B468DF8033039
:10CE64009DF80320019BC3F8882500BF02B07047DA
:10CE740082B00190019BD3F81835DBB2184602B09A
:10CE8400704782B001900B468DF803309DF8032063
:10CE9400019BC3F81C2500BF02B0704782B001900B
:10CEA4000091019B009AC3F8002200BF02B07047B2
:10CEB40084B0019003230393019B03F00103002B2F
:10CEC40002D04FF402430393019B03F00203002BAF
:10CED40002D048F201230393019B03F00403002BC7
:10CEE40002D048F202230393039B184604B0704710
:10CEF40000B585B00390029101920093009B1B68DA
:10CF0400019A9A420ED9009B1B68029A13441B781B
:10CF140019460398FFF7B5FF009B1B685A1C009B3A
:10CF24001A600DE09DF81830002B05D01C210398E1
:10CF3400FFF728FF002304E014210398FFF722FFE2
:10CF44000123184605B05DF804FB10B584B00390C6
:10CF5400029101920093009B1B68019A9A4223D983
:10CF6400009B1B68029AD4180398FFF781FF0346BD
:10CF74002370009B1B685A1C009B1A60009B1A6854
:10CF8400019B013B9A4204D102210398FFF786FFDB
:10CF940004E0009B1B68019A9A4204D02021039864
:10CFA400FFF7F0FE00E000BF04B010BD00B589B08B
:10CFB4000590049103920293049B1B78002B04D1E7
:10CFC400039B1B680A9A9A4201D1012300E00023C3
:10CFD4008DF81F309DF81F3003F001038DF81F30CA
:10CFE400049B1B78002B0FD04FF492710598FFF728
:10CFF400D7FE4FF48E710598FFF7D2FE4FF484717B
:10D004000598FFF7CDFE6FE04FF492710598FFF796
:10D01400DCFE0346002B0CD04FF492710598FFF709
:10D02400BFFE14210598FFF7ADFE049B01221A7080
:10D034005AE04FF48E710598FFF7C7FE0346002BA4
:10D044002AD04FF48E710598FFF7AAFE4FF492711F
:10D054000598FFF7BAFE0346002B0CD04FF49271EB
:10D064000598FFF79DFE14210598FFF78BFE049B9E
:10D0740001221A7038E09DF82C300093039B0A9A21
:10D0840002990598FFF734FF034683F00103DBB2EE
:10D09400002B29D000233BE04FF484710598FFF75F
:10D0A40094FE0346002B1FD04FF484710598FFF7BC
:10D0B40077FE4FF492710598FFF787FE0346002B25
:10D0C4000CD04FF492710598FFF76AFE142105986D
:10D0D400FFF758FE049B01221A7005E0039B0A9A8D
:10D0E40002990598FFF731FF9DF81F30002B0ED0F1
:10D0F4004FF482710598FFF768FE0346002B06D0B3
:10D104004FF482710598FFF74BFE002300E00123E2
:10D11400184609B05DF804FB00B58BB00590049186
:10D1240003920293002309933D4B07934FF48271BA
:10D134000498FFF735FE4FF492710498FFF730FE20
:10D144004FF48E710498FFF72BFE4FF4847104980A
:10D15400FFF726FE00210498FFF7A0FE059B00229E
:10D164005A63059B002283F82E2020210498FFF7A0
:10D1740009FE08210498FFF705FE059B03F134021C
:10D184009DF8303000931346029A03990498FFF7F0
:10D19400AFFE059B1B68002B0DD0059B40F2862239
:10D1A4009A60059B9B6819460498FFF720FE32E0BD
:10D1B400079B013B0793079B002B11DD059B03F1A4
:10D1C4002E01059B03F134029DF830300193029B3C
:10D1D4000093039B0498FFF7E9FE0346002BE7D175
:10D1E400059B93F82E30002B0AD00498FFF725FEF8
:10D1F4000890089B002B03D00898FFF759FE09906C
:10D20400079B002B07DC0498FFF70EFE0498FFF73A
:10D2140002FE03230993099B18460BB05DF804FB37
:10D22400A086010000B58BB005900491039202938F
:10D23400002309933B4B07934FF482710498FFF743
:10D24400AFFD4FF492710498FFF7AAFD4FF48E716D
:10D254000498FFF7A5FD4FF484710498FFF7A0FD2F
:10D26400059B00225A63059B002283F82E20029B13
:10D27400012B04D102210498FFF710FE03E00121E1
:10D284000498FFF70BFE20210498FFF77BFD002193
:10D294000498FFF777FD059B1B68002B0DD0059BB9
:10D2A40040F286229A60059B9B6819460498FFF712
:10D2B4009EFD31E0079B013B0793079B002B10DD8C
:10D2C400059B03F12E01059B03F134020023019316
:10D2D400029B0093039B0498FFF768FE0346002B10
:10D2E400E8D1059B93F82E30002B0AD00498FFF761
:10D2F400A4FD0890089B002B03D00898FFF7D8FDE5
:10D304000990079B002B07DC0498FFF78DFD049818
:10D31400FFF781FD03230993099B18460BB05DF8C1
:10D3240004FB00BFA086010030B589B005900491CC
:10D3340003920293002307933B490498FFF761FD8E
:10D34400059B93F82F30DBB2002B09D0059B9B681B
:10D3540019460498FFF74BFD11230793079B5FE0E1
:10D36400029B03F00403002B0CBF01230023DAB259
:10D37400059B83F82F20059B029A1A62059B039A4A
:10D3840003F10C0415460FCD0FC42B682360039BD7
:10D394005A68059B9A62039BDA68059B5A62039B51
:10D3A4005B7819460498FFF756FD039B1B78012B05
:10D3B40020D0039B1B78002B04D1029B03F0200395
:10D3C400002B01D0012300E0002303F00103DAB2B3
:10D3D400059B83F82C20039BDA68039B5968059B03
:10D3E40093F82C3000930B4604990598FFF794FEAC
:10D3F40007900CE0059B002283F82C20039BDA683D
:10D40400039B5B6804990598FFF70CFF0790059B45
:10D414001B68002B03D1059B002283F82F20079B58
:10D42400184609B030BD00BF8642040000B587B07D
:10D4340003900291019200230593039B1B791A46E2
:10D4440013461B019B1A9B00144A13440493049B28
:10D454001B68002B08D1029B1B78022B04D11049B6
:10D4640040F24B20FBF709F9049B1B68002B08D101
:10D47400029B1B78032B04D109494FF41370FBF76B
:10D48400FCF8039B1968019B029A0498FFF74CFF70
:10D494000590059B184607B05DF804FB3C35002059
:10D4A400E091030000B58BB00390019200930B460A
:10D4B4008DF80B3005AB00221A605A609A60DA606E
:10D4C4001A619DF80B308DF81530009B0693019B73
:10D4D40008939DF83030002B01D0202200E0002278
:10D4E40005AB19460398FFF7A1FF034618460BB096
:10D4F4005DF804FB00B58BB00390019200930B46DA
:10D504008DF80B3005AB00221A605A609A60DA601D
:10D514001A6101238DF814309DF80B308DF8153005
:10D52400009B0693019B089305AB002219460398C0
:10D53400FFF77CFF034618460BB05DF804FB0000C0
:10D5440030B58DB003900291029B1B68002B04D16F
:10D554004D494FF42070FBF790F8029B03F12E0124
:10D56400029B03F13400029B5C6A029B9B6A029A51
:10D5740092F82C2001920093234602460398FFF769
:10D5840015FD0346002B7CD1029B93F82E3083F0CB
:10D594000103DBB2002B3CD0029B1B7B022B03D08C
:10D5A400029B1B7B032B34D1029B5A6A029B9B690F
:10D5B4009A422ED1029BDA69029B5A62029B5A69F3
:10D5C400029B9A62029B1B6A03F02003002B14BF88
:10D5D40001230023DAB2029B83F82C20029B1B7BDD
:10D5E400032B0DD1029B5A6A029B996A029B93F802
:10D5F4002C3000930B4603990298FFF78DFD41E010
:10D60400029B5A6A029B9B6A03990298FFF70AFEDF
:10D6140038E0029B06AC03F10C050FCD0FC42B6858
:10D624002360029B93F82E30002B15D00398FFF74C
:10D6340004FC0B900B9B03F00203002B03D001238B
:10D644008DF814300BE00B9B03F00403002B06D081
:10D6540002238DF8143002E000238DF81430029B6D
:10D66400002283F82F20029B1B6A03F00403002B83
:10D6740008D1029B1B68029A516805AA1046984774
:10D6840000E000BF0DB030BDE091030008B50349D0
:10D694000348FFF755FF00BF08BD00BF3C3500201D
:10D6A4000030004008B503494FF04020FFF748FF21
:10D6B40000BF08BD7835002082B003468DF80730DE
:10D6C4009DF8073003F01F0205499DF907305B09F7
:10D6D400012000FA02F241F8232000BF02B0704793
:10D6E40000E100E082B003468DF807309DF8073072
:10D6F40003F01F0206499DF907305B09012000FA77
:10D7040002F2603341F8232000BF02B0704700BF2B
:10D7140000E100E082B0034600918DF807309DF9E6
:10D724000730002B0CDA009BDAB20C499DF8073065
:10D7340003F00F03043B5201D2B20B441A7609E002
:10D74400009BDAB206499DF907305201D2B20B446C
:10D7540083F8002300BF02B0704700BF00ED00E073
:10D7640000E100E000B583B003460A468DF80730B7
:10D7740013468DF806309DF80630012B03D99DF829
:10D784000630032B0BD99DF80630042B03D99DF8E2
:10D794000630072B03D908496B20FAF76EFF9DF872
:10D7A40006209DF9073011461846FFF7B3FF00BF66
:10D7B40003B05DF804FB00BF2092030000B583B002
:10D7C40003468DF807309DF907301846FFF78AFFA6
:10D7D4009DF907301846FFF76FFF00BF03B05DF8EF
:10D7E40004FB84B0039002910192039B029A02F518
:10D7F400A872019943F8221000BF04B0704782B0A8
:10D8040001900091019B009AC3F8042300BF02B069
:10D81400704782B001900091019B009AC3F80823DD
:10D8240000BF02B0704782B001900091019BD3F811
:10D834000423009B1340184602B0704782B0019045
:10D844000B46ADF80230BDF80230019A13441B6850
:10D85400184602B0704784B001900B46ADF8023010
:10D86400BDF80230019A134400221A60BDF8023058
:10D87400019A13441B680393039B00BF04B07047D1
:10D8840082B00190019BD3F80435184602B070476A
:10D8940000B583B001900091009BB3F5805F04D381
:10D8A400064940F22310FAF7E8FE019B009AC3F8F8
:10D8B400082500BF03B05DF804FB00BF50920300CD
:10D8C40082B001900B468DF803309DF80320019B34
:10D8D40013441A460123136000BF02B0704782B09C
:10D8E40001900091019B009AC3F8442300BF02B049
:10D8F400704782B001900091019B009AC3F84823BD
:10D9040000BF02B07047000000B587B003900291D9
:10D914000192029B002B03D131495120FAF7ADFE4D
:10D92400019B002B03D12E495220FAF7A6FE039B3C
:10D934005B7919462B4A019B42F82130039B5B79A2
:10D944001946294A0B465B000B4413441B78002BF1
:10D9540003D008230593059B3DE0039B93F9042022
:10D96400029B9B7819461046FFF7FCFE039B93F934
:10D9740004301846FFF722FF039B1A68029B1B889A
:10D9840019461046FFF784FF039B5B791946029BF7
:10D994001879154A0B465B000B44134401330246C5
:10D9A4001A70039B5B791946029BD8780E4A0B4682
:10D9B4005B000B441344023302461A70039B5B79E9
:10D9C4001946094A0B465B000B44134401221A70A2
:10D9D40000230593059B184607B05DF804FB00BFC0
:10D9E40084920300B4350020B835002000B583B01C
:10D9F4000190019B5B7919460F4A0B465B000B446F
:10DA040013441B78012B03D00C498220FAF735FE0E
:10DA1400019B1B6800211846FFF752FF019B5B79AD
:10DA24001946054A0B465B000B44134402221A7044
:10DA340000BF03B05DF804FBB835002084920300F6
:10DA440000B58BB00390029101928DF80330039BD3
:10DA54005B791946484A0B465B000B4413441B7818
:10DA6400002B03D14549B420FAF707FE039B9B79A9
:10DA74001A46029B934203D34049B520FAF7FDFDB1
:10DA84004FF48032029B02FA03F30693029B9BB28B
:10DA940050339BB29B00ADF81630039B1B6806996C
:10DAA4001846FFF726FF039B1B6806991846FFF7E5
:10DAB400B0FE019B23F07F430193039B5B791946DE
:10DAC4002D4A0B465B000B44134401331B78002B97
:10DAD4002CD0039B1B68019A02991846FFF781FE1C
:10DAE400039B1B681846FFF7CBFE0990099A019B1C
:10DAF400D31A0893099A019B9A4205D2089B03F111
:10DB0400FF1303F57F430893039B5B7919461A4A75
:10DB14000B465B000B44134402331B781A46089BE4
:10DB240093420ADA0D230793079B21E0039B1B68AA
:10DB3400019A02991846FFF754FE9DF80330002B12
:10DB44000DD0039B1B68BDF8162011461846FFF73D
:10DB540082FE039B1B6806991846FFF750FE039B41
:10DB64001B6806991846FFF7BAFE00230793079B24
:10DB740018460BB05DF804FBB8350020849203000E
:10DB840000B589B00390029101924FF4803306935B
:10DB94004FF4A073ADF81E300023059330E00699CE
:10DBA4000398FFF740FE0346002B1ED0BDF81E303D
:10DBB40019460398FFF742FE0346002B15D0069939
:10DBC4000398FFF796FE06990398FFF722FEBDF827
:10DBD4001E3019460398FFF73EFE2D4A029B52F869
:10DBE4002330059AD2B210469847069B5B000693F1
:10DBF400BDF81E300433ADF81E30059B0133059388
:10DC0400059A019B9A42CAD34FF48073ADF81E3033
:10DC140001210398FFF707FE0346002B14D0BDF83B
:10DC24001E3019460398FFF709FE0346002B0BD05C
:10DC3400BDF81E3019460398FFF70DFE144A029BE7
:10DC440052F82330042098474FF48273ADF81E3005
:10DC540002210398FFF7E7FD0346002B14D0BDF81B
:10DC64001E3019460398FFF7E9FD0346002B0BD03D
:10DC7400BDF81E3019460398FFF7EDFD044A029BD8
:10DC840052F823300520984700BF09B05DF804FB23
:10DC9400B435002008B5042200210248FFF770FFC4
:10DCA40000BF08BD0040024082B003468DF8073033
:10DCB4009DF8073003F01F0205499DF907305B0901
:10DCC400012000FA02F241F8232000BF02B070479D
:10DCD40000E100E082B003468DF807309DF807307C
:10DCE40003F01F0206499DF907305B09012000FA81
:10DCF40002F2603341F8232000BF02B0704700BF36
:10DD040000E100E082B0034600918DF807309DF9F0
:10DD14000730002B0CDA009BDAB20C499DF807306F
:10DD240003F00F03043B5201D2B20B441A7609E00C
:10DD3400009BDAB206499DF907305201D2B20B4476
:10DD440083F8002300BF02B0704700BF00ED00E07D
:10DD540000E100E000B583B003460A468DF80730C1
:10DD640013468DF806309DF80630012B03D99DF833
:10DD74000630032B0BD99DF80630042B03D99DF8EC
:10DD84000630072B03D908496B20FAF776FC9DF877
:10DD940006209DF9073011461846FFF7B3FF00BF70
:10DDA40003B05DF804FB00BFC492030000B583B068
:10DDB40003468DF807309DF907301846FFF78AFFB0
:10DDC4009DF907301846FFF76FFF00BF03B05DF8F9
:10DDD40004FB82B003468DF807309DF8073003F149
:10DDE400804303F5E04301221A6000BF02B070478C
:10DDF40082B00346ADF80630BDF8063003F1804327
:10DE040003F5E0431B68002B14BF01230023DBB29E
:10DE1400184602B0704784B00346ADF80630BDF82A
:10DE2400063003F1804303F5E04300221A60BDF895
:10DE3400063003F1804303F5E0431B680393039B1F
:10DE440000BF04B07047000082B003468DF807306D
:10DE54000B468DF8063013468DF805300A499DF8B7
:10DE640007309DF8052051331B010B4404331A601D
:10DE740005499DF807309DF8062051331B010B44DA
:10DE84001A6000BF02B070470070004082B0019079
:10DE9400034A019BC2F8043300BF02B0704700BFBD
:10DEA4000070004082B00190034A019BC2F808331D
:10DEB40000BF02B0704700BF00700040024B012257
:10DEC400C3F8002500BF704700700040024B0022D9
:10DED400C3F8002500BF70470070004082B0019075
:10DEE4000091054A019BC2F82C36034A009BC2F8F4
:10DEF400303600BF02B070470070004082B0034665
:10DF04008DF80730034A9DF80730C2F8F03500BF9A
:10DF140002B070470070004082B003468DF80730AD
:10DF2400034A9DF80730C2F8F43500BF02B07047C9
:10DF340000700040024BD3F8F435DBB2184670474A
:10DF44000070004000B583B0034600918DF807309F
:10DF5400009B1B7803F00302009B5B781B0103F01A
:10DF640030031A43009B9B781B0203F4E0631A43BB
:10DF7400009BDB781B0303F480531A43009B1B793B
:10DF84001B0403F4E0231A43009B5B791B0503F491
:10DF9400801342EA0301009B9B791B0603F0807205
:10DFA4000A489DF807300A431B01034403F5A363A1
:10DFB4001A60009BD979009B1A7A9DF8073018469D
:10DFC400FFF742FF00BF03B05DF804FB00700040A0
:10DFD40000B58DB04FF48270FFF70AFF0346002BA3
:10DFE40046D04FF48270FFF716FF8C4B93F82E3017
:10DFF40083F00103DBB2002B04D1884B93F82F305C
:10E00400002B35D000238DF81830844B5B680793C0
:10E01400824B1B899BB2ADF82030804BDB68002B10
:10E0240003D17E4B00221A7419E07C4B1A8B7B4B74
:10E034005A837A4BDB68794A5360784B1A8B774B57
:10E044001A81764B0022DA60744B93F82E3083F0F9
:10E054000103DBB2002B02D00020FFF7BAFE6F4BA6
:10E064001B6806AA104698476C4B002283F82F20A1
:10E074006A4B93F82E30002B62D04FF48070FFF778
:10E08400B7FE0346002B5BD04FF48070FFF7C3FE4E
:10E09400624B5A8B614B93F82D309BB29A421CD938
:10E0A4005E4B5A8B5D4B93F82D309BB2D31A9AB2C8
:10E0B4005A4B5A83594B5A68584B1B899BB2194681
:10E0C400564B5B8BCB1A5B001344544A92F82D20B9
:10E0D40011461846FFF702FF2BE0504B5A8B4F4B6B
:10E0E40093F82D309BB29A4214D14C4BDB68002B31
:10E0F40010D04A4B012283F82F20484B00225A8328
:10E10400464BDB68454A92F82D2011461846FFF726
:10E11400E5FE0EE0414B5A8B404B93F82D309BB2F9
:10E124009A4206D13D4B012283F82F203B4B00221B
:10E134005A834FF48270FFF76EFE0420FFF749FE06
:10E144004FF48870FFF754FE0346002B0ED04FF4B3
:10E154008870FFF760FE314B00221A7402238DF899
:10E164000C302E4B1B6803AA104698474FF48A7054
:10E17400FFF73EFE0346002B07D04FF48A70FFF7EB
:10E184004AFE264B00221A7444E0244B5B690B932D
:10E194003DE00B9BB3FA83F30A934FF000420A9BD2
:10E1A40022FA03F3DB430B9A13400B930A9B9BB2B3
:10E1B40046339BB29B00ADF82630BDF82630184696
:10E1C400FFF716FE0346002B21D0BDF82630184673
:10E1D400FFF721FE01238DF80030BDF82630A3F5AA
:10E1E4008C73DB08DBB28DF80430BDF82630A3F560
:10E1F4008C7303F00403002B0CBF01230023DBB258
:10E204008DF80530054B1B686A46104698470B9BF2
:10E21400002BBED100BF0DB05DF804FBBC3500205F
:10E2240000B585B001900091019B002B03D13049CA
:10E23400D620FAF722FA009B002B03D12C49D720D1
:10E24400FAF71BFA2B4B93F82C30002B03D008233E
:10E254000393039B48E0274A009B1360019B1B78B0
:10E264001846FFF74BFE019B5B781846FFF754FEF8
:10E27400019BDA781F4B83F82E201E4B012283F872
:10E284002C201C4B00221A741A4B002283F82D20D8
:10E29400184B00225A61174B002283F82F206FF08D
:10E2A4000040FFF7FFFD4FF48270FFF7B4FD4FF419
:10E2B4008070FFF7B0FD019B9B7819460720FFF79C
:10E2C40049FD0720FFF772FD0220FFF7DFFD094B30
:10E2D40093F82E30002B02D00120FFF7D7FDFFF773
:10E2E400EDFD00230393039B184605B05DF804FB82
:10E2F4002C930300BC35002000B585B00346009183
:10E304008DF80730434B93F82C30002B04D142494D
:10E314004FF49170FAF7B1F99DF80730072B04D93F
:10E324003D4940F22310FAF7A8F9FFF703FE03462C
:10E33400002B09D0374B93F82D30002B04D03649ED
:10E3440040F22510FAF799F9009BDB79092B03D8E1
:10E35400009BDB79002B04D12F4940F22710FAF7F8
:10E364008CF9009B1B7A092B04D92B4940F2291004
:10E37400FAF783F9274B1B7CDBB2002B03D0112364
:10E384000393039B41E0009B1B79002B03D0009B6C
:10E394001B79012B01D1FFF799FD9DF807301D4A28
:10E3A4000C335B0013441B79002B07D1194B93F8F2
:10E3B4002D300133DAB2174B83F82D209DF8073046
:10E3C400009AD179134A0C335B0013440A461A713C
:10E3D4009DF80730009A117A0E4A0C335B001344FF
:10E3E4000A465A719DF8073000991846FFF7AAFDAE
:10E3F400009B1B79002B03D0009B1B79012B01D1BF
:10E40400FFF75CFD00230393039B184605B05DF8FA
:10E4140004FB00BFBC3500202C93030000B585B07D
:10E4240001900B46ADF802304C4B93F82C30002B86
:10E4340004D14B494FF4DF70FAF71FF9BDF80230ED
:10E44400464A92F82D2093FBF2F101FB02F29B1A4B
:10E45400002B04D0424940F2BF10FAF70EF9122003
:10E46400FFF720FD3D4B1B7CDBB2022B06D11220B3
:10E47400FFF70CFD11230393039B6BE0374B1B7CCD
:10E48400DBB2012B35D1354BDB68002B06D00220E3
:10E49400FFF7FCFC11230393039B5BE02F4A019BD2
:10E4A400D3602E4ABDF8023013832C4B93F82E30E0
:10E4B40083F00103DBB2002B14D000BF4FF4807053
:10E4C400FFF796FC034683F00103DBB2002BF5D182
:10E4D4004FF48070FFF79FFCBDF802301946019895
:10E4E400FFF7FCFC0220FFF7D1FC00230393039BFE
:10E4F40030E00220FFF7CAFC184B01221A74174AB5
:10E50400019B5360154ABDF802301381134B00225E
:10E51400DA60124B93F82E30002B0BD00F4ABDF863
:10E52400023053830D4B93F82D3019460198FFF7B1
:10E53400D5FC0CE0BDF8023019460198FFF7CEFC7B
:10E544004FF48070FFF767FC0020FFF742FC0023C4
:10E554000393039B184605B05DF804FBBC3500200B
:10E564002C93030000B583B0124B93F82C30002B8E
:10E5740004D1114940F20920FAF77FF800230193EE
:10E584000C4B1B7CDBB2012B02D0082301930BE064
:10E59400084B93F82E30002B03D00020FFF719FC12
:10E5A40002E00420FFF715FC019B184603B05DF858
:10E5B40004FB00BFBC3500202C93030084B0019001
:10E5C4000B468DF8033013468DF802300023039375
:10E5D400019B032B3CD89DF80230012B0BD19DF8F5
:10E5E4000330012B04D1019BDBB20E33DBB200E01C
:10E5F40000238DF802309DF80330022B0FD0022B3C
:10E6040023DC002B16D0012B1FD11449019A134689
:10E614005B0013440B449DF802201A701AE00F4962
:10E62400019A13465B0013440B4401339DF8022006
:10E634001A700FE00949019A13465B0013440B4416
:10E6440002339DF802201A7004E00723039301E0CB
:10E6540007230393039B184604B07047EC3500204E
:10E6640000B583B0012200210020FFF7A7FF01902D
:10E67400019B002B04D0019B072B01D0019B1CE0C4
:10E68400072202210120FFF799FF0190019B002B33
:10E6940004D0019B072B01D0019B0EE00422022130
:10E6A4000020FFF78BFF0190019B002B04D0019BFE
:10E6B400072B01D0019B00E00023184603B05DF84E
:10E6C40004FB00B583B0012202210020FFF776FF8E
:10E6D4000190019B002B04D0019B072B01D0019BCF
:10E6E4001CE0072202210120FFF768FF0190019B33
:10E6F400002B04D0019B072B01D0019B0EE00A22C2
:10E7040000210020FFF75AFF0190019B002B04D049
:10E71400019B072B01D0019B00E00023184603B0A6
:10E724005DF804FB00B585B001900091019B1B8846
:10E73400102B02D0112B18D02FE01A4B1B68002B82
:10E744000DD1FFF78DFF0390039B002B07D0164BD1
:10E754001B68002B03D0144B1B6803989847114B7C
:10E764001B6801330F4A136017E00E4B1B68013B13
:10E774000C4A13600B4B1B68002B0DD1FFF7A1FF54
:10E784000390039B002B07D0074B1B68002B03D07F
:10E79400054B1B680398984700BF00BF05B05DF8A0
:10E7A40004FB00BFFC350020F835002000B585B01F
:10E7B4000190019B002B0AD0074B43F00103039304
:10E7C400019B9B010293039B0298984700E000BFC2
:10E7D40005B05DF804FB00BF6094030000B583B08E
:10E7E4000190019B1B681F2B04D905494FF4E87065
:10E7F400F9F743FF4FF0A043184603B05DF804FB5C
:10E804007093030000B585B00190084611461A467E
:10E8140003468DF803300B468DF8023013468DF80D
:10E82400013001AB1846FFF7D9FF03909DF8032090
:10E834009DF802305B001A439DF801309B001A4397
:10E844009DF818301B0242EA03019DF81C301B049A
:10E85400019A1943039B02F5E07243F8221000BFAA
:10E8640005B05DF804FB00B585B003900023019367
:10E87400002300930023012201210398FFF7C2FF24
:10E8840000BF05B05DF804FB00B585B0019001AB95
:10E894001846FFF7A3FF0390019B012202FA03F33A
:10E8A4001946039800F018F800BF05B05DF804FBA2
:10E8B40000B585B0019001AB1846FFF78FFF0390B8
:10E8C400019B012202FA03F31946039800F00EF8A3
:10E8D40000BF05B05DF804FB82B001900091019B7C
:10E8E400009AC3F8082500BF02B0704782B00190B7
:10E8F4000091019B009AC3F80C2500BF02B0704739
:10E9040000B583B00190019B002B0AD04FF47A70BC
:10E91400FFF74CFF019B013B0193019B002BF5D1B9
:10E9240000E000BF03B05DF804FB08B51620FFF754
:10E934009AFF1820FFF797FF1720FFF794FF162080
:10E94400FFF7B6FF1820FFF7B3FF1720FFF79CFF70
:10E95400C820FFF7D5FF1720FFF7AAFF1820FFF7FD
:10E9640093FFC820FFF7CCFF1820FFF7A1FF162064
:10E97400FFF78AFFC820FFF7C3FF1620FFF798FFB1
:10E9840000BF08BD00B583B04FF400410020F7F785
:10E99400B7FE0190019B0093009B002B04D0054A15
:10E9A40087210098F8F70AFFF7F740FE00BF03B08D
:10E9B4005DF804FB1C94030000B583B0FAF740FF34
:10E9C4000190019B0093009B002B04D0044A9321E7
:10E9D4000098F8F7F3FE00BF03B05DF804FB00BF36
:10E9E4001C94030008B5094B01221A70FFF7CAFFF3
:10E9F40007F0C8FA06F0CAFCFFF7DEFFFFF795FF41
:10EA040004F084FB08F046F800BF08BDB07800208D
:10EA140008B5FFF7E7FF06F00DFE00BFF8F77CFA34
:10EA24000346002BFAD1F6E700B583B01F4B0193E0
:10EA3400019B02221A61019B02225A61019B1C4A1A
:10EA44009A61019B1B4ADA61019B4FF400621A62CE
:10EA5400019B00229A62019B00225A62019B0022C0
:10EA6400DA62019B124A9A64019B134ADA64019B9D
:10EA740010221A65019B00229A65019B00225A65A7
:10EA8400019B0022DA65019B07330C49184608F004
:10EA940043FF019B0A49184608F03EFF019B2022D0
:10EAA4009A7100BF03B05DF804FB00BF5C3800201E
:10EAB40068940300D4380020D440002074940300E8
:10EAC4007894030000B589B0039002910192002369
:10EAD4000693039BDB680593039B1B690493049AC9
:10EAE400059B9A4205D9049A059BD31A013B0793C7
:10EAF40007E0039B9A680499059BCB1A1344013BD6
:10EB04000793039B9A68059BD31A079A934228BFDD
:10EB140013460793079A019B934228BF1346079312
:10EB2400039B5A68059B1344079A0299184608F0F8
:10EB340097FE069A079B13440693029A079B134475
:10EB44000293019A079BD31A0193059A079B1344D6
:10EB54000593039B9B68059A9A4201D10023059370
:10EB6400039B059ADA60019B002BB5D1069B1846DE
:10EB740009B05DF804FB00B589B0039002910192DD
:10EB8400039BDB680793039B9A68079BD31A06933E
:10EB9400069A019B9A420ED9039B5A68079B134419
:10EBA400019A0299184608F05BFE079A019B1A44E1
:10EBB400039BDA601AE0069B0593039B5A68079B44
:10EBC4001344059A0299184608F04AFE019A069BD6
:10EBD400D31A0593039B5868029A069B1344059A1B
:10EBE400194608F03DFE039B059ADA6000BF09B0A0
:10EBF4005DF804FB86B00190019B1B690493019BA3
:10EC0400DB680393049A039B9A4208D8019B9A6891
:10EC1400039BD21A049B1344013B059304E0049A1A
:10EC2400039BD31A013B0593059B184606B0704716
:10EC340000B589B0039002910192029B0693039B55
:10EC44005A1C13465B001344DB00204A134405930B
:10EC5400059B5B69022B29D0022B2ED8002B02D0F6
:10EC6400012B13D029E00598FFF7C4FF0490049A00
:10EC7400019B9A4202D20023079321E0019B079350
:10EC8400019A06990598FFF776FF19E00598FFF7B2
:10EC9400B1FF0490019A049B934228BF1346079343
:10ECA400079A06990598FFF766FF09E0019A069905
:10ECB4000598FFF707FF079002E00023079300BFC2
:10ECC400079B184609B05DF804FB00BF5C380020C0
:10ECD40008B5FFF7A9FE00BF08BD6DDF704700BF90
:10ECE400184679DF704700BF18467DDF704700BFC4
:10ECF400184664DF704700BF184682B0034600918F
:10ED0400ADF80630BDF80630DAB2009B1A70BDF8D3
:10ED140006301B0A9AB2009B0133D2B21A70022346
:10ED2400184602B0704700B589B0039002911346AB
:10ED3400ADF80630029B1B8803F10902BDF80630CA
:10ED44009A4201D90C2353E004AB1846FFF7C5FFE0
:10ED54000790079B0693069B002B01D0069B47E078
:10ED6400029B1B881A46039B134408221A70029BB9
:10ED74001B8801339AB2029B1A80029B1B881A4695
:10ED8400039B13441B221A70029B1B8801339AB203
:10ED9400029B1A80029B1B881A46039B981804AB9B
:10EDA40001330622194608F05BFD029B1B880633DB
:10EDB4009AB2029B1A809DF8103023F00103DBB253
:10EDC400002B07D1029B1B881A46039B1344002285
:10EDD4001A7006E0029B1B881A46039B1344012207
:10EDE4001A70029B1B8801339AB2029B1A8000237B
:10EDF400184609B05DF804FB00B589B00390029190
:10EE04000192ADF80230039B1B78012B05D1039BC3
:10EE14005B78002B01D1072392E0019B1B889A1C8D
:10EE2400BDF802309A420ED8039B1B78012B0CD1FB
:10EE3400019B1B881A46039B5B7813449A1CBDF8FC
:10EE440002309A4201D90C237AE0019B1B88BDF859
:10EE54000220D31A9BB2023BADF81C30BDF81C3023
:10EE6400ADF81230019B1B880233029A13440DF152
:10EE7400120211461846FFF738FF0690069B0593C9
:10EE8400059B002B01D0059B5AE0039B1B78022BAA
:10EE940006D0039B5B789AB2BDF812309A4209D32C
:10EEA400BDF81230BDF81C209A4203D309238DF813
:10EEB4001F3017E008238DF81F30039B1B78012BAC
:10EEC4000CD1039B5B789BB2BDF81C209A4205D3FE
:10EED400039B5B789BB2ADF8123003E0BDF81C30A5
:10EEE400ADF81230BDF81230FE2B01D90C2327E007
:10EEF400BDF81230DAB2019B1B881946029B0B4401
:10EF04000132D2B21A70019B1B8801339AB2019B61
:10EF14001A80019B1B881A46029B13449DF81F20EC
:10EF24001A70019B1B8801339AB2019B1A80019BC2
:10EF34001A88BDF8123013449AB2019B1A80002338
:10EF4400184609B05DF804FB00B589B0039002913E
:10EF54001346ADF80630029B1B881A1DBDF8063017
:10EF64009A4201D90C233BE00DF116031846FFF732
:10EF7400B8FE0790079B0693069B002B01D0069BC7
:10EF84002EE0029B1B881A46039B134403221A702B
:10EF9400029B1B8801339AB2029B1A80029B1B8836
:10EFA4001A46039B134419221A70029B1B880133CF
:10EFB4009AB2029B1A80BDF81620029B1B88194640
:10EFC400039B0B4419461046FFF797FE0346194668
:10EFD400029B1A888BB213449AB2029B1A800023B4
:10EFE400184609B05DF804FB84B0029101921A46F8
:10EFF40003468DF80F301346ADF80C30019B1B8887
:10F00400DA1CBDF80C309A4201D90C2328E0019B8C
:10F014001B881A46029B134402221A70019B1B8808
:10F0240001339AB2019B1A80019B1B881A46029BEA
:10F03400134401221A70019B1B8801339AB2019B6D
:10F044001A80019B1B881A46029B13449DF80F20CB
:10F054001A70019B1B8801339AB2019B1A8000230A
:10F06400184604B0704784B0029101921A460346D0
:10F074008DF80F301346ADF80C30019B1B88DA1C59
:10F08400BDF80C309A4201D90C2328E0019B1B885F
:10F094001A46029B134402221A70019B1B880133F7
:10F0A4009AB2019B1A80019B1B881A46029B134447
:10F0B4000A221A70019B1B8801339AB2019B1A80A1
:10F0C400019B1B881A46029B13449DF80F201A705B
:10F0D400019B1B8801339AB2019B1A8000231846B6
:10F0E40004B0704700B58FB0039001930B468DF8C0
:10F0F4000B3013468DF80A3000238DF83330109B03
:10F104001B88ADF8303000230D9371E0039B5A68DF
:10F114000D9B9B001A4405AB106818600DF11B0190
:10F1240005AB00221846FFF7E4FD0A900A9B0993F9
:10F13400099B002B01D0099B7CE09DF81B309DF8B6
:10F144000A209A4251D19DF83330002B01D000237C
:10F1540000E002238DF82330109B1B881A469DF88B
:10F164001B301A449DF823301A44BDF844309A42A7
:10F1740001DD0C235EE09DF8333083F00103DBB244
:10F18400002B16D0109B1B8801339AB2109B1A8057
:10F19400109B1B881A46019B13449DF80B201A7080
:10F1A400109B1B8801339AB2109B1A8001238DF89F
:10F1B4003330109B1B881A46019B1A440DF11B0126
:10F1C40005AB1846FFF795FD0A900A9B0793079B2A
:10F1D400002B01D0079B2DE0109B1A889DF81B3053
:10F1E4009BB213449AB2109B1A800D9B01330D936A
:10F1F400039B1B881A460D9B934287DB9DF8333093
:10F20400002B16D0109B1A88BDF83030D31A9BB24D
:10F21400013BADF82E30BDF82E30FF2B01D90C2365
:10F2240008E0BDF83030019A1344BDF82E20D2B264
:10F234001A70002318460FB05DF804FB00B58BB0BC
:10F24400059003930B468DF8133013468DF8123056
:10F254009DF81310BDF8343001930C9B0093039B6D
:10F2640002220598FFF73EFF0990099B0893089B2B
:10F27400002B01D0089B14E09DF81210BDF8343027
:10F2840001930C9B0093039B10220598FFF72AFF20
:10F294000990099B0793079B002B01D0079B00E073
:10F2A400002318460BB05DF804FB82B00190019B6B
:10F2B4001B88052B0AD9019B1B88B3F5486F07D916
:10F2C400019B1B884FF6FF72934201D0072325E070
:10F2D400019B5B88052B0AD9019B5B88B3F5486FBA
:10F2E40007D9019B5B884FF6FF72934201D0072335
:10F2F40014E0019B1B884FF6FF7293420DD0019BD3
:10F304005B884FF6FF72934207D0019B1A88019BDA
:10F314005B889A4201D9072300E00023184602B013
:10F32400704700B587B0039002910192ADF80230A6
:10F33400019B1B889A1DBDF802309A4201D90C2307
:10F344004DE00398FFF7B1FF0590059B0493049BE0
:10F35400002B01D0049B42E0019B1B881A46029BB0
:10F36400134405221A70019B1B8801339AB2019B36
:10F374001A80019B1B881A46029B134412221A709E
:10F38400019B1B8801339AB2019B1A80039B1A8844
:10F39400019B1B881946029B0B4419461046FFF734
:10F3A400ACFC03461946019B1A888BB213449AB2EB
:10F3B400019B1A80039B5A88019B1B881946029B58
:10F3C4000B4419461046FFF798FC03461946019B67
:10F3D4001A888BB213449AB2019B1A8000231846F0
:10F3E40007B05DF804FB00B587B003900291019269
:10F3F400ADF80230039B9B8802330593019B1B8865
:10F404001A46059B13449A1CBDF802309A4201D94E
:10F414000C2354E0059BFE2B01D90C234FE0059BE4
:10F42400DAB2019B1B881946029B0B440132D2B20B
:10F434001A70019B1B8801339AB2019B1A80019BAD
:10F444001B881A46029B1344FF221A70019B1B88D7
:10F4540001339AB2019B1A80039B1A88019B1B8873
:10F464001946029B0B4419461046FFF746FC034617
:10F474001946019B1A888BB213449AB2019B1A80D5
:10F48400039B9B88002B19D0039B9B68002B01D105
:10F49400072314E0019B1B881A46029B9818039BC0
:10F4A4009968039B9B881A4608F0DAF9019B1A882D
:10F4B400039B9B8813449AB2019B1A80002318462D
:10F4C40007B05DF804FB00B589B003900291019286
:10F4D400ADF80230039B9B6A002B01D1072372E035
:10F4E40000238DF81F3066E0039B996A9DF81F2066
:10F4F40013465B0013449B000B440693069B9B88B6
:10F5040002330593059BFE2B01D90C235BE0059B7D
:10F51400DAB2019B1B881946029B0B440132D2B21A
:10F524001A70019B1B8801339AB2019B1A80019BBC
:10F534001B881A46029B134416221A70019B1B88CF
:10F5440001339AB2019B1A80069B1A88019B1B887F
:10F554001946029B0B4419461046FFF7CEFB03469F
:10F564001946019B1A888BB213449AB2019B1A80E4
:10F57400069B9B88002B19D0069B9B68002B01D10E
:10F58400072320E0019B1B881A46029B9818069BC0
:10F594009968069B9B881A4608F062F9019B1A88B1
:10F5A400069B9B8813449AB2019B1A809DF81F30D6
:10F5B40001338DF81F30039B93F82C309DF81F20E6
:10F5C4009A4291D30023184609B05DF804FB00B5B4
:10F5D40095B005900491039200231393039B1B8819
:10F5E400ADF84A30039B00221A80059B93F82D3016
:10F5F400002B0ED0BDF84A301A4603990498FFF741
:10F6040092FB1390139B1193119B002B01D0119B20
:10F61400D8E0059B9B78002B0ED0BDF84A301A46E3
:10F6240003990498FFF790FC1390139B1093109B7D
:10F63400002B01D0109BC5E0059BDB78002B10D07C
:10F64400059BDB7858B2BDF84A30039A0499FFF75A
:10F65400CBFC1390139B0F930F9B002B01D00F9B9C
:10F66400B0E0059B5B68002B11D0059B5B6893F9A8
:10F674000000BDF84A30039A0499FFF7F4FC139094
:10F68400139B0E930E9B002B01D00E9B9AE0059BBF
:10F694001B89002B14D0059B03F10800BDF84A30E8
:10F6A4000193039B0093049B06220221FFF7C6FDEE
:10F6B4001390139B0D930D9B002B01D00D9B81E0A8
:10F6C400059B1B8A002B14D0059B03F11000BDF889
:10F6D4004A300193039B0093049B07220321FFF705
:10F6E400ADFD1390139B0C930C9B002B01D00C9B32
:10F6F40068E0059B1B8B002B14D0059B03F11800BD
:10F70400BDF84A300193039B0093049B15221421F6
:10F71400FFF794FD1390139B0B930B9B002B01D0CD
:10F724000B9B4FE0059B1B6A002B0FD0059B186AAF
:10F73400BDF84A30039A0499FFF7F3FD1390139B25
:10F744000A930A9B002B01D00A9B3BE0059B5B6A52
:10F75400002B0FD0059B586ABDF84A30039A0499D0
:10F76400FFF741FE1390139B0993099B002B01D0D3
:10F77400099B27E0059B93F82C30002B0ED0BDF895
:10F784004A30039A04990598FFF79DFE1390139B42
:10F794000893089B002B01D0089B13E0059B1B7862
:10F7A400002B0ED0BDF84A30039A04990598FFF750
:10F7B40023FB1390139B0793079B002B01D0079BFC
:10F7C40000E0139B184615B05DF804FB86B0039067
:10F7D40001921A460B46ADF80A3013468DF80930EB
:10F7E400039B002B02D0019B002B01D100233CE0A2
:10F7F4000023ADF816300CE0BDF81630039A13441C
:10F804001B789AB2BDF8163013449BB20133ADF89D
:10F814001630019B1B88BDF816209A4209D3BDF807
:10F8240016300133039A13441B789DF809209A4239
:10F8340005D0BDF81620BDF80A309A42DCD3BDF8D5
:10F844001620BDF80A309A4201D300230DE0BDF81A
:10F85400163002339AB2019B1A80BDF81630039A0F
:10F8640013441B789BB2013B9BB2184606B0704709
:10F8740000B585B001900B46ADF8023013468DF803
:10F8840001300023ADF80C309DF8013003AABDF817
:10F8940002100198FFF79AFF0346ADF80E30BDF849
:10F8A4000E30002B01D1002304E0BDF80C301A46C1
:10F8B400019B1344184605B05DF804FB72DF7047E2
:10F8C40000BF184673DF704700BF184682B001902E
:10F8D400019B93F85432184602B0704784B00190EB
:10F8E400002303930AE0019A039B13441B78002B23
:10F8F40001D0012306E0039B01330393039B052BF3
:10F90400F1D90023184604B07047000082B00346C2
:10F914008DF807309DF807305A1C074B83FB021300
:10F924005910D317C91A0B469B000B44D11ACBB2FA
:10F93400184602B0704700BF6766666682B00190E1
:10F944000091009BDB7B012B04D1009B9A88019BD7
:10F95400A3F8482200BF02B0704700B585B00190FB
:10F964000091019B002283F85222009B9A88019BFC
:10F97400B3F848329A4216D1019B1B7983F00103F4
:10F98400DBB2002B0FD00121019800F0B7FA0390ED
:10F99400039B002B07D0019B9B6B002B03D0019B87
:10F9A4009B6B0398984700BF05B05DF804FB00B556
:10F9B40085B001900091009B1B88262B1ED1009BD3
:10F9C4001B7A012B03D0009B1B7A022B17D1019BBE
:10F9D4009B781846FFF79AFF03461946019800F0F2
:10F9E4008DFA0390039B002B09D0019B9B6B002B8A
:10F9F40005D0019B9B6B0398984700E000BF05B0BE
:10FA04005DF804FB00B585B001900B468DF803301A
:10FA1400019B03F24B231846FFF760FF03468DF862
:10FA24000F309DF80330013B032B33D801A252F869
:10FA340023F000BF49FA02006DFA020081FA0200C5
:10FA44008DFA0200019B9B79002B0DD0019B93F84A
:10FA5400243083F00103DBB2002B05D09DF80F3076
:10FA6400002B01D0012316E0019BDB79002B05D08C
:10FA74009DF80F30002B01D002230CE0019B1B7A70
:10FA8400002B01D0032306E0019B5B7A002B01D0FD
:10FA9400042300E00023184605B05DF804FB00BF12
:10FAA40082B001900091019B012283F83120019BD7
:10FAB4000022C3F84422019B03F24A22009B5A60AD
:10FAC400009B00229A60009B02221A70009B8022F5
:10FAD4009A810023184602B0704782B001900091C9
:10FAE400019B022283F83120019B93F82430002BE0
:10FAF40003D0009B07221A7002E0009B03221A70B5
:10FB0400019B1B699AB2009B9A81019B0022C3F856
:10FB14004422019B03F24A22009B5A60019BDA684B
:10FB2400009B9A600023184602B0704700B583B06A
:10FB34000190019B5B79002B0FD0019B93F852320B
:10FB440083F00103DBB2002B07D00198FFF7BEFE60
:10FB54000346002B01D0012300E0002303F001033E
:10FB6400DBB2184603B05DF804FB00B585B0019024
:10FB74000B468DF80330019BD3F83402019BB3F894
:10FB8400383201221946FFF773FE0390039B002BC2
:10FB940003D0039B9DF803201A70019B03F15400CA
:10FBA400019B03F50D71019B3C331A46FFF786FE5A
:10FBB4000346184605B05DF804FB00B585B0019016
:10FBC4000091019B5A69009B9A60019B9B699AB2C0
:10FBD400009B9A81019B93F82430002B04D0019B55
:10FBE400062283F83C2003E0019B012283F83C2099
:10FBF4000198FFF79BFF0346002B13D0009B0222C2
:10FC04001A7504210198FFF7B0FF0390039B029338
:10FC1400029B002B01D0029B0FE0019B052283F87D
:10FC2400312003E0019B032283F83120019B03F57B
:10FC34000D72019BC3F844220023184605B05DF8F9
:10FC440004FB00B585B001900091019BDA69009B2B
:10FC54009A60019B1B6A9AB2009B9A81019B93F85C
:10FC64002430002B04D0019B062283F83C2003E0BF
:10FC7400019B012283F83C200198FFF757FF0346BC
:10FC8400002B13D0009B02221A7504210198FFF760
:10FC94006CFF0390039B0293029B002B01D0029BF9
:10FCA4000FE0019B062283F8312003E0019B04222C
:10FCB40083F83120019B03F50D72019BC3F84422A4
:10FCC4000023184605B05DF804FB82B00190019B47
:10FCD4009B78002B06D0019B93F82030002B01D099
:10FCE40000230AE0019B9B6A042B03D0019B5B6AFF
:10FCF400042B01D1002300E00123184602B0704711
:10FD040082B001900B468DF80330019B9DF80320CF
:10FD140083F8302000BF02B0704730B587B001903F
:10FD24000091009B002B02D0019B002B01D10E23DC
:10FD3400D0E0009B78331846FFF7C7FF034683F0F3
:10FD44000103DBB2002B01D00723C3E0019B002297
:10FD54009A70019A009B141D03F178050FCD0FC40E
:10FD64000FCD0FC495E8070084E80700019B00222B
:10FD740083F83020009BD3F8A420019B5A63009B96
:10FD8400D3F8A820019B9A63019B4FF6FF72A3F856
:10FD94004822019B03F50D72019BC3F84422019B89
:10FDA40003F24A2307220021184607F082FD019B33
:10FDB4001B7883F00103DBB2002B03D0019BFF22ED
:10FDC40083F85420019B03F15502019BC3F83422AC
:10FDD400019B93F82430002B04D0019BEE22A3F85E
:10FDE400382203E0019B1F22A3F838220098019BCC
:10FDF40003F15501019B03F50E731A46FFF7E7FB68
:10FE04000590059B0493049B002B01D0049B61E0A7
:10FE1400009B3C33002B27D0019B03F24312019B30
:10FE2400C3F83C22019B93F82430002B04D0019B9F
:10FE3400EE22A3F8402203E0019B1F22A3F84022F4
:10FE4400009B03F13C00019BD3F83C12019B03F59A
:10FE540010731A46FFF7BBFB0590059B0393039BA6
:10FE6400002B09D0039B35E0019B0022C3F83C2200
:10FE7400019B0022A3F84022019B012283F8512018
:10FE8400019B9B699AB2019BA3F84820019B012224
:10FE940083F83C20019B00221A64019B002283F812
:10FEA4005020019B5A69019B5A64019B03F1540041
:10FEB400019B3C331A460021FFF700FD0590059B8A
:10FEC4000293029B002B01D0029B03E0019B0122C1
:10FED4001A70059B184607B030BD82B00190019B93
:10FEE4001B68012B03D0019B1B68022B01D101234A
:10FEF40000E00023184602B07047000000B585B04A
:10FF040001900B468DF80330019B1B7883F00103AD
:10FF1400DBB2002B01D0082309E1019B9DF80320EB
:10FF24009A70019B03F24A2307220021184607F026
:10FF3400C0FC019B9B79002B03D0019B9B78012B78
:10FF44000FD0019BDB79002B03D0019B9B78012B05
:10FF540007D0019BDB79002B14D0019B9B78022BEB
:10FF640010D1019B5B6B002B08D0019B012283F80D
:10FF74005122019B5B6B0820984703E0019B002200
:10FF840083F851229DF8033019460198FFF73AFD92
:10FF940003461A46019B9A70019B5B6B002B20D091
:10FFA400019B9B78032B03D0019B9B78042B18D1D6
:10FFB400019B5B79002B14D0019B93F8523283F0A0
:10FFC4000103DBB2002B0CD0019B002283F85422E6
:10FFD400019B012283F85322019B5B6B0720984706
:10FFE40003E0019B002283F85322019B3C33182237
:0CFFF4000021184607F05DFC019B012273
:020000023000CC
:1000000083F83C20019B2C331846FFF768FF03461A
:10001000002B06D0019BDB6ADAB2019B83F85120EA
:1000200003E0019B012283F85120019B93F82430C7
:10003000002B12D0019B2C331846FFF750FF0346CC
:10004000002B06D0019B9B6ADAB2019B83F85220F9
:1000500003E0019B012283F85220019B002283F8D8
:100060005020019B9B78042B31D801A252F823F039
:10007000C50003008500030095000300A5000300F0
:10008000B5000300019B3C3319460198FFF70AFDB8
:1000900003901DE0019B3C3319460198FFF71FFDBB
:1000A000039015E0019B3C3319460198FFF787FD4B
:1000B00003900DE0019B3C3319460198FFF7C3FD07
:1000C000039005E0019B002283F8312000E000BF8F
:1000D000019B9B78002B20D0019B03F15400019BD6
:1000E000D3F84412019B3C331A46FFF7E9FB039017
:1000F000039B002B01D0039B1BE0019B93F8542032
:10010000019B93F8303019461046FFF7DDFB039052
:10011000039B002B01D0039B0BE0019B5B6B002B2F
:1001200006D0019B5B6B019A92F8312010469847EC
:100130000023184605B05DF804FB00BF00B585B08C
:1001400001900091009B0393019B1B88262B10D0EC
:10015000262B13DC102B02D0112B05D00EE00199B9
:100160000398FFF7EDFB0AE001990398FFF7F7FB0F
:1001700005E001990398FFF71CFC00E000BF00BFF9
:1001800005B05DF804FB82B00190009100BF02B0A1
:10019000704775DF704700BF184676DF704700BFB5
:1001A00018467ADF704700BF18467BDF704700BFF4
:1001B0001846000084B00346ADF8063000230393D0
:1001C00016E00F49039A13469B0013449B000B440F
:1001D0001B88BDF806209A4207D1039A13469B005C
:1001E00013449B00064A134406E0039B0133039328
:1001F000039B002BE5D00023184604B0704700BFD6
:100200000441002082B001900B46ADF80230019B02
:10021000BDF802201A80019B00221A72019B054939
:1002200003F10A020B4603CB1060516000BF02B01D
:10023000704700BF3441002082B00190019B4FF60F
:10024000FF721A8000BF02B0704788B0039002911D
:1002500011461A460B46ADF806301346ADF8043089
:10026000039B9B881A46BDF8063013440793039BF3
:100270009B881946039B9B88BDF80620934228BFA4
:1002800013469BB2CB1A0693039BDB881A46BDF834
:10029000043013440593039BDB881946039BDB88DA
:1002A000BDF80420934228BF13469BB2CB1A049397
:1002B000029B5A88039B1B889A4205D3029B5A884B
:1002C000039B5B889A4201D900231CE0029B9B8818
:1002D0001A46069B934205D8029B9B881A46079BA9
:1002E000934201D200230EE0029BDB881A46049B56
:1002F000934205D8029BDB881A46059B934201D2A4
:10030000002300E00123184608B0704700B583B011
:100310000190064B9B69002B03D0044B9B6901980D
:10032000984700BF03B05DF804FB00BF18410020F0
:1003300000B585B003460091ADF80630BDF8063033
:1003400000991846FFF725FF0390039B002B05D06B
:10035000039B112B02D00398FFF7D8FF039B002BC0
:100360000CBF01230023DBB2184605B05DF804FB87
:1003700000B589B00190019B0793079B9BB218467B
:10038000FFF718FF0690069B002B42D0069B1A7AB7
:10039000224B1B7B9A4215D2079B9AB2069B0A33CB
:1003A00019461046FFF7C4FF03468DF813309DF839
:1003B0001330002B2DD0069B1B7A0133DAB2069B3B
:1003C0001A7226E0069B00221A72144B1B7C002B2B
:1003D0000FD0079B9BB23B211846FFF7DEFE05902E
:1003E000059B002B05D0059B082B02D00598FFF735
:1003F0008DFF0A4B5B69002B0BD000238DF80C306E
:10040000079B9BB2ADF80E30044B5B6903AA104604
:10041000984700BF09B05DF804FB00BF18410020F9
:1004200030B587B00190019B002B01D10E2353E022
:100430002B4A019B14461D460FCD0FC495E80700BB
:1004400084E80700264B274A1A60019B1B68002B93
:1004500011D0019B1B681846FFF7A3FE0490049B74
:10046000002B01D0049B37E0019B1A681D4B1068DC
:10047000516803C308E01B48FFF797FE0490049BF4
:10048000002B01D0049B27E00023059320E0059A70
:1004900013469B0013449B00134A13440393039891
:1004A000FFF7CAFE059B5B01104A1A44039B5A6082
:1004B000039B04330E4A00211846F7F79BFF049074
:1004C000049B002B01D0032306E0059B0133059319
:1004D000059B002BDBD00023184607B030BD00BFC2
:1004E000184100203441002004410020E440002055
:1004F0007103030000B587B003460091ADF80630E4
:10050000009B5B7A002B1AD1009B1B7A002B03D136
:10051000164B5B68059302E0144B9B680593009BA8
:100520005B68BDF8062005991846F7F793FF04901D
:10053000049B002B16D00498FFF7E8FE12E0009B06
:1005400000221A72094B5B69002B0BD001238DF836
:100550000C30BDF80630ADF80E30044B5B6903AAD1
:100560001046984700BF07B05DF804FB1841002013
:1005700000B585B00190019BDB7B8DF80F30019BAE
:100580009B88ADF80C309DF80F30012B2CD14FF625
:10059000FF70FFF70FFE0290029B002B03D1042097
:1005A000FFF7B4FE21E0BDF80C3019460298FFF7C2
:1005B00029FE029B03F10A00019B03F110014FF693
:1005C000FF7340F2F312FFF740FE03461A46029B08
:1005D0005A72074BDB89002B07D1BDF80C3002990A
:1005E0001846FFF787FF00E000BF05B05DF804FB89
:1005F0001841002000B587B00190019B9B88ADF8A1
:100600001630BDF816301846FFF7D4FD0490049B51
:10061000002B0ED0049B5B681846F7F74DFF039044
:10062000039B002B02D00398FFF770FE0498FFF79E
:1006300003FE00BF07B05DF804FB000000B587B003
:100640000190019B06330593059B1A88194BDB89A2
:100650009A422BD1059B5B89022B27D1019B9B885A
:10066000ADF81230BDF812301846FFF7A3FD039025
:10067000039B002B1AD0059B0C33184600F036FA6A
:100680000346002B06D0BDF8123003991846FFF739
:1006900031FF0BE0039B5B681846F7F70DFF0290F4
:1006A000029B002B02D00298FFF730FE00BF07B07C
:1006B0005DF804FB1841002000B585B00190019B56
:1006C0009B88ADF80E30BDF80E301846FFF772FD6E
:1006D0000290029B002B15D0029B03F10A00019BA4
:1006E00003F108014FF6FF7340F2F312FFF7ADFD7F
:1006F00003461A46029B5A72BDF80E3002991846FC
:10070000FFF7F8FE00BF05B05DF804FB00B583B04D
:1007100001900091019B1B88502B12D0502B18DCAC
:10072000122B12D0122B14DC102B02D0112B04D060
:100730000FE00198FFF71CFF0CE00198FFF75AFF4C
:1007400008E00198FFF77AFF04E00198FFF7B4FF93
:1007500000E000BF00BF03B05DF804FB30B58FB010
:100760000190009100230293009B002B1AD00023DC
:100770000D9314E06B460D991846F8F797F8034669
:10078000002B09D0029B5A1C02920D9A92B25B0078
:100790000EA90B4423F82C2C0D9B01330D930D9BBC
:1007A000132BE7D9019B1D4602AC0FCC0FC50FCC14
:1007B0000FC594E8070085E8070001980FB030BD29
:1007C00000B583B00346ADF80630BDF80630132BF4
:1007D00001D900230CE0BDF8063019460648F8F7A9
:1007E00034F8BDF8063019460448F8F72EF801230E
:1007F000184603B05DF804FB44410020404100204E
:1008000000B585B00346ADF80630002303930DE034
:10081000039B9B00094A13440433BDF8062011468C
:100820001846F8F72AF8039B01330393039B1C2B0C
:10083000EED900BF00BF05B05DF804FB3C410020CD
:1008400000B583B00346ADF80630BDF80630194652
:100850000348F8F712F800BF03B05DF804FB00BFCF
:100860004441002030B59BB0184B9B68DB43189384
:10087000164B5A6818AB11461846F8F776F8189ACE
:100880006B4611461846FFF769FF0DAC6D460FCD5C
:100890000FC40FCD0FC495E8070084E807000023BC
:1008A00019930BE0199B5B001AAA134433F8303CF0
:1008B0001846FFF7A5FF199B013319930D9B199A51
:1008C0009A42EFD300BF00BF1BB030BD3C410020B7
:1008D00000B585B001900091019B9B88ADF80E306A
:1008E000019B1B881A2B2AD01A2B68DC102B02D0F4
:1008F000112B1ED063E0FFF7B5FFBDF80E30184690
:10090000FFF75EFF034683F00103DBB2002B05D047
:100910002D4AE3210420F6F753FF4FE0019BDB7BD8
:10092000012B4BD0BDF80E3019462848F7F78DFF44
:1009300044E0BDF80E301846FFF782FF3FE0019B10
:100940001B7AC3F30313DBB2012B8CBF01230023FB
:100950008DF80D30019B1B7AC3F30313DBB2022B1E
:100960008CBF012300238DF80C309DF80D30002B37
:1009700017D0BDF80E3019461548F7F766FF9DF8F9
:100980000C30002B06D0BDF80E3019461148F7F791
:100990005CFF14E0BDF80E3019460E48F7F76DFF06
:1009A0000DE0BDF80E3019460948F7F766FFBDF8AF
:1009B0000E3019460748F7F760FF00E000BF00BFA0
:1009C00005B05DF804FB00BF80940300484100209F
:1009D0004C4100205041002000B583B00346ADF8E3
:1009E0000630BDF80630132B01D9002306E0BDF810
:1009F000063019460348F7F759FF0346184603B077
:100A00005DF804FB4041002000B583B00346ADF81B
:100A10000630BDF806301846FFF7DEFF0346002B10
:100A200002D0BDF8063000E01423184603B05DF88C
:100A300004FB00B587B003900B460192ADF80A3075
:100A4000019B002B01D10E2338E0019B00221A608C
:100A5000039B002B01D10E2330E0039B1B68002B6E
:100A600001D10E232AE0039BDB8803F003039BB232
:100A7000002B01D0072321E0BDF80A301846FFF70C
:100A8000C3FF03468DF817309DF81730142B01D1A2
:100A9000052313E0039B1B799DF817209A4201D38D
:100AA00004230BE0039B1B689DF817200399C9885A
:100AB00001FB02F21A44019B1A600023184607B09A
:100AC0005DF804FB82B00190019B1B781AB2019B78
:100AD00001331B781B021BB213431BB29BB2184697
:100AE00002B07047AADF704700BF184600B585B056
:100AF00001900198FFF7E6FF0346ADF80E30BDF810
:100B00000E3003F00103002B14BF01230023DBB2DE
:100B1000184605B05DF804FB00B585B0019001985A
:100B2000FFF7D0FF0346ADF80E30BDF80E3003F0EE
:100B30000203002B14BF01230023DBB2184605B0CB
:100B40005DF804FB00B583B001900091009806F0B9
:100B500007FF03469AB2019B1A80019B009A5A60D4
:100B600000BF03B05DF804FB82B0034600918DF82E
:100B70000730009A13786FF303031370009A137809
:100B80006FF3071313709DF80730052B5BD801A294
:100B900052F823F0AD0B0300C30B0300DD0B030081
:100BA000F70B0300110C03002B0C0300009A1378C1
:100BB0006FF303031370009A13786FF30713137026
:100BC00040E0009A1378012161F303031370009A47
:100BD0001378012161F30713137033E0009A13783F
:100BE000012161F303031370009A1378022161F36A
:100BF0000713137026E0009A1378012161F30303B1
:100C00001370009A1378032161F30713137019E02E
:100C1000009A1378022161F303031370009A13788A
:100C2000012161F3071313700CE0009A137802217D
:100C300061F303031370009A1378022161F3071321
:100C4000137000BF00BF00BF02B0704700B595B081
:100C5000034602910192ADF80E30029B9B78002B67
:100C600003D101238DF81E3003E0029B9B788DF8A1
:100C70001E30029B1B88ADF81C3006AB03220021FE
:100C8000184606F018FE029B5B7C06AA1146184621
:100C9000FFF76AFF029B9A7C06AB013319461046A8
:100CA000FFF762FF029BDA7B9DF81A3062F3C30301
:100CB0008DF81A30029B1A7C9DF81A3062F30413E7
:100CC0008DF81A30029B1A7B9DF81A3062F30003EC
:100CD0008DF81A30029B1B7D002B01D0022200E010
:100CE00001229DF81A3062F342038DF81A300DABE1
:100CF0001C220021184606F0DEFD029B5B7B03F000
:100D00001003DBB2002B06D1029B5B7B03F02003B8
:100D1000DBB2002B24D004AB03220021184606F0DE
:100D2000CAFD029BDA7C04AB013319461046FFF77B
:100D30001BFF9DF81030012262F303038DF8103081
:100D40009DF81030012262F307138DF810309DF8E2
:100D50001230012262F342038DF8123004AB129379
:100D6000029B5B7B8DF83430029B9B7B8DF835308A
:100D700008AB14220021184606F09DFD07AB08932E
:100D800006AB0993029B9B88ADF82C30029B9B68B5
:100D9000002B06D0029BDB88ADF82830029B9B68B5
:100DA0000C93029B9B69002B4FD005AB03220021C3
:100DB000184606F080FD029B9B691B88ADF83C300D
:100DC000029B9B695B88ADF83E30029B9B695B6828
:100DD0000E9305AB1193029B9B691B7B05AA1146E1
:100DE0001846FFF7C1FE029B9B695A7B05AB013396
:100DF00019461046FFF7B8FE029B9B699A7A9DF848
:100E0000163062F3C3038DF81630029B9B69DA7AC1
:100E10009DF8163062F304138DF81630029B9B691F
:100E20001A7A9DF8163062F300038DF81630029B93
:100E30009B699B7B002B01D0022200E001229DF8E0
:100E4000163062F342038DF81630029BDB69002BEB
:100E500002D0029BDB69109308AA0DA9BDF80E0011
:100E6000019BFFF73FFE0346184615B05DF804FBF3
:100E700090DF704700BF1846A5DF704700BF1846D7
:100E8000B5DF704700BF184682B00190019BF72282
:100E90001A80019B17225A80019B00221A71019B24
:100EA00000225A71019BFB229A71019B1B22DA716D
:100EB00000BF02B07047000030B589B003460A4653
:100EC000ADF806301346ADF80430BDF80430ADF887
:100ED0001430BDF80430ADF816300023ADF81830EA
:100EE0000023ADF81A3003AB00221A609A8003AADF
:100EF00005A9BDF806301846FFF7BAFF0790079B13
:100F0000002B39D01E4A1F4BD31ADB081B0443F0B9
:100F10000104BDF806500798F8F7ACFD03462A46D1
:100F200019492046F5F7EDFEBDF80C30002B03D132
:100F3000BDF80E30002B0ED0114A124BD31ADB082D
:100F40001B0443F00100BDF80C301A46BDF80E300A
:100F50000E49F5F7D6FEBDF81030002B0CD0084A2C
:100F6000084BD31ADB081B0443F00103BDF8102023
:100F700007491846F5F7B4FE079B184609B030BD7F
:100F8000B881030060810300D4940300209503001E
:100F90006095030010B586B001900091009B9B887E
:100FA000ADF80E30BDF80E30DB00019A1344063365
:100FB0000593019B1A79059B9A71009BDB7B012BA2
:100FC00002D0022B05D009E0019B1A88059B1A80EC
:100FD00004E0019B5A88059B1A8000BF059B1A8874
:100FE000059B5B889A4226D9059B1A88BDF80E306E
:100FF00011461846FFF740FF0490049B002B03D1D5
:10100000059B01225A7116E0049B112B03D1059B0D
:1010100001221A710FE0114A114BD31ADB081B048D
:1010200043F001040498F8F725FD03461A460D49DC
:101030002046F5F755FE059B9A79059BDB799A4288
:1010400008D9059B9B799AB2BDF80E301146184617
:10105000FFF732FF00BF06B010BD00BFB88103002C
:1010600060810300B895030000B583B00190009142
:10107000009B9B88DB00019A134406331846FFF758
:1010800003FF00BF03B05DF804FB00B587B001901B
:101090000091009B9B88ADF81630009B5B89ADF8F2
:1010A0001430BDF81630DB00019A13440633049364
:1010B000049B1B88BDF81420934228BF13469AB2A4
:1010C000049B5A80049B5B88172B38BF17239AB266
:1010D000049B5A80019B1B69002B15D0049B5B79F4
:1010E000002B11D040F67723ADF80830BDF816304C
:1010F000ADF80A30049B5B88ADF80C30019B1B698E
:1011000002AA114601989847049B00225A71049B39
:1011100000221A7100BF07B05DF804FB10B588B05B
:1011200001900091009B9B88ADF81A30009BDB88F2
:10113000ADF81830BDF81A30DB00019A13440633BD
:101140000593BDF81830172B38BF1723ADF81830AA
:10115000059B1B88BDF81820934228BF13469AB2FE
:10116000059B5A80059B00221A71059B1A88BDF8C1
:101170001A3011461846FFF783FE0790079B002B95
:101180000FD0174A174BD31ADB081B0443F0010496
:101190000798F8F76FFC03461A4613492046F5F7FF
:1011A0009FFD059B5B79002B16D1019B1B69002BD2
:1011B00013D040F67723ADF80C30BDF81A30ADF8F7
:1011C0000E30059B5B88ADF81030019B1B6903AAAC
:1011D00011460198984700E000BF08B010BD00BF5D
:1011E000B881030060810300EC95030030B591B035
:1011F00001900091009B04AC1D1D0FCD0FC40FCDBD
:101200000FC495E8070084E80700BDF81030ADF87A
:101210003E30BDF81420BDF83E30D1B2019ADB005B
:1012200013440A465A73019B1B69002B19D002AB69
:1012300000221A609A804DF67A23ADF80830BDF886
:101240003E30ADF80A30BDF83E30019ADB00134461
:101250005B7B8DF80C30019B1B6902AA114601983B
:10126000984700BF11B030BD00B587B00190009124
:10127000009B04330593059B1B88DB00019A1344F4
:1012800006330493059B9B888DF80F30049B9B7954
:101290009DF80F20934228BF13468DF80E30059B12
:1012A0001B889DF80E2092B211461846FFF704FEE7
:1012B00000BF07B05DF804FB00B585B00190009158
:1012C000019B002B01D10E231DE0019B009A1A61A6
:1012D000019BF7221A80019BF7225A80019BFB2277
:1012E0001A71002303930AE0039BDB00019A134465
:1012F00006331846FFF7C8FD039B01330393039B96
:10130000002BF1D00023184605B05DF804FB82B035
:1013100001900B46ADF80230019B002B01D10E234A
:101320000EE0BDF80230162B03D9BDF80230F72BC2
:1013300001D9072304E0019BBDF802201A80002395
:10134000184602B07047000010B586B001900091B9
:10135000009B0593019B9B88ADF81230BDF81230BD
:10136000002B40F09880019B1B88552B48D0552BB3
:1013700055DC242B32DC102B51DB103B142B4ED8C8
:1013800001A252F823F000BFE3130300ED130300A2
:101390001F1403001F1403001F1403001F14030075
:1013A0001F1403001F1403001F1403001F14030065
:1013B0001F1403001F1403001F1403001F14030055
:1013C0001F1403001F1403001F1403001F14030045
:1013D0001F140300151403000B1403003A2B0AD04A
:1013E0001DE001990598FFF7D5FD19E001990598D1
:1013F000FFF73AFE14E001990598FFF746FE0FE06B
:1014000001990598FFF78AFE0AE001990598FFF710
:10141000EDFE05E001990598FFF726FF00E000BF0B
:10142000BDF81230059ADB0013449B7A002B33D0B1
:10143000BDF81230059ADB001344DA88BDF812308B
:1014400011461846FFF718FD0390039B002B0ED1A1
:10145000BDF81230059ADB00134400229A72BDF8E1
:101460001230059ADB0013440122DA7214E0039B68
:10147000112B11D0094A0A4BD31ADB081B0443F085
:1014800001040398F8F7F6FA03461A460549204680
:10149000F5F726FC00E000BF06B010BDB8810300E0
:1014A00060810300B8950300B0DF704700BF1846A5
:1014B00066DF704700BF184682B001900091019B23
:1014C000002B01D10E2316E0009B002B01D10E232F
:1014D00011E0019B1B78DE2B01D108230BE0009B60
:1014E0001A68019B5A60019BDE221A70019B4FF61D
:1014F000FF725A800023184602B0704700B585B0CD
:101500000190019B1B7A002B18D0019B5B88002166
:101510001846FFF7CDFF0390039B002B03D1019BDF
:1015200000221A720AE0039B112B03D1019B0122B6
:101530001A7203E0019B5B680398984700BF05B0EF
:101540005DF804FB00B583B001900091009B1B790E
:10155000012B0BD1009B1A88019B5B889A4205D115
:10156000019B01221A720198FFF7C8FF00BF03B068
:101570005DF804FB82B00190009100BF02B070479B
:1015800000B589B001900091009B1A88019B5B888F
:101590009A4236D1009B02330793079B1B78022B9C
:1015A00031D1079B1B7A042B07D0079B1B7A062B94
:1015B00003D0079B1B7A052B27D102AB00221A60B0
:1015C0005A609A60DA6002238DF808304FF4C073D5
:1015D000ADF80C30079B1B7A052B02D10023ADF828
:1015E0000C30009B1B8802AA11461846FFF75CFFCF
:1015F0000690069B002B09D0019B5B6806989847D4
:1016000004E000BF02E000BF00E000BF09B05DF8E9
:1016100004FB00B585B001900091009B002B40D0E9
:10162000019B002B3FD0009B0393039B1B78DE2B79
:101630003BD1019B9A88039B5B889A4202D1039815
:10164000FFF75CFF019B1B88512B18D0512B2EDC20
:10165000112B1BD0112B2ADC012B02D0022B07D01F
:1016600025E0019B043319460398FFF76BFF21E047
:10167000019B043319460398FFF77CFF1AE0019B96
:10168000043319460398FFF77BFF13E0019B9A8808
:10169000039B5B889A420CD1039B4FF6FF725A80E2
:1016A00007E000BF06E000BF04E000BF02E000BFAB
:1016B00000E000BF05B05DF804FBA8DF704700BF85
:1016C0001846ADDF704700BF1846AEDF704700BF59
:1016D000184662DF704700BF184600B58FB0019012
:1016E000009100230393019B5869009B9B8803AAE8
:1016F0001946FFF79EF90D9005AB08220021184608
:1017000006F0D9F804AB06930223ADF81430002399
:10171000ADF81630009B9888019B1B8A05AA1946D4
:10172000FFF7CFFF0D900D9B002B26D1019B9B69EE
:10173000002B22D0069B1846FFF7D8F90346002B52
:101740001BD0039B002B02D0039B01221A7007AB16
:1017500018220021184606F0AEF802238DF81C303E
:10176000019B0893009B9B88ADF82430039B0A9350
:10177000019B9B6907AA1046984700BF0FB05DF810
:1017800004FB00B58DB001900091009B06330B93D4
:10179000019B5869009B9B8803AA1946FFF749F9EA
:1017A0000A9004AB18220021184606F084F8019B29
:1017B0000593009B9B88ADF81830039B07930B9B08
:1017C0001A88019B1B899A4225D10B9B5B89022BAE
:1017D00021D1039B002B38D00B9B0C331846FFF70D
:1017E00085F90346002B06D0039B01221A700223C1
:1017F0008DF8103005E0039B00221A7003238DF84A
:101800001030019B9B69002B1FD0019B9B6904AA90
:101810001046984719E00B9B1A88019B9B899A42B6
:1018200014D1019B9B69002B10D000238DF8103040
:101830000B9B0C3308930B9B5B89ADF82430019B09
:101840009B6904AA1046984700E000BF00BF0DB096
:101850005DF804FB00B58BB001900091019B5869C5
:10186000009B9B8802AA1946FFF7E3F80990099BA1
:10187000002B1AD1029B1B78002B17D003AB182228
:101880000021184606F017F801238DF80C30019B53
:101890000493009B9B88ADF81430029B0693019B38
:1018A0009B6903AA1046984700E000BF0BB05DF8A3
:1018B00004FB00B585B001900091009B002B1ED069
:1018C000019B002B1BD0009B0393019B1B88572B74
:1018D00010D0572B15DC102B02D0502B05D010E068
:1018E00001990398FFF7F9FE0CE001990398FFF7BF
:1018F00048FF07E001990398FFF7ACFF02E000BF43
:1019000000E000BF05B05DF804FB000010B592B028
:10191000019000914F4B0AAC0FCB84E80F00019B64
:10192000002B01D10E2391E0009B002B01D10E234F
:101930008CE0009B1A68019B9A61019A0AAB1146E0
:101940001846FFF7C6FE1190119B1093109B002BB9
:1019500001D0109B7AE0019B1B788DF83A3001236F
:10196000ADF83830019B9A1C0EAB19460120FFF7E9
:10197000A4FE1190119B0F930F9B002B01D00F9B86
:1019800064E002AB20220021184605F094FF0223F8
:10199000ADF80830019B1B788DF80A30F423ADF8C0
:1019A0000C300123ADF80E3001238DF814309DF872
:1019B000153043F008038DF815309DF8153043F0CD
:1019C00004038DF8153001238DF8193001238DF8AB
:1019D0001A30019B5888019B03F10C0202AB194697
:1019E000FFF734F91190119B002B01D0119B2DE0D2
:1019F00002AB20220021184605F05DFF0323ADF85D
:101A00000830019B1B788DF80A30F423ADF80C30B8
:101A10000123ADF80E3001238DF814309DF81530F8
:101A200043F010038DF8153001238DF81930012390
:101A30008DF81A3001238DF81B30019B5888019BCB
:101A40001A1D02AB1946FFF701F90346184612B0FA
:101A500010BD00BF2496030000B58DB00390029125
:101A60000192ADF80230039B002B01D10E2342E01E
:101A7000039B5B6905AABDF802101846FEF7D9FF63
:101A80000B900B9B0A930A9B002B01D00A9B32E020
:101A9000BDF802304FF6FF72934202D0059B002B37
:101AA00001D1052327E0059B1B7883F00103DBB2FE
:101AB000002B01D008231EE0019B1B88F42B01D9C9
:101AC000072318E006AB10220021184605F0F3FEAC
:101AD000039B9B88ADF81830029B0993019B0893E8
:101AE00001238DF81A3006AABDF8023011461846B7
:101AF000FFF7EBFD034618460DB05DF804FB82B01E
:101B000003460091ADF80630BDF80630DAB2009B0E
:101B10001A70BDF806301B0A9AB2009B0133D2B28C
:101B20001A700223184602B07047A8DF704700BF42
:101B30001846000000B585B001900091009B002B75
:101B400014BF01230023DBB20393039B002B04D1BA
:101B5000354A4D210020F5F733FE019B002B14BFC1
:101B600001230023DBB20293029B002B04D12E4AF7
:101B70004E210020F5F724FE009BD3E90023D2B2CA
:101B8000019B1A70009BD3E900014FF000024FF057
:101B90000003020A42EA01620B0A01990131D3B241
:101BA0000B70009BD3E900014FF000024FF00003DF
:101BB000020C42EA01420B0C01990231D3B20B70C4
:101BC000009BD3E900014FF000024FF00003020E2A
:101BD00042EA01220B0E01990331D3B20B70009B34
:101BE000D3E900014FF000024FF000030A00002388
:101BF00001990431D3B20B70009B9A68019B0533A5
:101C0000D2B21A70009B9B681A0A019B0633D2B2AB
:101C10001A70009B9B681A0C019B0733D2B21A7092
:101C200000BF05B05DF804FB3496030000B587B033
:101C30000190009100238DF81730009B002B14BFFA
:101C400001230023DBB20493049B002B04D1314A0F
:101C500065210020F5F7B4FD019B002B14BF012383
:101C60000023DBB20393039B002B04D1294A662196
:101C70000020F5F7A5FD9DF817305A1C8DF81720A8
:101C80001A46019B1344009A12781A70009B5888D8
:101C90009DF81730019A13441946FFF730FF0346A9
:101CA0001A469DF8173013448DF81730009B98881A
:101CB0009DF81730019A13441946FFF720FF034699
:101CC0001A469DF8173013448DF81730009BD888BA
:101CD0009DF81730019A13441946FFF710FF034689
:101CE0001A469DF8173013448DF817309DF81730B9
:101CF000072B0CBF01230023DBB20293029B002BB6
:101D000004D1044A6E210020F5F75AFD00BF07B048
:101D10005DF804FB3496030000B58FB002911146C4
:101D20001A460346ADF80E300B46ADF80C3013469C
:101D30008DF80730029B002B14BF01230023DBB278
:101D40000D930D9B002B04D11F4A84210020F5F731
:101D500037FDBDF80C30002B14BF01230023DBB28C
:101D60000C930C9B002B04D1174A85210020F5F71A
:101D700027FD04AB20220021184605F09CFDBDF88C
:101D80000E30ADF81030BDF80C30ADF81430BDF8A1
:101D90000C30ADF81630029B06939DF81D3043F0D1
:101DA00002038DF81D309DF807308DF82130074B68
:101DB0001B8804A9109A1846FEF748FF03461846E8
:101DC0000FB05DF804FB00BF34960300B44100205F
:101DD00000B58BB0039001238DF8223041F60A0341
:101DE000ADF8203008AB764A19460120FFF79DFE7A
:101DF0000990099B002B01D0099BDCE0039B1B8809
:101E0000002B12D0039B5968039B1A88039B93F8FD
:101E10003C306C48009042F62920FFF77DFF099086
:101E2000099B002B01D0099BC5E0039B1B89002B5C
:101E300012D0039BD968039B1A89039B93F83C300B
:101E40006148009042F62420FFF766FF0990099B45
:101E5000002B01D0099BAEE0039B1B8A002B12D004
:101E6000039B5969039B1A8A039B93F83C3057489C
:101E7000009042F62520FFF74FFF0990099B002BA9
:101E800001D0099B97E0039B1B8B002B12D0039B77
:101E9000D969039B1A8B039B93F83C304C48009004
:101EA00042F62720FFF738FF0990099B002B01D04D
:101EB000099B80E0039B1B8C002B12D0039B596A6B
:101EC000039B1A8C039B93F83C304248009042F6E7
:101ED0002620FFF721FF0990099B002B01D0099BC9
:101EE00069E0039B1B8D002B12D0039BD96A039BD7
:101EF0001A8D039B93F83C303748009042F6282017
:101F0000FFF70AFF0990099B002B01D0099B52E0C3
:101F1000039B1B6B002B17D0039B1A6B06AB114660
:101F20001846FFF707FE039B93F83C3006A92B4A9F
:101F30000092082242F62320FFF7EEFE0990099B4B
:101F4000002B01D0099B36E0039B5B6B002B15D067
:101F5000039B5B6B1968039B5B6B1B799AB2039BBA
:101F600093F83C301E48009042F62A20FFF7D4FE3A
:101F70000990099B002B01D0099B1CE0039B9B6BE4
:101F8000002B17D0039B9A6B04AB11461846FFF742
:101F90004DFE039B93F83C3004A9124A009207229D
:101FA00042F65020FFF7B8FE0990099B002B01D0A4
:101FB000099B00E0002318460BB05DF804FB00BF4E
:101FC000B4410020B8410020C0410020C841002099
:101FD000D0410020D8410020E0410020E84100200D
:101FE000F0410020F841002082B003468DF8073010
:101FF0009DF8073003F01F0205499DF907305B0982
:10200000012000FA02F241F8232000BF02B070471D
:1020100000E100E082B003468DF807309DF80730FC
:1020200003F01F0206499DF907305B09012000FA01
:1020300002F2203341F8232000BF02B0704700BFF6
:1020400000E100E082B003468DF807309DF90730CB
:10205000002B0BDA0B4A9DF8073003F00F03043B0B
:1020600013441B7EDBB25B09DBB208E0064A9DF934
:102070000730134493F80033DBB25B09DBB2184638
:1020800002B0704700ED00E000E100E000B583B071
:102090000190019B002B03D10449C420F6F7EFFA0D
:1020A000019B5B68184603B05DF804FB8096030053
:1020B00010DF704700BF184611DF704700BF184699
:1020C00082B003468DF807309DF907301F2B0CDCDA
:1020D0009DF907300F4A22FA03F303F00103002BA6
:1020E00014BF01230023DBB210E09DF907303F2B22
:1020F0000BDC9DF90730203B012202FA03F3002B91
:1021000014BF01230023DBB200E00123184602B014
:10211000704700BFFC06FFBD82B00190019B072BFA
:1021200007D8EC22019B42FA03F303F00103002BD2
:1021300001D1002300E00123184602B070470000DF
:1021400000B583B003468DF807309DF90730184677
:10215000FFF7B6FF0346002B02D142F201032EE047
:102160009DF907301846FFF76DFF03461846FFF745
:10217000D3FF0346002B02D142F202031FE0124BB1
:102180009B68002B15D09DF907305B090E4A52F869
:1021900023209DF8073003F01F03012101FA03F308
:1021A00019469DF907305B090A43074941F8232086
:1021B00004E09DF907301846FFF716FF0023184684
:1021C00003B05DF804FB00BFE033002000B583B02E
:1021D00003468DF807309DF907301846FFF770FF6A
:1021E0000346002B02D142F201031FE0114B9B6812
:1021F000002B15D09DF907305B090E4A52F82310C9
:102200009DF8073003F01F03012202FA03F3DA43BB
:102210009DF907305B090A40064941F8232004E094
:102220009DF907301846FFF7F5FE0023184603B066
:102230005DF804FBE033002000B587B003468DF85D
:10224000073002AB14491846F7F7B8FB17E002ABAA
:102250001846FFF71BFF0590059B1B680493059B21
:1022600059689DF80720049B104698470346002BA9
:1022700001D111230BE002AB1846F7F7C9FB02AB03
:102280001846FFF703FF0346002BE0D10023184652
:1022900007B05DF804FB00BF2497030000B587B0CA
:1022A00003468DF8073002AB11491846F7F786FB55
:1022B00012E002AB1846FFF7E9FE0590059B1B688C
:1022C0000493059B59689DF80720049B1046984786
:1022D00002AB1846F7F79CFB02AB1846FFF7D6FE99
:1022E0000346002BE5D100BF00BF07B05DF804FB3B
:1022F0003097030000B583B01620FFF721FF01904F
:10230000019B0093009B002B04D0044AA12100985C
:10231000F5F756FA00BF03B05DF804FBDC96030046
:1023200000B583B01620FFF751FF0190019B009389
:10233000009B002B04D0044AAD210098F5F740FA29
:1023400000BF03B05DF804FBDC96030000B585B068
:10235000234B1B78002B01D008233CE0214B0122AA
:102360001A700020FFF768FF0346112B01D10023EC
:1023700031E00020FFF792FF1B4B1B680293002304
:102380008DF807300DF107031846F6F72BF902AB6D
:1023900016491846FFF78CFE0390039B002B0CBFD9
:1023A00001230023DAB20E4B1A709DF8073018464D
:1023B000F6F72EF9039B002B01D0039B0BE0094B92
:1023C00000221A700A4B00221A70FFF793FF0120B7
:1023D000FFF764FF0023184605B05DF804FB00BF5B
:1023E000004200200242002020970300DD77020017
:1023F0000142002000B583B01D4B1B7883F0010320
:10240000DBB2002B01D008232EE01A4B01221A70F8
:102410000120FFF711FF0346112B01D1002323E018
:102420000220FFF73BFF00238DF803300DF103037B
:102430001846F6F7D7F8FFF73FFE01900C4B002245
:102440001A709DF803301846F6F7E2F8019B002B4E
:1024500001D0019B08E0074B00221A70FFF760FFD4
:102460000320FFF71BFF0023184603B05DF804FBB1
:10247000004200200242002008B50B4B1B7883F07D
:102480000103DBB2002B01D008230AE0074B1B78C5
:10249000002B03D0FFF7AEFF034602E0FFF756FF25
:1024A0000346184608BD00BF02420020004200203B
:1024B000014B1B78184670470042002000B585B0DC
:1024C0006B4611491846F7F779FA10E06B46184643
:1024D000FFF7DCFD0390039B1B680293039B5A6884
:1024E000029B104698476B461846F7F791FA6B46E1
:1024F0001846FFF7CBFD0346002BE7D100BF00BF16
:1025000005B05DF804FB00BF3C97030008B5FFF77A
:10251000D5FF00BF08BD60DF704700BF184669DF08
:10252000704700BF184661DF704700BF18460000C3
:1025300000B583B00190019B002B03D10449C42056
:10254000F6F79DF8019B5B68184603B05DF804FB45
:102550004897030082B00190019B002B01D10E230C
:1025600004E0044B1A46019B1A600023184602B08F
:10257000704700BFA82A002010B586B0034600911E
:102580008DF807300098FFF7E5FF0590059B002BBD
:1025900001D0059BECE002AB0C220021184605F0AF
:1025A0008AF99DF807308DF8083001238DF80A303C
:1025B0000623ADF80C30009B1A6802AB19462020A8
:1025C000FFF7ADFF0590059B002B0FD06A4A6B4BC0
:1025D000D31ADB081B0443F001040598F7F74AFA05
:1025E00003461A4666492046F4F77AFB02AB0C22F2
:1025F0000021184605F05FF901238DF8093000230A
:102600008DF80A3000238DF80B30009B1A6802AB5E
:1026100019464020FFF783FF0590059B002B0FD044
:10262000554A564BD31ADB081B0443F001040598A6
:10263000F7F720FA03461A4652492046F4F750FBB2
:1026400002AB0C220021184605F035F99DF8073041
:102650008DF80830F723ADF80A30009B1A6802ABFA
:1026600019462320FFF75BFF0590059B002B0FD039
:10267000414A424BD31ADB081B0443F0010405987E
:10268000F7F7F8F903461A463F492046F4F728FBC6
:1026900002AB0C220021184605F00DF902238DF83B
:1026A0000830009B1A6802AB19460120FFF737FF7C
:1026B0000590059B002B0FD02F4A304BD31ADB0817
:1026C0001B0443F001040598F7F7D4F903461A46B2
:1026D0002E492046F4F704FB02AB0C2200211846D9
:1026E00005F0E9F84FF4B0630293009B1A6802AB5F
:1026F0001946A120FFF713FF0590059B002B0FD073
:102700001D4A1E4BD31ADB081B0443F00104059835
:10271000F7F7B0F903461A461D492046F4F7E0FAE8
:1027200002AB0C220021184605F0C5F89DF80830D0
:102730006FF300038DF80830009B1A6802AB19464E
:10274000A020FFF7ECFE0590059B002B0FD00A4A56
:102750000A4BD31ADB081B0443F001040598F7F772
:1027600089F903461A460B492046F4F7B9FA0023C3
:10277000184606B010BD00BFD08103006081030081
:10278000A8970300F09703003C9803008498030087
:10279000D09803002499030082B04FF08053D3F8FF
:1027A0000C319B020193019B03F10053184602B0C8
:1027B0007047000010B584B00190019B1B68039323
:1027C0000198FFF7A8FE0290019B1B68039A9A42AA
:1027D00029D2224A224BD31ADB081B0443F00203FE
:1027E00020491846F4F76EFA1C4A1D4BD31ADB0831
:1027F0001B0443F00200019B1B68039A1A49F4F77B
:1028000080FA164A164BD31ADB081B0443F0020465
:10281000FFF7C2FF0246019B1B68D31A1A461349F1
:102820002046F4F75DFA029B002B03D1104B0122E6
:102830001A700FE0094A0A4BD31ADB081B0443F055
:1028400001040298F7F716F903461A46094920468B
:10285000F4F746FA029B184604B010BDD08103007D
:102860006081030078990300A8990300DC990300B4
:1028700003420020089A030000B5ADF5077D86AB42
:10288000A3F505731860244B1B7883F00103DBB2BA
:10289000002B3BD14FF4FA73ADF806320DF206224D
:1028A00002AB11461846FFF73EFE8590859B002B34
:1028B00003D0859B052B22D129E002AB84937FAB0B
:1028C00016491846F7F77AF811E07FAB1846FFF77C
:1028D0002FFE8390839B1B688293839B5A68829B05
:1028E0001146849898477FAB1846F7F791F87FAB6D
:1028F0001846FFF71DFE0346002BE6D1CAE7084A3B
:1029000040F239118598F4F75BFF00E000BF0DF548
:10291000077D5DF804FB00BF03420020709A0300AE
:10292000289A030000B583B00190019B002B03D1CE
:102930000449C420F5F7A3FE019B5B68184603B069
:102940005DF804FB7C9A03004BDF704700BF18461C
:1029500000B589B0019004AB1846FFF7F5FF07906A
:10296000079B002B03D0079B052B20D124E002AB53
:1029700013491846F7F722F811E002AB1846FFF7A3
:10298000D1FF0690069B1B680593049A069B596825
:10299000059B1046984702AB1846F7F739F802AB8B
:1029A0001846FFF7BFFF0346002BE6D1D3E7054AE1
:1029B0006B210798F4F704FF00BF09B05DF804FB32
:1029C000249B0300DC9A030046DF704700BF1846D3
:1029D00000B583B000238DF80730084A084BD31A9E
:1029E000DB081B0443F00303022206491846F4F7F0
:1029F000E5F900BF03B05DF804FB00BFA081030050
:102A0000608103000442002000B595B003460291A6
:102A100001928DF80F30274A274BD31ADB081B048D
:102A200043F0030325491846F4F74CF99DF80F309D
:102A3000032B17D801A252F823F000BF4D2A030040
:102A4000532A0300592A03005F2A03001C4B1393E7
:102A500009E01C4B139306E01B4B139303E01B4B45
:102A6000139300E000BF05AB103310220299184603
:102A700004F0F8FE05AB10221399184604F0F2FE9C
:102A800005AB1846FFF7A0FF1290129B1193119B04
:102A9000002B04D00E4A51211198F4F791FE05AB9A
:102AA000203310221946019804F0DCFE00BF15B057
:102AB0005DF804FBA081030060810300709B0300AC
:102AC000309B0300409B0300509B0300609B03006E
:102AD0007C9B030082B003468DF807309DF80730D9
:102AE000012B03D09DF80730002B01D1012300E01A
:102AF0000023184602B0704782B003468DF80730B5
:102B00009DF80730002B01D0012300E00023184678
:102B100002B0704700B585B0019000230393019B7C
:102B200006221946064804F040FE0346002B01D158
:102B3000034B0393039B184605B05DF804FB00BFED
:102B40000842002000B583B01E4B1B691E4A934209
:102B50000ED101238DF807301C4A1D4BD31ADB0818
:102B60001B0443F003031B491846F4F7ABF818E0C5
:102B7000164A174BD31ADB081B0443F0030316490C
:102B80001846F4F79FF806220E490F4804F06AFE33
:102B90000D4B4FF0AB32DA6002F068FC03460A4A94
:102BA0009361084B9A79084B9A71064B1A89064B28
:102BB0001A819DF80730184600F010F800BF03B0E6
:102BC0005DF804FB3442002008420020A08103008D
:102BD00060810300F49C0300089D030000B59BB0D6
:102BE00003468DF8073000238DF867303E4A09AB65
:102BF00007CA83E8070007AB00221A605A6004ABDB
:102C000000221A605A609A609DF80730002B3BD072
:102C100031E002AB00221A605A6002AA04AB1146EE
:102C20001846F8F75BF91890189B002B23D10399ED
:102C30000CAB2822184604F015FE0CAB06222B49DB
:102C4000184604F0B2FD0346002B14D109AA04ABC8
:102C500011461846F8F78DF91890189B1793179B93
:102C6000002B04D0224AB8211798F4F7A9FD0123BC
:102C70008DF8673008E007AA04AB11461846F8F74C
:102C80008CF903460A2BC4D19DF8673083F0010309
:102C9000DBB2002B23D0174A174BD31ADB081B04D7
:102CA00043F003030B9A15491846F4F719F809ABDA
:102CB00019460020F8F74EF91690169B002B0ED0FF
:102CC0000C4A0D4BD31ADB081B0443F001000C4ADD
:102CD000169B52F823301A460A49F4F701F800BF50
:102CE0001BB05DF804FB00BF1C9D030008420020E0
:102CF000389C0300A081030060810300C09C030096
:102D0000942B0020D89C030000B583B003468DF8B7
:102D100007309DF80730022B1ED0022B28DC002B39
:102D200002D0012B0CD023E0194A1A4BD31ADB082E
:102D30001B0443F0030318491846F3F7C3FF23E0CD
:102D4000134A144BD31ADB081B0443F00303134943
:102D50001846F3F7B7FF17E00D4A0E4BD31ADB08FE
:102D60001B0443F001030E491846F3F7ABFF0BE0D9
:102D7000074A084BD31ADB081B0443F00303094935
:102D80001846F3F79FFF00BF00BF03B05DF804FBD8
:102D9000A081030060810300949D0300C49D030093
:102DA000E89D0300149E030000B583B001900091DC
:102DB000019B002B01D1054B019300990198FBF772
:102DC00031FA0346184603B05DF804FB949F0300F4
:102DD00000B58DB001908E4B1B788DF82930002303
:102DE0000B9300238DF82B300FE09DF82B305B0008
:102DF000019A1344B3F900301A460B9B13440B930A
:102E00009DF82B3001338DF82B309DF82B30012BA2
:102E1000EBD90B9BDA0F13445B109B0007EE903A43
:102E2000F8EEE77ACDED097ADDED097AFDEEE77A85
:102E300017EE903AADF82230BDF92230184604F072
:102E4000C9FB71A3D3E9002304F0DEFA02460B4666
:102E50001046194604F0ECFB034607936D4A6E4B8F
:102E6000D31ADB081B0443F00300BDF92220DDED7B
:102E7000077AFDEEE77A17EE903A1BB26749F3F74F
:102E800040FFBDF9223040F6C512934208DC002213
:102E90005F4B1A705E4B1B78DAB2614B9A70ACE0F4
:102EA000BDF9223040F65D42934208DB6422584B64
:102EB0001A70574B1B78DAB2594B9A709DE0002379
:102EC0008DF82A3092E0BDF922309DF82A2055492C
:102ED00031F81220934200F38480BDF922309DF82E
:102EE0002A2001324F4931F81220934279DB9DF8B4
:102EF0002A304C4A32F8133019469DF82A300133F3
:102F0000484A32F81330CB1A07EE903AF8EEE77AD7
:102F1000CDED067A9DF82A30434AD35C19469DF8D8
:102F20002A300133404AD35CCB1A07EE903AF8EED0
:102F3000E77ACDED057ADDED066A9DED057AC6EE00
:102F4000877ACDED047A9DF82A30374AD35C07EEB4
:102F5000903AF8EEE77A9DED047A67EE277ACDEDA8
:102F6000067A9DF82A302F4A32F813301A46BDF9F6
:102F70002230D31A07EE903AF8EEE77ACDED057AD3
:102F80009DED067ADDED057A77EE676A9DED047AB0
:102F9000C6EE877ACDED037ADDED037AFCEEE77AB3
:102FA000CDED007A9DF80030DAB2194B1A70184B4B
:102FB0001B78DBB29DF829209A421DD01B4B0122C1
:102FC0001A7000F0CBF8134A134BD31ADB081B041A
:102FD00043F00303164A128816491846F3F780FE99
:102FE0000AE09DF82A3001338DF82A309DF82A3006
:102FF0000E2B7FF668AF00E000BF00BF0DB05DF89C
:1030000004FB00BFAFF30080A8C64B378941E83FFF
:10301000A4440020A081030060810300B09E03004F
:10302000B0780020749F0300649F0300AC4400202C
:10303000482B0020CC9E030000B587B00190019B77
:103040001B78002B16D1019B5B6802211846FBF709
:10305000E7F90590059B0493049B002B04D0074AD5
:1030600080210498F4F7ACFB019B5B680393039801
:10307000FFF7AEFE00BF07B05DF804FBDC9E030067
:1030800000B589B01E4A01AB07CA03C31A700523F5
:103090008DF8083003238DF806301A490020FFF719
:1030A00083FE0790079B0693069B002B04D0164ACD
:1030B00091210698F4F784FB01AB19460020FBF739
:1030C0001DF90790079B0593059B002B04D00E4A22
:1030D00094210598F4F774FB02210C48FBF7A0F942
:1030E0000790079B0493049B002B04D0064A97216A
:1030F0000498F4F765FB00BF09B05DF804FB00BF5E
:10310000409F030039300300DC9E0300B0440020E0
:1031100008B5FFF7B5FF024B00221A7000BF08BDCB
:10312000A444002000B583B0FBF71EFA0190019B78
:10313000002B04D0044AA3210198F4F741FB00BFFF
:1031400003B05DF804FB00BFDC9E0300024B1B785C
:10315000DBB21846704700BFA4440020194B1B780F
:10316000DBB25A2B04D9184B4FF496721A8026E022
:10317000144B1B78DBB2462B03D9134BB4221A80B5
:103180001DE0104B1B78DBB2322B03D90E4B78229B
:103190001A8014E00B4B1B78DBB2142B03D90A4BBB
:1031A0003C221A800BE0074B1B78DBB20A2B03D9B9
:1031B000054B1E221A8002E0034B0A221A8000BF30
:1031C000704700BFA4440020482B002008B5164BD0
:1031D0001B680133144A1360134B1968134BA3FB8C
:1031E00001239A0813469B001344CA1A002A0DD1E2
:1031F0000F4A104BD31ADB081B0443F003030E499C
:103200001846F3F75FFD0D4B01221A700C4B1B881B
:103210001A46054B1B689A4204D8034B00221A60D9
:1032200002F05CF900BF08BDA8440020CDCCCCCC96
:10323000A0810300608103004C9F0300A878002058
:10324000482B002010B5D2B052ACA4F59674206083
:1032500052A8A0F59870016052A9A1F59A710A6070
:1032600052AAA2F59C7213600023519300234F933E
:103270000DE04F9B9B0052AAA2F596721268134470
:103280001B68519A134451934F9B01334F9352AB98
:10329000A3F598734F9A1B689A42EADB52ABA3F5E9
:1032A00098731B68519AB2FBF3F3519300234F9329
:1032B00011E04F9B9B0052AAA2F59672126813442C
:1032C0001A68519BD31A1946A14A4F9B42F8231002
:1032D0004F9B01334F9352ABA3F598734F9A1B68E2
:1032E0009A42E6DB00234F9323E0994A4F9B52F822
:1032F00023204F9B0133964951F823301A444F9BAA
:103300000233934951F823301A444F9B03339049B9
:1033100051F8233013443D933D9B002B00DA0333D7
:103320009B1019468A4A4F9B42F823104F9B01334A
:103330004F934F9BB3F5F87FD7DB00234F9310E0FB
:103340004F9B0133824A52F8232081494F9B51F809
:103350002330D21A7F494F9B41F823204F9B0133E2
:103360004F934F9BB3F5F77FEADD00234F9314E0B3
:10337000784A4F9B52F823204F9B0133754951F8EF
:1033800023301344DA0F13445B101946714A4F9BE4
:1033900042F823104F9B01334F934F9BB3F5F77FB8
:1033A000E6DB00234D9329E000234C934D9B4F9384
:1033B00011E0684A4F9B52F823304F994D9A8A1A70
:1033C000654931F8122002FB03F34C9AD31A4C934F
:1033D0004F9B01334F934D9B04334F9A9A42E8DD44
:1033E0004C9B5E4A82FB03125212DB17D21A5949D8
:1033F0004D9B41F823204D9B01334D934D9BB3F5DD
:10340000F47FD1DD00234A9300234F930CE0514A0F
:103410004F9B52F82330002BB8BF5B424A9A1344AB
:103420004A934F9B01334F934F9BB3F5F77FEEDDEC
:103430004A9B4B4A82FB03129211DB17D31A4A9321
:103440003BA90EA803230293322301934A9B0093C6
:1034500040F2EF133F4A00F0CDFA002348933B9B24
:10346000012B2BDD01234F9313E052ABA3F588739F
:103470004F9A53F822204F9B591E52ABA3F58873E5
:1034800053F82130D31A489A134448934F9B013381
:103490004F933B9B4F9A9A42E7DB3B9B013B489AF9
:1034A00092FBF3F3489341F27072489B92FBF3F264
:1034B000559B1A60569B01221A7005E0559B294ABC
:1034C0001A60569B00221A7000234F930FE052ABF4
:1034D000A3F588734F9A53F822309A1C4F9B9B0098
:1034E00052A90B4443F8982C4F9B01334F933B9BBD
:1034F0004F9A9A42EBDB00234F931CE04F9B9B00BB
:1035000052AAA2F59672126813441B681946104A13
:103510004F9B42F823104F9B9B0052AAA2F59A7230
:10352000126813441B6819460F4A4F9B42F8231038
:103530004F9B01334F9352ABA3F598734F9A1B687F
:103540009A42DBDB00234B9300234F934EE000BFF6
:10355000744C0020B4440020989F0300ED9B5F72E0
:103560006757192119FCFFFF445400200123509391
:103570004F9B9B0052AA134453F8983C3C934FF046
:10358000807349933C9BB3F5F57F2CDA3C9B052B6C
:1035900029DD3C9B053B4D931AE06A4A4D9B52F84E
:1035A0002330499A9A4210DD509B002B01D0002312
:1035B0005093644A4D9B52F8233049934F9B9B0094
:1035C00052AA13444D9A43F8D42C4D9B01334D938A
:1035D0003C9B04334D9A9A42DFDD509B002B02D175
:1035E0004B9B01334B934F9B01334F933B9B4F9A24
:1035F0009A42BBDB4B9B012B09DC52ABA3F59C73BE
:103600001B68514A1A60549B00221A70E4E100239F
:103610004F9340E04B4A4F9B52F823204F9B01337E
:10362000484951F823301A444F9B0233454951F819
:1036300023301A444F9B0333424951F8233013443B
:10364000002B00DA03339B1019463E4A4F9B42F889
:1036500023103E4A4F9B52F823204F9B01333B4996
:1036600051F823301A444F9B0233384951F8233024
:103670001A444F9B0333354951F823301344002B30
:1036800000DA03339B101946304A4F9B42F823104F
:103690004F9B01334F934F9BB3F5F87FBADB002369
:1036A000419300234E9300234F9309E052ABA3F5BF
:1036B00092734F9A002143F822104F9B01334F938E
:1036C0004F9B042BF2DD00234F9315E04F9B9B0093
:1036D00052AA134453F8D43CB3F5FA7F09DD52AB38
:1036E000A3F59C731B68184A1A60549B00221A7039
:1036F00072E14F9B01334F934F9A4B9B9A42E5DB0C
:1037000000234F93F9E04FF07F4345934FF07F4301
:1037100044934F9B01339B0052AA134453F8D42C7B
:103720004F9B9B0052A90B4453F8D43CD31A0A2B4D
:1037300040F3E0804F9B9B0052AA134453F8D43CC3
:103740004D9324E0744C002019FCFFFF44540020EA
:10375000A24A4D9B52F82330449A9A4206DA9F4A75
:103760004D9B52F8233044934D9B42939C4A4D9B72
:1037700052F82330459A9A4206DA994A4D9B52F8FC
:10378000233045934D9B43934D9B01334D934F9B6A
:1037900001339B0052AA134453F8D43C4D9A9A42E9
:1037A000D6DB4F9B01339B0052AA134453F8D43C01
:1037B0008B4A52F823204F9B9B0052A90B4453F88D
:1037C000D43C874951F82330D21A4F9B9B0052A911
:1037D0000B4453F8D43C4399CB1A02FB03F34793B1
:1037E0004F9B9B0052AA134453F8D43C7C4A52F896
:1037F00023204F9B01339B0052A90B4453F8D41C48
:103800004F9B9B0052A8034453F8D43CCB1A4799D2
:1038100091FBF3F313444793714A439B52F82320DF
:10382000479BD31A47934F9B01339B0052AA1344E3
:1038300053F8D43C694A52F823204F9B9B0052A96D
:103840000B4453F8D43C654951F82330D21A4F9BAE
:103850009B0052A90B4453F8D43C4299CB1A02FB6B
:1038600003F346934F9B9B0052AA134453F8D43C56
:103870005A4A52F823204F9B01339B0052A90B4414
:1038800053F8D41C4F9B9B0052A8034453F8D43CDC
:10389000CB1A469991FBF3F3134446934F4A439B4B
:1038A00052F82320469BD31A4693479B449A02FB27
:1038B00003F3DB113E93469B459A02FB03F3DB11B6
:1038C0003D933D9B002B15DD4E9B042B12DC3E9B54
:1038D000002B0FD03E9B642203FB02F23D9B92FB28
:1038E000F3F152ABA3F592734E9A43F822104E9B1C
:1038F00001334E934F9B01334F934B9B013B4F9AA8
:103900009A42FFF600AF449B002B0ED0469B07EE79
:10391000903AF8EEE76A449B07EE903AB8EEE77A01
:10392000C6EE877A2F4BC3ED007A459B002B0ED055
:10393000479B07EE903AF8EEE76A459B07EE903A10
:10394000B8EEE77AC6EE877A274BC3ED007A09AB6B
:103950004E99184600F03CF94E9BDA0F13445B1069
:103960004093409B012B12DD409B5A1E52ABA3F5A6
:10397000927353F8222052ABA3F59273409953F8F7
:1039800021301344DA0F13445B10419306E052AB2D
:10399000A3F59273409A53F822304193419B022B36
:1039A00011DD419BB72B0EDC104A419B13441B7861
:1039B0003F9352ABA3F59C731B683F9A1A60549BCC
:1039C00001221A7008E052ABA3F59C731B68084AE9
:1039D0001A60549B00221A7052B010BD744C002023
:1039E00044540020145C0020185C0020D89F030081
:1039F00019FCFFFF00B587B0059004910392029374
:103A0000089B0093029B039A0499059800F012F812
:103A1000099B039A0499059800F07BF8049B1A68A7
:103A20000A9B9A42A8BF1A46049B1A6000BF07B0BF
:103A30005DF804FB86B0039002910192009301238C
:103A40000593029B00221A605AE0059B9B00019A95
:103A500013441B68069A9A424FDA059B9B00019A11
:103A600013441A68059B03F18043013B9B000199B5
:103A70000B441B689A4240DD0123049302E0049B3F
:103A800001330493059A049B1344009A9A420DDD76
:103A9000059B9B00019A13441A680599049B0B44EB
:103AA0009B0001990B441B689A42E8D0059B9B0040
:103AB000019A13441A680599049B0B449B000199D1
:103AC0000B441B689A4213DD029B1B680E2B0FDC14
:103AD000029B1B68591C029A11609B00039A1344B5
:103AE000059A1A60049B0133059A1344059303E079
:103AF000059A049B1344059302E0059B013305934B
:103B0000009B013B059A9A429FDB00BF00BF06B0B5
:103B1000704700B589B00390029101920093029B17
:103B20001B681A460399019800F090F84FF0FF3394
:103B300007933EE0029B1B680593079B5A1C029B60
:103B40001A60079B013306932CE0069B9B00039AA7
:103B500013441A68079BB3F1FF3F05D0079B9B00F6
:103B600003990B441B6801E04FF0FF33D31A049311
:103B7000049A009B9A4204DC009B5B42049A9A429E
:103B80000DDA069B9B00039A1A44029B1B68581C83
:103B9000029908609B0003990B4412681A60069B07
:103BA00001330693069A059B9A42CEDB079B0133AD
:103BB0000793029B1B68079A9A42BBDB029B1B6818
:103BC0001946039800F004F800BF09B05DF804FB43
:103BD00086B001900091012305932FE0059B9B0087
:103BE000019A13441B680393059B04930FE0049B05
:103BF00003F18043013B9B00019A1A44049B9B0004
:103C000001990B4412681A60049B013B0493049BC6
:103C1000002B0ADD049B03F18043013B9B00019ACA
:103C200013441B68039A9A42E1DB049B9B00019AB0
:103C30001344039A1A60059B01330593059A009B70
:103C40009A42CBDB00BF00BF06B0704788B003903C
:103C5000029101920123079337E0079B9B00029A90
:103C600013441B680593079B06930FE0069B03F123
:103C70008043013B9B00029A1A44069B9B000299D9
:103C80000B4412681A60069B013B0693069B002BAF
:103C900012DD059B9B00039A13441A68069B03F1EF
:103CA0008043013B9B0002990B441B689B000399D6
:103CB0000B441B689A42D9DC069B9B00029A134472
:103CC000059A1A60079B01330793079A019B9A4252
:103CD000C3DB00BF00BF08B0704700000000000059
:103CE00000B583B0144BD3F8043523F07F4307EEBF
:103CF000903AF8EE677ACDED017A019803F07EFCF8
:103D00000BA3D3E9002303F07FFB02460B461046CA
:103D1000194603F08DFC03460193DDED017AFCEEBC
:103D2000E77A17EE903A184603B05DF804FB00BF3F
:103D3000B81E85EB5178404000B00040044BD3EDF5
:103D4000007A9FED047A67EE877AB0EE670A7047D3
:103D5000145C00200050C347044BD3ED007A9FED64
:103D6000047A67EE877AB0EE670A7047185C002025
:103D70000050C34700B583B00190019B1B681F2B07
:103D800004D905494FF4E870F4F779FC4FF0A043EB
:103D9000184603B05DF804FB90A0030000B585B0A1
:103DA0000190084611461A4603468DF803300B462B
:103DB0008DF8023013468DF8013001AB1846FFF73D
:103DC000D9FF03909DF803209DF802305B001A4351
:103DD0009DF801309B001A439DF818301B0242EAFF
:103DE00003019DF81C301B04019A1943039B02F543
:103DF000E07243F8221000BF05B05DF804FB00B587
:103E000085B003900B468DF80B3013468DF80A30C1
:103E10009DF80B209DF80A30019300230093134670
:103E2000002200210398FFF7B9FF00BF05B05DF83D
:103E300004FB00B585B0019001AB1846FFF79AFF6F
:103E40000390019B012202FA03F31946039800F044
:103E500018F800BF05B05DF804FB00B585B001900F
:103E600001AB1846FFF786FF0390019B012202FA7F
:103E700003F31946039800F00EF800BF05B05DF893
:103E800004FB82B001900091019B009AC3F80825C1
:103E900000BF02B0704782B001900091019B009A70
:103EA000C3F80C2500BF02B0704708B51920FFF712
:103EB000C0FF00BF08BD08B51920FFF7CEFF00BF47
:103EC00008BD08B51420F8F75BFD1420F8F796FD3F
:103ED000F8F7E2FC00BF184608BD08B50222012130
:103EE0001420FFF78CFF00BF08BD08B5FFF7E9FFFE
:103EF000FFF7F3FF00BF08BD00B589B0059003923E
:103F00001A460B468DF8133013468DF812300023F5
:103F10000793059B181D9DF812209DF813109DF81E
:103F2000283000931346039AF9F7BEFA0790079BCF
:103F3000184609B05DF804FB00B587B00390019204
:103F40001A460B468DF80B3013468DF80A300023C5
:103F50000593039B181D9DF80A309DF80B10019ADC
:103F6000F9F7CAFA0590059B184607B05DF804FBFF
:103F700000B589B003460A468DF80F3013468DF818
:103F80000E309DF80F308DF814309DF80E308DF8FE
:103F9000153005AA00230093022357210B48FFF791
:103FA000ABFF0790079B0693069B002B04D0084AA3
:103FB00051210698F3F704FC079B002B14BF012343
:103FC0000023DBB2184609B05DF804FB48A20300E9
:103FD000B4A1030000B589B0034602918DF80F30FB
:103FE0000DF10F0201230093012357211448FFF71D
:103FF00083FF0790079B0693069B002B04D0114A72
:1040000066210698F3F7DCFB0123029A57210C483E
:10401000FFF792FF0790079B0593059B002B04D0A9
:10402000084A69210598F3F7CBFB079B002B14BFC7
:1040300001230023DBB2184609B05DF804FB00BF82
:1040400048A20300B4A1030008B5C0210220FFF775
:104050008FFF00210320FFF78BFF00210420FFF7D3
:1040600087FF00210520FFF783FF00210620FFF7CF
:104070007FFF0F210820FFF77BFF03210920FFF7B7
:1040800077FF27210A20FFF773FF24210C20FFF779
:104090006FFF24210D20FFF76BFF7F211020FFF71A
:1040A00067FF0123184608BD00B58BB0039002914D
:1040B000039B00221A60029B00221A600DF1170375
:1040C00019460020FFF786FF0DF11703194601205E
:1040D000FFF780FF07238DF8103004AA0123009317
:1040E000012357215748FFF707FF0990099B0893C1
:1040F000089B002B04D0544ADC210898F3F760FB9E
:1041000004AA062357214F48FFF716FF0990099B81
:104110000793079B002B04D04B4ADF210798F3F746
:104120004FFB9DF810300693069B1B040693039BE0
:104130001A68069B1A44039B1A609DF81130069377
:10414000069B1B020693039B1A68069B1A44039B5B
:104150001A609DF812300693039B1A68069B1A4456
:10416000039B1A609DF813300693069B1B0406936D
:10417000029B1A68069B1A44029B1A609DF8143031
:104180000693069B1B020693029B1A68069B1A4421
:10419000029B1A609DF815300693029B1A68069BD5
:1041A0001A44029B1A60039B1B68C3F31102039B12
:1041B0001A60029B1B68C3F31102029B1A60234B17
:1041C0001B78DBB2002B38D09DF81330204A1278D0
:1041D00003F00303D9B21F4B03F822101C4B1B78CA
:1041E0009DF814101B4A9B0013440A465A70184B42
:1041F0001B789DF81510174A9B0013440A469A70C5
:10420000134B1B78134A9B0013440122DA70104BA6
:104210001B780133DAB20E4B1A700D4B1B78112B41
:104220000BD906E000F0C8FE0B4B01221A7002F019
:1042300045FC074B1B78052BF4D8012318460BB01F
:104240005DF804FB48A20300B4A10300287100201C
:1042500058610020D8600020CA73002008B54021B2
:104260000920FFF785FE0123184608BD00B585B07B
:104270000190019B002B0AD0074B43F001030393ED
:10428000019B9B010293039B0298984700E000BFAB
:1042900005B05DF804FB00BFC0A2030000B583B009
:1042A0000190019B1B681F2B04D905494FF4E8704E
:1042B000F4F7E5F94FF0A043184603B05DF804FBAE
:1042C00058A2030000B585B0019001AB1846FFF776
:1042D000E5FF0390039800F00AF80246019B22FADA
:1042E00003F303F00103184605B05DF804FB82B048
:1042F0000190019BD3F81035184602B0704700B505
:1043000083B00190019B002B0AD04FF47A70FFF725
:10431000ADFF019B013B0193019B002BF5D100E018
:1043200000BF03B05DF804FB10B584B0FFF7BDFD1E
:10433000C820FFF7E4FFFFF791FF44490020FFF793
:1043400049FEFFF781FE424B424A1A60424B00226F
:104350001A60424B4FF4FA721A60414B00221A6005
:1043600039E000BF0C20FFF7ADFF0346012BF9D069
:104370003B4B1B689B003B4A1A44394B1B689B0014
:1043800039490B4419461046FFF78EFE344B1B6823
:10439000344A52F823202E4B1B689A4206D2304BE7
:1043A0001B68304A52F82330294A13602C4B1B6893
:1043B0002C4A52F82320284B1B689A4206D9284BD6
:1043C0001B68284A52F82330234A1360244B1B6889
:1043D0000133234A1360224B1A68204B1B689A4210
:1043E000BFDB1F4B1B681F4A52F823301F4A136064
:1043F0001A4B19681E4B02931E4B01931E4B0093E0
:104400001E4B184A1848FEF71DFF1D4A1D4BD31AB4
:10441000DB081B0443F00300164B1B681946144BC2
:1044200093F900301C46154B1B681A46124B93F942
:1044300000300193009223460A461349F2F78BFCA1
:104440006420FFF75CFF00BF04B010BD0D710020B9
:1044500010710020FFFF0300147100202C69002060
:104460001C710020306900205C6100201871002060
:104470000C710020087100200471002000710020E0
:10448000A08103006081030088A2030008B5FFF744
:1044900012FD00BF08BD000010B584B0584B0022CB
:1044A0001A60584B584A1A60584B00221A60544BF5
:1044B00064221A603AE0524B1A68514B1B68643B05
:1044C000534951F82220524941F823204C4B1A6895
:1044D0004B4B1B68643B4F4951F822204D4941F832
:1044E0002320474B1B684A4A52F82320454B1B6840
:1044F0009A4206D2424B1B68454A52F82330414A41
:1045000013603F4B1B68424A52F823203F4B1B6805
:104510009A4206D93A4B1B683D4A52F823303B4A2F
:104520001360374B1B680133354A1360344B1B68EB
:10453000B3F5FA7FBFDB324B4FF4C8721A6021E04B
:104540002F4B1B68013B324A52F82330324A13602A
:1045500000BF0C20FFF7B6FE0346012BF9D0284B15
:104560001B689B002A4A1A44254B1B689B0029495B
:104570000B4419461046FFF797FD214B1B6801338A
:104580001F4A13601E4B1B68B3F5FA7FD8DB234B21
:104590001968234B0293234B0193234B0093234B26
:1045A0001B4A1C48FEF74EFE204B1B6807EE903A54
:1045B000F8EEE77A1E4BC3ED007A1A4B1B681D4AD2
:1045C00013601D4A1D4BD31ADB081B0443F0030084
:1045D000144B1B681946124B93F900301C46134BC1
:1045E0001B681A46104B93F9003001930092234642
:1045F0000A461349F2F7AFFB00BF04B010BD00BF7D
:104600001C71002010710020FFFF030014710020B6
:10461000306900205C610020187100202C690020A6
:104620000C7100200871002004710020007100202E
:104630002071002024710020A0810300608103000C
:1046400088A20300034B1B6807EE903AB0EE670A9E
:10465000704700BF20710020014B1B68184670474F
:1046600024710020084BD3ED007AB2EE027A27EED7
:10467000877AF1EE046AC7EE267A9FED047A77EE28
:10468000877AB0EE670A70472C7100200000004264
:1046900000B585B00DF10E031946012000F06CF84D
:1046A000BDF80E3003F40053002B22D000BFF2F708
:1046B00035FC0346002BFAD10023ADF80E300DF186
:1046C00002031946002000F057F8BDF802301846E2
:1046D00002F080FF4FF000024FF07E5302F0F8FD31
:1046E00002460B461046194602F0A2FF0346034A53
:1046F000136000BF05B05DF804FB00BF2C71002003
:1047000000B589B0059003921A460B468DF8133018
:1047100013468DF8123000230793059B181D9DF852
:1047200012209DF813109DF8283000931346039A29
:10473000F8F7BAFE0790079B184609B05DF804FB2E
:1047400000B587B0039001921A460B468DF80B30E6
:1047500013468DF80A3000230593039B181D9DF81E
:104760000A309DF80B10019AF8F7C6FE0590059BDC
:10477000184607B05DF804FB00B589B00346029106
:104780008DF80F300DF10F02012300930123482112
:104790001748FFF7B5FF0790079B0693069B002B72
:1047A00004D0144A4D210698F3F70AF804AA02230C
:1047B00048210F48FFF7C4FF0790079B0593059B0F
:1047C000002B04D00B4A50210598F2F7F9FF9DF811
:1047D00010301B021AB29DF811301BB213431BB2EA
:1047E0009AB2029B1A80079B184609B05DF804FB39
:1047F00068A30300F8A203006DDF704700BF1846EE
:1048000000B585B00190584B1B788DF80F30564B92
:10481000DB7C8DF80E309DF80F30422B03D19DF8D4
:104820000E30532B01D000239AE04F4B5B788DF86C
:104830000D309DF80D30433B152B00F2908001A206
:1048400052F823F0BB4803005F4903005F490300AF
:104850001F4903005F4903005F4903009D480300AF
:104860005F4903005F4903005F4903005F4903009C
:104870005F4903005F4903001549030041490300F4
:10488000F74803000B490300D948030029490300F6
:104890005F4903005F49030001490300019B0622B1
:1048A0001A70019B09225A70019B023309222F4979
:1048B000184602F0D7FF012352E0019B07221A702D
:1048C000019B11225A70019B02331122274918467D
:1048D00002F0C8FF012343E0019B08221A70019BEC
:1048E00006225A70019B023306222049184602F024
:1048F000B9FF012334E0019B09221A7001232FE044
:10490000019B0A221A7001232AE0019B0B221A70D4
:10491000012325E0019B0C221A70012320E0019B5A
:104920000D221A7001231BE0019B0E221A70019BBD
:1049300001225A700C4B9A78019B9A7001230FE068
:10494000019B0F221A70019B09225A70019B0233AE
:1049500009220649184602F085FF012300E00023E2
:10496000184605B05DF804FB8C7300208E730020A0
:1049700000B585B00190019B1B788DF80F309DF834
:104980000F30063B092B00F28F8001A252F823F072
:10499000B9490300D1490300E9490300014A030072
:1049A000194A0300314A0300494A0300614A0300DF
:1049B000794A0300914A0300434A444BD31ADB0867
:1049C0001B0443F0030342491846F2F77BF977E0F2
:1049D0003D4A3E4BD31ADB081B0443F003033D4919
:1049E0001846F2F76FF96BE0374A384BD31ADB08F9
:1049F0001B0443F0030338491846F2F763F95FE0FC
:104A0000314A324BD31ADB081B0443F0030333490A
:104A10001846F2F757F953E02B4A2C4BD31ADB0810
:104A20001B0443F003032E491846F2F74BF947E005
:104A3000254A264BD31ADB081B0443F003032949FC
:104A40001846F2F73FF93BE01F4A204BD31ADB0828
:104A50001B0443F0030324491846F2F733F92FE00F
:104A6000194A1A4BD31ADB081B0443F003031F49EE
:104A70001846F2F727F923E0134A144BD31ADB0840
:104A80001B0443F003031A491846F2F71BF917E019
:104A90000D4A0E4BD31ADB081B0443F003031549E0
:104AA0001846F2F70FF90BE0074A084BD31ADB0858
:104AB0001B0443F0030310491846F2F703F900BF43
:104AC00000BF05B05DF804FBA08103006081030016
:104AD0002CA7030048A7030064A7030084A70300D2
:104AE000A8A70300C8A70300E8A7030008A80300BD
:104AF00024A8030048A803006CA8030000B585B0F3
:104B00000190019B1B788DF80E3001238DF80F303A
:104B10009DF80E30013B0E2B79D801A252F823F0FC
:104B2000D94B0300E74B0300F54B0300014C030096
:104B3000074C03005D4B0300714B0300794B0300EE
:104B4000A34B0300B74B0300874B0300954B0300B7
:104B50000F4C03000F4C0300C54B030000238DF8DE
:104B60000F30019800F080F803468DF80F304FE0C9
:104B700000238DF80F304BE000238DF80F30314BC0
:104B800001221A7044E000238DF80F302E4B0122D1
:104B90001A703DE02D4B01221A7000238DF80F3062
:104BA00036E000238DF80F30294B01221A70294B73
:104BB0000122DA702CE0284B01221A7000238DF8B4
:104BC0000F3025E0019800F0CDF803468DF80F3046
:104BD00000238DF80F301BE0019800F0ADFA03467A
:104BE0008DF80F3014E0019800F0FCFA03468DF8C0
:104BF0000F300DE000F050FB03468DF80F3007E05A
:104C0000164B01221A70019800F04AFB00E000BF29
:104C10009DF80F30002B10D19DF80E30002B07D0DF
:104C20009DF80E30052B03D80D4B01221A7002E0BF
:104C30000C4B01221A70012300E00023184605B036
:104C40005DF804FBCC730020CD730020CE730020F0
:104C5000CF73002030420020D0730020D173002099
:104C6000CB730020CA73002000B585B001900123EA
:104C70008DF80B30019B0233039314220021354839
:104C800002F019FE06220399324802F0EBFD039B65
:104C900006330393039B1A782E4B9A71039B0133BF
:104CA0000393039B1B789BB21A46920013445B004C
:104CB0009AB2284B1A81039B01330393254B1A891F
:104CC000039B1B789BB213449AB2224B1A81224A4F
:104CD000224BD31ADB081B0443F003001D4B9B79C6
:104CE0001A461C4B1B891E49F2F70BF8194B9B798E
:104CF0001846FDF7EFFE034683F00103DBB2002BFD
:104D000005D0144B01229A7100238DF80B30114B02
:104D10001B89DBB21846FDF7EFFE034683F0010363
:104D2000DBB2002B05D00B4B07221A8100238DF834
:104D30000B300848FDF7EEFE0346064A13619DF866
:104D40000B30184600F0A2F80023184605B05DF8B5
:104D500004FB00BF34420020A081030060810300F7
:104D600080A8030000B585B0019001238DF80F30B5
:104D700001238DF80E30019B023302930922029920
:104D80000E4802F06FFD0E4A0E4BD31ADB081B04CF
:104D900043F00303094A0C491846F1F7A1FF9DF8B7
:104DA0000E301846FDF71AFF9DF80F30184600F038
:104DB00057F80023184605B05DF804FB2442002094
:104DC000A08103006081030094A80300084B1B78B6
:104DD000DBB2002B04D1074B1B78DBB2002B01D0D8
:104DE000012300E0002303F00103DBB21846704703
:104DF000C9730020C873002000B583B0134B1B7823
:104E0000DBB2002B1ED0114B00221A701048FFF7A6
:104E1000F7FC03468DF807309DF80730002B06D0CD
:104E20000B48FFF7A5FD0A48FFF768FE0AE0094AAC
:104E3000094BD31ADB081B0443F003030749184648
:104E4000F1F740FF00BF03B05DF804FBC973002019
:104E5000D4730020A081030060810300A8A8030090
:104E600082B003468DF80730074B42221A70064B7A
:104E700051225A70044B5322DA74034B4F229A701A
:104E800000BF02B0704700BFB473002000B585B00A
:104E900003468DF8073014220021384802F00BFD3C
:104EA000364B42221A70354B49225A70334B5322EB
:104EB000DA74334B1B69002B0CD1304B4E229A70A5
:104EC0002E4B01221A722D4B00225A722B4B0722B5
:104ED0009A7212E0294B52229A70294B9A79274BE9
:104EE0001A72274B1B891B0A9BB2DAB2234B5A72E8
:104EF000234B1B89DAB2214B9A72FDF769FD214BD6
:104F00001A781E4BDA701F4B5A781C4B1A711E4BC5
:104F1000DB781A46194B5A711B4B9B781A46174B74
:104F20009A711A4B1A7C154BDA7102AB1846FFF7CF
:104F300063FC9DF80E20114BDA729DF80D200F4B8B
:104F40001A739DF80C200D4B5A739DF80B200B4BD8
:104F50009A739DF80A20094BDA739DF80920074BD4
:104F60001A74064B4F225A74044B01229A74FDF7AF
:104F7000E9FD00BF05B05DF804FB00BFB47300207D
:104F80003442002004420020304200200842002029
:104F900008B514220021074802F08DFC054B42227F
:104FA0001A70044B5322DA74024B57225A7000BF16
:104FB00008BD00BFB473002000B583B014220021E7
:104FC000254802F078FC244B53221A70224B4522CC
:104FD000DA7401238DF80730204B00221A70002369
:104FE0008DF8063022E09DF807301B4A98181B4BBD
:104FF0001B789B001A4A13440322194602F032FC24
:105000009DF8073003338DF80730144B1B780133BC
:10501000DAB2124B1A70134B1B78013BDAB2114B08
:105020001A709DF8063001338DF806309DF8063071
:10503000052BD8D90C4A0D4BD31ADB081B0443F0BF
:105040000303084A12780A491846F1F749FE00BFDF
:1050500003B05DF804FB00BFB47300205961002069
:10506000D860002058610020A08103006081030007
:105070002CA9030000B52DED028B83B01422002172
:105080002B4802F018FC2A4B52221A70284B45225A
:10509000DA74FFF7E1FA0346DAB2254B5A70FFF7EC
:1050A000D1FAF0EE407AFCEEE77ACDED017A9DF888
:1050B0000430DAB21E4B9A70FEF748F803461A46DF
:1050C0001B4BDA701A4B5B78002B07D0184B9B7880
:1050D000002B03D0164B01221A7102E0144B002260
:1050E0001A71FFF7BFFAF0EE407AFCEEE77ACDEDE9
:1050F000017A9DF80430DAB20D4B5A71FEF71EFEAC
:10510000F0EE407ABCEEE78AFEF726FEF0EE407A3B
:10511000FCEEE77A17EE903A18EE102A054904489B
:1051200002F07AFB00BF03B0BDEC028B5DF804FB1C
:10513000B473002048A9030000B583B00190142285
:105140000021214802F0B7FB1F4B42221A701E4B70
:105150005A22DA741C4B55225A70019B02330622E4
:1051600019461A4802F021FB0346002B0ED0184ABC
:10517000184BD31ADB081B0443F0030316491846E7
:10518000F1F7A0FD104B4F229A7017E00E4B4F2203
:105190009A700F4A0F4BD31ADB081B0443F003032A
:1051A0000E491846F1F78EFDFDF712FC0C4B1A78EC
:1051B000054BDA700A4B5A78034B1A7100231846D4
:1051C00003B05DF804FB00BFA0730020084200207C
:1051D000A08103006081030054A903006CA90300AF
:1051E0000442002000B58DB00190019B02330B9367
:1051F00003AB06330A223021184602F05CFB03ABF6
:1052000006222149184602F02DFB204B1B788DF811
:105210000C301E4B5B788DF81B3007AA03AB194688
:105220000320FDF7F1FB14220021194802F043FB93
:10523000174B42221A70164B5A22DA74144B43222F
:105240005A7007AB10220B99184602F0AEFA0346CB
:10525000002B03D10E4B4F229A7002E00C4B4F22D1
:105260009A700B4B4F22DA70094B01221A710B9B7B
:1052700006330A221946074802F0F4FA00231846BA
:105280000DB05DF804FB00BF08420020044200207E
:10529000A0730020A9730020002318467047000067
:1052A00082B00190064B00221A70019B9B784B2B19
:1052B00002D1034B01221A7000BF02B0704700BF39
:1052C000D273002041DF704700BF184600B583B09D
:1052D000FFF7F8FF0190019B0093009B002B04D087
:1052E000044A33210098F2F76BFA00BF03B05DF86F
:1052F00004FB00BFD0A9030000B583B003468DF8BE
:1053000007309DF80730022B18D10F4A0F4BD31AE4
:10531000DB081B0443F003030D491846F1F7D2FCE8
:1053200000BF094A094BD31ADB081B0443F00303EF
:1053300008491846F1F7C6FC012300E0012318468E
:1053400003B05DF804FB00BFA0810300608103008F
:105350003CAA03006CAA030082B001900B468DF8B2
:1053600003309DF80320019B13441A460123136068
:1053700000BF02B0704700B583B00190019B1B686D
:1053800008211846FFF7E8FF00BF03B05DF804FBF3
:1053900000B587B0194A01AB92E8030018600433E6
:1053A000198040F6FF73ADF8043001AB144A19467A
:1053B0001448F8F7ABFA0590059B0493049B002B67
:1053C00004D0114A29210498F2F7FAF9012308229E
:1053D00000210C48F8F736FB0590059B0393039BCF
:1053E000002B04D0084A2C210398F2F7E9F905486C
:1053F000F8F7FEFA00BF07B05DF804FB14AB03003A
:105400000D540300ACAA0300B4AA030000B585B094
:1054100003468DF807309DF80730002B1CD1104B48
:105420001B6801330E4A13600123082200210D4836
:10543000F8F708FB0390039B0293029B002B04D018
:10544000094A37210298F2F7BBF90648FFF793FFA4
:10545000FDF7BCFE00F058F800BF05B05DF804FB96
:10546000EC730020ACAA0300B4AA0300014B1B6834
:1054700018467047EC73002000B583B00190019B83
:105480001B681F2B04D905494FF4E870F3F7F7F8B0
:105490004FF0A043184603B05DF804FB2CAB0300AB
:1054A00000B585B0019001AB1846FFF7E5FF03900A
:1054B000019B012202FA03F31946039800F004F855
:1054C00000BF05B05DF804FB82B001900091019B24
:1054D000009AC3F8082500BF02B0704708B5084B12
:1054E0001B78052B03D0064B1B78042B06D1172005
:1054F000FFF7D6FF0021034800F0C2FD00BF08BD42
:10550000B07800200C7C002000BF704733DF70476C
:1055100000BF184600B585B00190019B002B0AD052
:10552000074B43F001030393019B9B010293039BF1
:105530000298984700E000BF05B05DF804FB00BF8B
:10554000B0AE030000B583B00190019B1B681F2B18
:1055500004D905494FF4E870F3F791F84FF0A043F0
:10556000184603B05DF804FBD8AB030000B585B066
:10557000019001AB1846FFF7E5FF0390019B012264
:1055800002FA03F31946039800F018F800BF05B0BB
:105590005DF804FB00B585B0019001AB1846FFF73C
:1055A000D1FF0390019B012202FA03F319460398ED
:1055B00000F00EF800BF05B05DF804FB82B001906A
:1055C0000091019B009AC3F8082500BF02B0704704
:1055D00082B001900091019B009AC3F80C2500BF96
:1055E00002B0704700B583B00190019B002B0AD038
:1055F0004FF47A70FFF78EFF019B013B0193019BF3
:10560000002BF5D100E000BF03B05DF804FB000003
:1056100008B5064A064BD31ADB081B0443F0030304
:1056200004491846F1F74EFB00BF08BDA0810300F6
:1056300060810300A0AC030008B500F04DF8134BE7
:105640001B78013B052B1ED801A252F823F000BFA6
:10565000695603006F560300755603008156030018
:105660007B5603008756030000F012F80CE000F0B0
:1056700015F809E000F028F806E000F0D7F903E09B
:1056800000F06AFA00E000BF00BF08BDB07800205B
:1056900008B5FFF71BFE00BF08BD000000B583B0D2
:1056A000FFF734FF0190019B0093009B002B04D077
:1056B000044A9D210098F2F783F800BF03B05DF81B
:1056C00004FB00BFD4AC030008B5FFF795FB00F066
:1056D0006FF900BF08BD000000B583B000238DF84E
:1056E0000730994B1B78DBB2002B18D0964B002269
:1056F0001A70964A964BD31ADB081B0443F0030337
:1057000094491846F1F7DEFAFFF742FC924B01226A
:105710001A7001F0D3F901F0D1F901F0CFF98F4BF4
:105720001B78DBB2002B05D08C4B00221A708C4BFF
:1057300001221A708B4B1B78DBB2002B17D0894BE0
:1057400000221A70884B1A78884B5A707F4A804B17
:10575000D31ADB081B0443F00303834A1278114673
:10576000834A52F8212083491846F1F7B9FA824B4F
:105770001B78DBB2002B0FD0744A754BD31ADB08B1
:105780001B0443F003037D491846F1F79BFA7A4B5B
:1057900000221A70FDF7C6FC794B1B78DBB2002B98
:1057A00015D0774B00221A70FDF7D0FC03461A463D
:1057B0006E4B9A70654A664BD31ADB081B0443F0A4
:1057C00003036A4A92786F491846F1F789FAFFF79E
:1057D000FDFA0346002B0AD0032264496A4802F00E
:1057E00041F8624B03221A7001238DF80730674B92
:1057F0001B78DBB2002B1AD0544A554BD31ADB0866
:105800001B0443F0030362491846F1F75BFA5F4B50
:1058100000221A70032255495B4802F023F8534BCB
:1058200002221A70FEF761FB01238DF807304F4BFF
:105830001B78012B0FD1574B1B78DBB2002B0AD002
:1058400000F00CFA494B05221A70524B00221A70D4
:1058500001238DF80730424B1B78DBB2002B2ED092
:105860003F4B00221A70414B1B78042B14D13E4B46
:105870001B78022B10D100F021FA3C4B05221A7044
:10588000324A334BD31ADB081B0443F0030342496B
:105890001846F1F717FA0FE0344B01221A7000F0A6
:1058A00015FA2A4A2A4BD31ADB081B0443F00303D8
:1058B0003A491846F1F706FA01238DF80730384BBC
:1058C0001B78DBB2002B0AD000F096F9274B04229C
:1058D0001A70334B00221A7001238DF80730234BC6
:1058E0001B78042B0FD12F4B1B78DBB2002B0AD077
:1058F00000F0E4F92B4B00221A701C4B01221A70A5
:1059000001238DF807309DF80730002B17D00F4A80
:105910000F4BD31ADB081B0443F003001A4B1B7810
:105920001A46214B53F822301946104B1B781A4661
:105930001D4B53F822300A461C49F1F7E2F900BF2B
:1059400003B05DF804FB00BF785E0020A081030077
:10595000608103003CAD0300CA730020A9780020D9
:10596000CE730020BE7F0020BD7F0020B0780020D5
:105970005C2C002050AD0300A878002060AD03002F
:10598000AC44002074AD0300B4780020B778002048
:1059900090AD0300CD730020A0AD0300D0AD030097
:1059A000CF730020D0730020402C0020F0AD030006
:1059B00000B583B0174B1A78174B1B789A4224D046
:1059C000144B1B788DF80730134B1A78114B1A7053
:1059D000114A9DF807301370104A114BD31ADB0897
:1059E0001B0443F003000C4B1B781A460D4B53F875
:1059F00022301946074B1B781A460A4B53F82230BF
:105A00000A460949F1F77DF900E000BF03B05DF8EF
:105A100004FB00BFB0780020B4780020A081030010
:105A200060810300402C0020F0AD030008B53B4B23
:105A30001B78DBB2002B2BD0FEF72EFDFEF728FEE5
:105A4000FEF74EF90246364B1B68D31AB3F5FA6FD0
:105A50001ED9FFF70FFB334B01221A7001F02EF80D
:105A6000314800F039FB314A314BD31ADB081B04B3
:105A700043F003032F491846F1F724F94FF4A0210E
:105A80002D4800F0FDFAFEF72BF90346244A136077
:105A90002A4B1B78DBB2002B1DD0284B00221A703A
:105AA0001E4B00221A70FEF7F1FC254800F014FB93
:105AB0004FF47021224800F0E3FA1C4A1C4BD31A21
:105AC000DB081B0443F003031E491846F1F7FAF8FC
:105AD000154800F001FB1C4B1B78DBB2002B0FD0EC
:105AE000194B00221A7000F0B9F8104A104BD31A63
:105AF000DB081B0443F0030314491846F1F7E2F8EE
:105B0000134B1B78022B04D0FEF7C0FC114B012273
:105B10001A70FFF7DBFB00BF08BD00BFAA780020AA
:105B2000B8780020CA7300203C7C0020A0810300CC
:105B30006081030010AE03005C7C0020AB78002085
:105B40004C7C002020AE0300AC78002048AE03005F
:105B5000BD7F0020CE73002008B51D4B1B78DBB243
:105B6000002B2BD0FEF798FCFEF792FDFEF7B8F85D
:105B70000246184B1B68D31AB3F5FA6F1ED9FFF70C
:105B800079FA154B01221A7000F098FF134800F0C3
:105B9000A3FA134A134BD31ADB081B0443F0030385
:105BA00011491846F1F78EF84FF4A0210F4800F084
:105BB00067FAFEF795F80346064A13600C4B1B780C
:105BC000022B02D00B4B01221A7000BF08BD00BF90
:105BD000AA780020BC780020CA7300203C7C0020FA
:105BE000A08103006081030010AE03005C7C0020F4
:105BF000BD7F0020CE73002008B5134B1B78052B0A
:105C00000AD1124A124BD31ADB081B0443F00303D8
:105C100010491846F1F756F8FEF738FC6420FFF7F4
:105C2000E1FCFEF781FB6420FFF7DCFC1720FFF7A7
:105C30009DFCC820FFF7D6FC1720FFF7ABFC064BF6
:105C400001221A7000BF08BDB0780020A0810300B7
:105C50006081030078AE0300AA78002008B51348DD
:105C600000F03AFA124800F037FA124800F034FA1D
:105C7000FEF70CFC6420FFF7B5FCFEF755FB642033
:105C8000FFF7B0FC0C4B01221A701720FFF76EFCD7
:105C9000C820FFF7A7FC1720FFF77CFC4FF4A021DA
:105CA000024800F0EDF900BF08BD00BF5C7C002099
:105CB0003C7C00204C7C0020AA780020024B002273
:105CC0001A7000BF704700BF2871002008B5034B51
:105CD00000221A70FEF7DAFB00BF08BD2871002011
:105CE00076DF704700BF184600B583B00190019B76
:105CF0001B681F2B04D905494FF4E870F2F7BFFC6D
:105D00004FF0A043184603B05DF804FBD4AE030087
:105D100000B585B0019001AB1846FFF7E5FF039091
:105D2000019B012202FA03F31946039800F004F8DC
:105D300000BF05B05DF804FB82B001900091019BAB
:105D4000009AC3F80C2500BF02B0704700B583B0BD
:105D50000190019B1846FFF7DBFF019B172B03D136
:105D60000A4800F0B9F90CE0019B162B03D1084852
:105D700000F0B2F905E0019B182B02D1054800F0B4
:105D8000ABF900BF03B05DF804FB00BF0C7C002042
:105D90001C7C00202C7C002008B50C4A0C4BD31A2C
:105DA000DB081B0443F003030A491846F0F78AFF97
:105DB000094B1B8813211846FFF792FF074B01225E
:105DC0001A70074B01221A7000BF08BDA0810300A2
:105DD0006081030080AF0300B02C0020BD7F002055
:105DE000A978002008B5084A084BD31ADB081B0421
:105DF00043F0030306491846F0F764FF054B012200
:105E00001A7000BF08BD00BFA081030060810300BD
:105E1000BCAF0300AC78002008B5084A084BD31A81
:105E2000DB081B0443F0030306491846F0F74AFF5A
:105E3000054B01221A7000BF08BD00BFA0810300FE
:105E40006081030004B00300AB78002000B58BB084
:105E5000F2F79CFA0990099B0893089B002B04D049
:105E60003C4A54210898F1F7ABFC3B4A00213B48DF
:105E7000F2F7C0FA0990099B0793079B002B04D007
:105E8000344A56210798F1F79BFC354A00213548E2
:105E9000F2F7B0FA0990099B0693069B002B04D0F9
:105EA0002C4A58210698F1F78BFC2D4A00212E48E8
:105EB000F2F7A0FA0990099B0593059B002B04D0EB
:105EC000244A5A210598F1F77BFC254A00212748EE
:105ED000F2F790FA0990099B0493049B002B04D0DD
:105EE0001C4A5C210498F1F76BFC214A00212148EF
:105EF000F2F780FA0990099B0393039B002B04D0CF
:105F0000144A5E210398F1F75BFC1B4A00211B48F1
:105F1000F2F770FA0990099B0293029B002B04D0C0
:105F20000C4A60210298F1F74BFC154A00211548F4
:105F3000F2F760FA0990099B0193019B002B04D0B2
:105F4000044A62210198F1F73BFC00BF0BB05DF8F9
:105F500004FB00BF50B0030011560300B8AE0300AD
:105F60004D5D0300BCAE0300C0AE0300C4AE030031
:105F7000995D0300C8AE0300E55D0300CCAE0300ED
:105F8000195E0300D0AE030008B5FFF75FFF2E4B8C
:105F900000221A702D4A2C4B5A602B4B4FF4701272
:105FA0009A60294B0022DA60294B00221A70294A94
:105FB000274B5A60264B1722DA60254B40F6CD421C
:105FC0009A60254B00221A70244A234B5A60224BB8
:105FD0001622DA60204B40F6CD429A60204B002218
:105FE0001A70204A1E4B5A601D4B1822DA601C4B57
:105FF00040F6CD429A601C4B00221A701B4A1A4B85
:106000005A60194B0022DA60174B4FF420229A6035
:10601000174B00221A70174A154B5A60144B002276
:10602000DA60134B4FF470229A60134B00221A70FF
:10603000124A114B5A60104B0022DA600E4B4FF49B
:10604000A0229A6000BF08BDFC7B0020C078002021
:106050000C7C0020E07800201C7C002000790020CF
:106060002C7C0020207900203C7C002040790020FE
:106070004C7C0020607900205C7C0020807900202E
:1060800000B585B001900091019B1B78022B1CD0BC
:10609000009B002B02D1019B9B680093019B5868D9
:1060A000019BDB681A460099F2F7D4F90390039B31
:1060B0000293029B002B04D0064A93210298F1F729
:1060C0007FFB019B02221A7000E000BF05B05DF863
:1060D00004FB00BF50B0030000B585B00190019BE8
:1060E0001B78022B13D1019B5B681846F2F7E4F989
:1060F0000390039B0293029B002B04D0064A9C2131
:106100000298F1F75DFB019B01221A7000E000BFCD
:1061100005B05DF804FB00BF50B0030076DF7047A8
:1061200000BF18467ADF704700BF18467CDF704713
:1061300000BF18467FDF704700BF18468FDF7047EB
:1061400000BF184690DF704700BF1846B0DF7047A9
:1061500000BF1846B1DF704700BF184666DF7047C2
:1061600000BF184600B58FB003AB4149184601F097
:10617000D5FB9DF82030012262F303038DF8203017
:106180009DF82030012262F307138DF82030394B3F
:106190001B7F002B24D1374B5B7F002B20D1354B4D
:1061A0009B7F002B1CD1334BDB7F002B18D1314B55
:1061B00093F82030002B13D12E4B93F82130002B75
:1061C00009D02C4B93F82230002B04D0294B93F8A4
:1061D0002330002B04D1274B93F82430002B0CD014
:1061E00003AB184601F0BCFB03469AB203A908AB07
:1061F0001846FFF79BFF0D900AE01F4801F0B0FB27
:1062000003469AB208AB1C491846FFF78FFF0D9062
:106210000D9B0C930C9B002B04D0184A8C210C98DE
:10622000F1F7CEFA09AB08220021184601F043FB32
:106230000823ADF824302823ADF826300023ADF82C
:1062400028304FF4C873ADF82A3009AB1846FFF771
:1062500069FF0D900D9B0B930B9B002B04D0074AFD
:1062600096210B98F1F7ACFA00BF0FB05DF804FB74
:10627000244200200842002038B1030040B103004E
:1062800000B585B00190019B1B78002B14D1019BB8
:106290009B8A0393019B1B69039A1946084801F0E6
:1062A000E1FA039B142B07D1064B01221A7014222A
:1062B0000349054801F0D6FA00BF05B05DF804FBBC
:1062C000C87E0020C97300208C73002000000000ED
:1062D00000B59DB000230193374B019301AB1946E4
:1062E0003648FBF7E9F81B901B9B1A931A9B002B6F
:1062F00004D0334AB9211A98F1F762FA16AB042296
:106300000021184601F0D7FA2E4B169316AB19460A
:106310002D48FBF7FBFA1B901B9B1993199B002B35
:1063200004D0274AC0211998F1F74AFA274B009365
:106330006B46184600F0C4FD1B901B9B1893189BDE
:10634000002B04D01E4AC6211898F1F739FA06AB83
:1063500040220021184601F0AEFA06AB1C4918464F
:10636000FAF7F0FB06AB08331A491846FAF7EAFBCE
:106370000FA3D3E90023CDE90223174B049302AB0B
:10638000129301238DF8543006AB1846FBF720FD1D
:106390001B901B9B1793179B002B04D0084AD521F9
:1063A0001798F1F70DFA00BF1DB05DF804FB00BFB0
:1063B0005544332211000000DD630300D47F002028
:1063C00040B1030081620300942C0020092D0300DA
:1063D000A8B10300B4B103008877660000B583B0AC
:1063E0000190044AE0210198F1F7EAF900BF03B0F7
:1063F0005DF804FB40B1030000B583B00190044A8E
:10640000E9210198F1F7DCF900BF03B05DF804FB66
:1064100040B1030000B58BB001AB1C22002118462F
:1064200001F049FA002301934FF4203302934FF413
:106430007023039303238DF810300023ADF812303E
:1064400001238DF81430002306930A4B079301AB08
:106450001846F9F7E5FF0990099B0893089B002B64
:1064600004D0054AFD210898F1F7AAF900BF0BB046
:106470005DF804FBF963030040B1030000B583B08D
:1064800003468DF807309DF80730002B01D0032B11
:106490000DE0094A094BD31ADB081B0443F0030340
:1064A00007491846F0F70EFC00F00CF800BF00BFDB
:1064B00003B05DF804FB00BFA0810300608103000E
:1064C000BCB1030000B583B003211348F9F718FDF0
:1064D0000190019B082B0AD0019B0093009B002B8D
:1064E00005D00E4A4FF495710098F1F769F90C4BFD
:1064F00001221A700B4B01221A700B4A0B4BD31A54
:10650000DB081B0443F0030309491846F0F7DAFBE4
:1065100000BF03B05DF804FB6C7C002040B10300B9
:10652000BD7F0020BE7F0020A081030060810300AA
:10653000CCB1030010B596B001900091019B1B886F
:10654000232B00F39180002B40DCA6E13B3B1B2B6F
:1065500000F2A38101A252F823F000BF9B67030061
:106560009B6803009B6803009B6803009B68030013
:106570009B6803009B6803009B6803009B68030003
:106580009B6803009B6803009B6803009B680300F3
:106590009B6803009B6803009B6803009B680300E3
:1065A0009B6803009B6803009B6803009B680300D3
:1065B0009B68030025680300716703009B68030064
:1065C0009B6803009B680300CD670300013B222BFF
:1065D00000F2638101A252F823F000BFFF670300BD
:1065E0009B6803009B6803009B6803009B68030093
:1065F0009B6803009B6803009B6803009B68030083
:106600009B6803009B6803009B6803009B68030072
:106610009B6803009B68030077660300A96603007C
:106620009B680300116703009B6803009B680300DD
:106630009B6803009B6803009B6803009B68030042
:106640009B6803009B6803009B6803009B68030032
:106650009B6803009B6803009B680300DB660300E4
:106660009B6803003B670300562B00F316813B2B0E
:10667000BFF66CAF11E1914A914BD31ADB081B04B2
:1066800043F003038F491846F0F71CFB8E4B0122A1
:106690001A708E4B02221A708D4B01221A70019BC8
:1066A0009A888C4B1A8005E1874B00221A70874B21
:1066B00001221A70864B01221A70804A804BD31A2D
:1066C000DB081B0443F0030383491846F0F7FAFA8A
:1066D000804B4FF6FF721A80ECE000238DF83030CB
:1066E00000238DF83130019B9B880CAA1146184677
:1066F000FFF724FD1590159B0F930F9B002B00F0C7
:10670000CE80764A40F25B110F98F1F759F8C6E057
:10671000704B1888002300228521FFF70BFD159090
:10672000159B0E930E9B002B00F0BB806B4A40F232
:1067300061110E98F1F744F8B3E00AAB082200218A
:10674000184601F0B8F8019B9B880AA90022184658
:10675000FFF7F8FC1590159B1093109B002B00F091
:10676000A2805E4A4FF4B5711098F1F729F89AE0CB
:10677000584B1888002300220021FFF7EBFC1590EE
:10678000159B1393139B002B00F08F80534A4FF4FB
:10679000B8711398F1F714F887E0019B9B881321D7
:1067A0001846FFF7BBFC1590159B1193119B002B0E
:1067B00005D04A4A40F277111198F1F701F8434B9E
:1067C00001221A70424B01221A7073E0019B9B88D0
:1067D00013211846FFF7A2FC1590159B1493149BE8
:1067E000002B05D03D4A4FF4C0711498F0F7E8FF34
:1067F000364B01221A70364B01221A705AE0019B67
:106800009B8800211846FFF7A9FC1590159B0D9356
:106810000D9B002B4BD0314A40F287110D98F0F7B9
:10682000CFFF44E0019B06AC0633186859689A68AC
:10683000DB680FC49DF81830002B3AD09DF820304B
:10684000042B07D09DF82030062B03D09DF8203074
:10685000052B2ED19DF81830022B03D102238DF881
:10686000083002E001238DF808304FF4C173ADF811
:106870000C30019B9B8802AA11461846FFF766FC64
:106880001590159B1293129B002B12D0134A4FF4B4
:10689000CE711298F0F794FF0BE000BF0AE000BF42
:1068A00008E000BF06E000BF04E000BF02E000BF58
:1068B00000E000BF00BF16B010BD00BFA081030004
:1068C00060810300D4B10300BC7F0020BD7F0020A5
:1068D000BE7F0020B02C0020E8B1030040B10300CF
:1068E00000B587B0FBF732FD0590059B0493049B30
:1068F000002B05D0164A4FF4D8710498F0F760FFCA
:106900000023019301AB19460120FBF735FE0590EA
:10691000059B0393039B002B05D00D4A4FF4DB71BD
:106920000398F0F74DFF01AB1846FBF743FF0590C6
:10693000059B0293029B002B05D0054A4FF4DD71A5
:106940000298F0F73DFF00BF07B05DF804FB00BF01
:1069500040B1030000B583B001900091009B5A88BC
:10696000114B1B889A421AD1009B1B8840F6772254
:10697000934214D1009B9B88033B9AB20B4B1A8025
:106980000B4A0C4BD31ADB081B0443F00300074BE4
:106990001B881A46054B1B880749F0F7B2F900BF60
:1069A00003B05DF804FB00BFB02C0020B22C002027
:1069B000A08103006081030000B2030000B585B030
:1069C00011491248FAF778FC0390039B0293029B4B
:1069D000002B05D00E4A4FF4E8710298F0F7F0FE54
:1069E00040210A48FAF793FC0390039B0193019B13
:1069F000002B05D0064A40F2D3110198F0F7E0FED3
:106A000000BF05B05DF804FB55690300C07F00209E
:106A100040B1030000B5AFB001ABAC220021184675
:106A200000F049FF02238DF8043001238DF8063071
:106A300005238DF807300223ADF85030124B159323
:106A400001238DF880308023239344F250632493F4
:106A50000E4B2A9301AB19460D48F9F760F92D90BA
:106A60002D9B2C932C9B002B05D00A4A40F2EB1156
:106A70002C98F0F7A5FE01210548F9F743F900BF6E
:106A80002FB05DF804FB00BFB42C00207D64030030
:106A90006C7C002040B1030008B5FFF721FFFFF731
:106AA00061FBFFF78BFFFFF713FCFFF7B3FFFFF767
:106AB000B1FCFFF707FD00BF08BD000000B583B0C3
:106AC000254B1B78DBB283F00103DBB2002B07D030
:106AD000224B1B78DBB283F00103DBB2002B34D1F5
:106AE0001E4B1B78DBB2002B32D01C4B00221A70DD
:106AF0001B4B1B78022B2AD11423ADF80230194B03
:106B00001B880DF1020218491848FAF7A5FF0190F9
:106B1000019B052B0AD1164A164BD31ADB081B041E
:106B200043F0030314491846F0F7CCF8019B132BEC
:106B30000ED10F4A0F4BD31ADB081B0443F001039D
:106B40000E491846F0F7BEF802E000BF00E000BFB3
:106B500003B05DF804FB00BFCB730020CA730020B4
:106B6000BD7F0020B02C0020B4730020942C0020A6
:106B7000A0810300608103001CB2030030B2030057
:106B8000A8DF704700BF1846AEDF704700BF184649
:106B9000B0DF704700BF184662DF704700BF18467D
:106BA0003CDF704700BF18463DDF704700BF184606
:106BB00082B003468DF8073000BF02B07047000076
:106BC00000B589B0019003AB10220021184600F0F7
:106BD00072FE02238DF80C30144B1B7E002B09D063
:106BE0009DF8123043F001038DF812300023ADF808
:106BF000103003E040F2FD13ADF810300B4B9B88D2
:106C000003AA11461846FFF7C3FF0790079B112BF5
:106C1000F4D0BDF81030002B03D1019800F0D8FA61
:106C200000E000BF09B05DF804FB00BFE07F00207A
:106C300000B585B00190019B9A88134B9B889A42BE
:106C40001ED1019B06330393039B1B78022B18D1A3
:106C5000039B5A880C4BDB889A4212D1039B1B7A08
:106C6000042B0ED0039B1B7A062B0AD0039B1B7AA6
:106C7000052B06D0039B02331846FFF7A1FF00E067
:106C800000BF05B05DF804FBE07F002082B00190FA
:106C9000019B9A88024B9A8000BF02B0704700BFE8
:106CA000E07F002082B00190064B9A88019B9B8870
:106CB0009A4204D1034B4FF6FF729A8000E000BF66
:106CC00002B07047E07F002000B585B00190019BC5
:106CD00006330393039B1A88114B5B899A421AD19E
:106CE000039B5B89022B17D1039B0C331846F9F7E2
:106CF00013FF03461A460A4B1A760A4A0A4BD31A5E
:106D0000DB081B0443F00303054A127E07491846BB
:106D1000EFF7E6FF00E000BF05B05DF804FB00BF41
:106D2000E07F0020A08103006081030080B20300A7
:106D300000B585B00190019B06330393039B1A882D
:106D40000A4BDB889A420DD1084B5B7E002B09D0A1
:106D500000F0ACFA0290029B002B03D0034B5B695E
:106D60000220984700BF05B05DF804FBE07F0020DB
:106D700000B583B001900091019B002B26D0019BB0
:106D80001B88532B1ED0532B22DC512B12D0512B9E
:106D90001EDC502B12D0502B1ADC102B02D0112BE2
:106DA00004D015E00198FFF771FF12E00198FFF79A
:106DB00079FF0EE00198FFF73BFF0AE00198FFF72B
:106DC00083FF06E00198FFF7B3FF02E000BF00E099
:106DD00000BF03B05DF804FB00B58BB003460A4664
:106DE0008DF8073013468DF806300323ADF82230B6
:106DF00003AB10220021184600F05DFDBDF82230E3
:106E0000ADF8203020238DF81C309DF807308DF828
:106E10001D309DF806308DF81E30134BDB88ADF821
:106E20000C3002238DF80E300023ADF8103008AB83
:106E3000059307AB06930C4B9B8803AA1146184693
:106E4000FFF7A2FE0990099B002B07D1BDF8203067
:106E5000BDF822209A4201D00C230993099B1846C1
:106E60000BB05DF804FB00BFE07F002000B585B0EB
:106E70004FF0FF310020FFF797FE0390039B029332
:106E8000029B002B01D0029B13E0B1210020FFF7F1
:106E900087FE0390039B0193019B002B01D0019B74
:106EA00007E0064B5B69012098470220F2F72CFDB2
:106EB0000023184605B05DF804FB00BFE07F00200A
:106EC00010B58CB001902D4B02AC0FCB84E80F00B5
:106ED000019B002B01D10E234DE0294B4FF6FF7291
:106EE0009A80019B1B68264A5361254B00225A76E3
:106EF000234B00221A76224B5B69002B02D1204BD8
:106F0000204A5A611E4800F0D5F80B900B9B0A935B
:106F10000A9B002B01D00A9B2DE001238DF81A302B
:106F20004FF65963ADF8183006AB174A19460120E1
:106F3000FFF726FE0B900B9B0993099B002B01D0BA
:106F4000099B18E002AB0E491846FFF725FE0B908F
:106F50000B9B0893089B002B01D0089B0BE0084873
:106F600000F0FAF80B900B9B0793079B002B01D0C6
:106F7000079B00E0002318460CB010BDA0B2030030
:106F8000E07F0020B16B0300E27F002000B583B0FA
:106F90000190054B1B680549019898470346184620
:106FA00003B05DF804FB00BFFC7F002004800020DC
:106FB00000B583B00190054B5B680549019898477F
:106FC0000346184603B05DF804FB00BFFC7F0020B9
:106FD00004800020064B1B68002B05D0044B5B6827
:106FE000002B01D0012300E000231846704700BFAA
:106FF000FC7F002000B585B00190134B1B689B7E81
:10700000002B01D006231AE00198FFF7BFFF039081
:10701000039B002B04D10C4B1B6801229A760DE0D8
:10702000039B0F2B0AD1094A094BD31ADB081B0417
:1070300043F0010307491846EFF744FE039B184647
:1070400005B05DF804FB00BF08800020A0810300AC
:1070500060810300B0B2030000B583B0144B1B681D
:107060009B7E002B0ED006210120FFF7B5FE01907C
:10707000019B002B04D00E4B1B685B6903209847D3
:10708000002310E00A4B1B6801225A7601210120DF
:10709000FFF7A2FE0190019B002B03D0044B1B685D
:1070A00000225A76019B184603B05DF804FB00BF2E
:1070B0000880002082B00190019B002B01D10E239B
:1070C00003E0034A019B13600023184602B0704797
:1070D0000880002000B585B001900091FFF77AFF8D
:1070E0000346002B32D00198FFF762FF0390039B09
:1070F000082B2CD0039B002B11D1164B1B680022B0
:107100009A7601210220FFF767FE0390039B002B74
:107110001DD0104B1B685B690320984717E00D4B8F
:107120001B6800229A7606210220FFF755FE039085
:10713000039B002B04D0074B1B685B690320984717
:10714000044B1B685B690220984700E000BF05B054
:107150005DF804FB0880002000B58BB0019002AB05
:1071600020220021184600F0A6FB0323ADF80830CA
:10717000019B1B788DF80A309DF8153043F02003F1
:107180008DF815309DF8153043F008038DF8153053
:1071900001238DF8183001238DF814301723ADF832
:1071A0000C3001238DF81B3001238DF81A30012398
:1071B0008DF81930019B5888019B9A1D02AB194626
:1071C000F9F744FD034618460BB05DF804FB0000D8
:1071D00000B585B0019004238DF80F30019B1B7B17
:1071E000012B02D0022B11D035E0FFF735FF0290C2
:1071F000029B002B03D101238DF80F302FE0029B5F
:10720000112B2CD106238DF80F3028E0019B5B7BDE
:10721000142B03D8019B5B7B002B03D105238DF836
:107220000F301EE0019B03F10E01019B5B7B1A46B0
:107230001B4800F017FB019B5B7B1A46194B9A61B8
:107240001848FFF7D7FE0290029B002B09D10123BB
:107250008DF80F3005E002238DF80F3002E000BFFB
:1072600000E000BF9DF80F30012B15D0019B1B7B68
:107270009DF80F2011461846FFF7AEFD0290029BC5
:10728000002B04D0084B1B685B6903209847064B12
:107290001B685B690220984700BF05B05DF804FBDE
:1072A000108000200C8000200880002000B583B0F2
:1072B000064B1B685B6900209847FFF7D7FD0190DC
:1072C000019B184603B05DF804FB00BF0880002056
:1072D000F0B540F2FF7681EA030C16EA115E1EBF9C
:1072E000B64516EA1355B5425AD021EA465141F443
:1072F0008011A1FB024723EA465343F48013AE44B6
:10730000A0FB03650CF0004C36197D41A1FB03473F
:1073100047F10003A0FB0217F619654153F1000382
:10732000094218BF46F0010640F2FE74B3F5007F33
:1073300013D2AEF5806EA6452BD24CEA033128035A
:1073400041EA155140EA16503203450872F10042F5
:1073500050F1000051EB0E51F0BDAEF2FF3EA645DC
:1073600017D24CEAC321E80241EA555140EA56508F
:10737000F202450872F1004250F1000051EB0E514B
:10738000F0BD0CF0004141F0FE4141F470010020DD
:10739000F0BD1EEA0E0FF4D50CF000410020F0BD48
:1073A00016EA115F04BF01F000410020004218BF3F
:1073B00041F0010116EA135F04BF03F0004300220D
:1073C000124218BF43F0010306EA1354B44218BF37
:1073D0009EEA060F03D00CF000410020F0BD21F022
:1073E000004123F00043B1EB065F06D8B3EB065F24
:1073F00003D8002918BF002BC3D140F20001C7F603
:10740000F8710020F0BD00BF2DE9F04391EA030EB2
:107410000EF0004E40F20007CFF6E07717EA410584
:107420001EBF95EA070F17EA430595EA070F00F01C
:10743000A1807F0D17EA135623EA475343F48013C4
:1074400017EA115521EA475141F48011AD1B05F2AD
:10745000FD354FEAD31C1CF1010C4FF00047B7FB80
:10746000FCF77F01A2FB079C0024E3FB07C4DCF1CF
:10747000000CD9F100097CF1000CA0FB0762002090
:10748000E1FB072000275FEAC628E0FB0987760DAD
:1074900046EAC226520DF61900277A41E0FB0C623B
:1074A0005FEAC823E2FB09375FEA585848EAC62872
:1074B000760D18EB070800214E41E2FB0C8602EB2B
:1074C000C020DA02E6FB09215B0D43EAC8235FEA2C
:1074D00058585B18002758EB0708E6FB0C38D10218
:1074E000E8FB0917520D42EAC3225B0DD2190027AF
:1074F0007B41E8FB0C2308EBC6265FEAC128E3FBCF
:107500000987490D41EAC221520DC91942F1000211
:10751000E3FB0C12470019EB08095CEB010C72EB62
:10752000040453EBC62047EB56530026B3F5000F77
:107530007641AD190236D6F1200910FA09F4F0406F
:1075400013FA09F21043F340E40F001943F100036A
:10755000B3F5001F24BF5B08013540F2FE77BD4242
:1075600004D24EEA05511944BDE8F0832D4224D5DA
:10757000714626E0004218BF41F00101124218BFD7
:1075800043F00103B7EB410F2CBFB7EB430F1BE0F8
:10759000B7EB410F04BFB7EB430F15E017EA410FFC
:1075A00004BF17EA430F0FE017EA410FE0D017EAD4
:1075B000430F02D0B7EB430FDAD04EF0FE4141F457
:1075C00070010020BDE8F08340F20001C7F6F871B9
:1075D000F7E700BF80B110F0004248BFD0F10000D3
:1075E000120D02F21D42B0FA80F18840521AC30A0D
:1075F000400503EB0251704701007047C0F3C751CB
:1076000091B142004FEA40704FEAD2014FEA310196
:1076100001F16051B2F17F4F38BF704701F1605105
:1076200018BF41F40021704710F00041002070475E
:1076300001F000428B1AA3F16051B1F5801F0ADB03
:10764000B1F17F6F09D242EAC102C10071F100417C
:1076500042EB507070471046704701285B4113F5AC
:10766000001F04D842F0FE4040F400007047C900FB
:1076700041EA507040EA020040F4800040F080404F
:10768000704700BF7F2805D8034B185C034B5B5C39
:1076900018407047002070478CB303000CB40300FF
:1076A000A0F16103192B98BF20387047A0F1410366
:1076B000192B98BF203070477F2805D8034B185CE2
:1076C000034B5B5C18407047002070478CB303008D
:1076D0000CB40300A0F16103192B98BF2038704748
:1076E000A0F14103192B98BF203070477F299ABF22
:1076F000017001206FF02E0070475AB10A787F2A7E
:107700000AD800B10260002119605960501A18BFF0
:1077100001207047002070476FF02E00704710B5B1
:1077200004460846A2684AB12368616803F1010C67
:107730008C4508BF00208B4208D2D054E3682BB19F
:1077400021686268914201D221469847236801333B
:10775000236010BD70B54C1E09D41646C5B229462B
:107760003046FFF7DCFF013CB4F1FF3FF7D170BDBD
:1077700010F0100F08D108B510F4007F14BF3020AE
:107780002020FFF7E7FF08BD7047000008B5034B56
:107790005B689B681B68984708BD00BFBC2C002035
:1077A00008B50921FFF7F2FF08BD9AB330B594463A
:1077B0000F2A18D902460B4640EA010414F0030FC1
:1077C00002D00CF1FF3C11E019461046043204339C
:1077D0000C680568A54206D110461946ACF1040CA8
:1077E000BCF1040FF0D8BCF1010C0FD00A460346DF
:1077F00084441146184601330132047891F800E0C0
:10780000744503D1184611466345F2D100780B78D0
:10781000C01A30BD002070470EB400B586B007AA6C
:1078200052F8041B05920390002304936FF0004369
:10783000029301A800F0C4F806B05DF804EB03B0B1
:107840007047037853B159B10144034613F8012F2F
:1078500012B18B42FAD10B46181A70470346FBE768
:107860000346F9E7844640EA010313F0030F18D1F9
:107870008446202A0BD32DE9F007B1E8F807A0E8E9
:10788000F807A2F12002202AF7D2BDE8F007042A67
:1078900007D351F8043B40F8043BA2F10402042A48
:1078A000F7D2002A05D011F8013B00F8013B013A5C
:1078B000F9D1604670478446002A2DD010F0030F9E
:1078C00004D000F8011B013A26D0F7E7C9B241EA1B
:1078D000012141EA0141202A12D3A2F120022DE91F
:1078E000F0030B460C460D460E460F468846894669
:1078F000A0E8FA03203AFBD2BDE8F00320320BD017
:10790000042A05D340F8041B043A05D0042AF9D20E
:1079100000F8011B013AFBD160467047024610F0A7
:10792000030F16D111F0030F13D12DE9F0004FF022
:1079300001374FF0803351F8044BA4EB070525EADB
:1079400004051D4002D142F8044BF4E7A1F1040103
:10795000F0BC11F8013B02F8013B002BF9D1704754
:1079600000F1010110F0030F11D010F8012B002AD3
:1079700023D010F0030F0AD010F8012B002A1CD0DE
:1079800010F0030F03D010F8012B002A15D02DE9B9
:1079900070004FF001324FF0803350F8044BA4EBED
:1079A000020525EA04051D4000D1F6E7A0F1040018
:1079B00070BC10F8012B002AFBD1A0EB010070472E
:1079C0002DE9F04F89B007460392002303600C466F
:1079D00014F8011B002900F0FC82DFF818B5EBE277
:1079E000002507E05E2868D145F4805501E045F0A8
:1079F00040051C46234613F8010B3028F2D81F28F7
:107A000037D9A0F12002102A33D801A151F822F071
:107A1000EF790300737A0300737A0300557A030049
:107A2000737A0300737A0300737A03005B7A0300AE
:107A3000737A0300737A0300737A0300617A030098
:107A4000737A0300677A0300737A0300737A030082
:107A50006D7A030045F08005CBE745F40045C8E7A3
:107A600045F02005C5E745F01005C2E745F400756F
:107A7000BFE72A2821D1039A111D0391D2F800A053
:107A8000BAF1000FBCBFCAF1000A45F01005187822
:107A9000A31C2AEAEA7A2E2826D00021742847D08F
:107AA0007A2845D06C2800F0A8804C2800F0AB80E4
:107AB000682800F0B8801C463DE0A0F13002D2B248
:107AC000092A88BF4FF0000AE3D84FF0000A0AEBFA
:107AD0008A0A303800EB4A0A13F8010BA0F1300291
:107AE000D2B2092AF3D9D4E718782A280AD1039AFE
:107AF000111D03911168587802330029CEDB45F43B
:107B00008075CBE70133A0F13002D2B2092A88BFD9
:107B10000021F4D8002101EB8101303800EB410154
:107B200013F8010BA0F13002D2B2092AF3D9E4E72D
:107B30001C4614F8010B002800F05782A0F1250321
:107B4000DBB2532B62D8A0F12503532B5ED8DFE8BC
:107B500013F076005D005D005D005D005D005D007E
:107B60005D005D005D005D005D005D005D005D002D
:107B70005D005D005D005D005D005D005D005D001D
:107B80005D005D005D005D005D005D005D005D000D
:107B90005D005D005D005D005D005D005D005D00FD
:107BA0005D005D005D005D005D005D005D005D00ED
:107BB0005D005D005D005D00EC005D005D005D004E
:107BC0005D005D005D005D005D005D005D007B00AF
:107BD00021015D005D005D005D0021015D005D0033
:107BE0005D005D0095000F01D2005D005D00A60004
:107BF0005D001A015D005D00EE001C4614F8010BEB
